:060000000A128A11122809
:10000800FE00030E83120313A9000408AA000A08BD
:10001800AB007F08AC000A128A11FE280A128A1166
:1000280015288313CD30FD000230FE00DB30FF00C1
:10003800B93084000A128A1118230A128A11623010
:10004800FD000330FE002530FF00523084000A1204
:100058008A1118230A128A11831790308400C2303B
:100068000A128A114D230A128A118313CD30840093
:10007800DD300A128A114D23E201E301E401E501B2
:10008800E601E701FA01FB01FC01FD0183010A1207
:100098008A11852983120313A0002008F700770727
:1000A800F8007808A40024080138F7007708A100B0
:1000B8000A128A1164230A128A118312031324086C
:1000C800F700F8017708F0007808F1000A128A11A1
:1000D80055230A128A117308F700F8017708F0000F
:1000E8007808F1000A128A1155230A128A11740835
:1000F800F700F8017708F0007808F1000A128A1171
:1001080055230A128A110A128A116B230A128A11BC
:10011800831203132108F700F8017708F000780824
:10012800F1000A128A1155230A128A1176088400EE
:1001380083138001840A800176088400000875070B
:10014800F7007708840000080319AF280230F70089
:100158007708F607A02883120313A201A3017608E3
:1001680084000008F700840A0008F80078082302D1
:10017800031DC028770822020318DA2801300A1262
:100188008A1183220A128A11F700831203132208A4
:100198007507F80078088400770883138000013019
:1001A800A2070318A30A0030A307B32800300A12D5
:1001B8008A1183220A128A11F700760884008313B1
:1001C80000087507F80078088400770880000A128C
:1001D8008A115D230A128A110330F9008A30F80067
:1001E8005530F700F70BF628F80BF628F90BF62828
:1001F800FD2808008C1E7A290A128A1135230A1252
:100208008A1183120313A5002508AD000A128A116A
:1002180035230A128A1183120313A5002508AE009C
:100228000A128A1135230A128A1183120313A500B0
:100238002508AF008C12033083120313A7008A30FD
:10024800A6005530A500A50B2729A60B2729A70B23
:100258002729831203132E08A5002508F3002F0869
:10026800A6002608F4005130A7002708F5004D30F5
:10027800A8002808F60050300A128A114E200A12E7
:100288008A118312031307148611CF01D001500875
:10029800803AFF0080307F02031D542905304F0249
:1002A80003187729033083120313A7008A30A600A6
:1002B8005530A500A50B5E29A60B5E29A70B5E2964
:1002C800013083120313CF070318D00A0030D00778
:1002D8005008803AFF0080307F02031D75290530E1
:1002E8004F02031C56298312031307102C08FF0022
:1002F8002B088A002A088400290E8300FE0E7E0E31
:1003080009000A128A11A9220A128A110A128A11EC
:10031800C2220A128A11003083160313B100063074
:10032800B0001A30AF008030AE000A128A11512294
:100338000A128A114D3083160313B8001930B7001A
:100348004F30B600B60BA629B70BA629B80BA629BD
:10035800D92907148611033083160313B8008A308D
:10036800B7005530B600B60BB729B70BB729B80B8D
:10037800B729033083160313B8008A30B700553005
:10038800B600B60BC529B70BC529B80BC52903306C
:1003980083160313B8008A30B7005530B600B60B81
:1003A800D329B70BD329B80BD32983120313861487
:1003B800033083160313B8008A30B7005530B600EF
:1003C800B60BE429B70BE429B80BE429831203130D
:1003D80086100719AD290710D92900308316031391
:1003E800AC000030AB000030AA000030A9002308A0
:1003F8002204210420040319482AAD01AD0AA31BD5
:10040800132A0130A8000310A00DA10DA20DA30D01
:10041800A80B072A0130A8002808AD07032A0130D5
:10042800A8000310A90DAA0DAB0DAC0DA80B152A39
:1004380023082702031D2A2A22082602031D2A2A26
:1004480021082502031D2A2A20082402031C3B2A0E
:100458002008A4022108031C210FA5022208031C5E
:10046800220FA6022308031C230FA7022914013018
:100478000310A30CA20CA10CA00CFF3E031D3C2AE8
:100488000130AD02031D132A2C08A3002B08A2007B
:100498002A08A1002908A0000800283083120313A5
:1004A80094008316031391012E08B2002F08B3009D
:1004B8003008B4003108B50002300310B20DB30D96
:1004C800B40DB50DFF3E031D612A3508A30034089D
:1004D800A2003308A1003208A0000030A70098301D
:1004E800A6009630A5008030A4000A128A11F121D6
:1004F800831603132008FF3E930094010800F100BF
:100508000A128A1144230A128A11831603139115B9
:100518000A128A1144230A128A1183120313130838
:10052800F0007008F2000A128A1144230A128A1194
:100538007108031DA32A831603139116A62A83168E
:1005480003139112111672080800813083160313E1
:100558009900181118128312031398171816981275
:100568008C12831603130C128C16181383120313A0
:10057800181383160313981298160800831203138E
:10058800850186018701890183160317880189017E
:10059800803083160313850086015C30870089014B
:1005A800831203138501860187018901080002343B
:1005B8000034043400340834003408340034073478
:1005C8000034003400340134003407340034043477
:0605D8000034073400347A
:1006000003308A000408840A820700344A345134D3
:1006100031345A344834583400344A345134313443
:10062000593443345A3400347E088A007F088200EB
:1006300014230A128A118000840A04087D06031913
:100640000034FF0A0319FE0A182B0834003407345B
:1006500000340334003400340034003400340034F7
:100660000A34A034003400340A34831203131819F6
:100670003B2B981C402B18120000831203131816F2
:100680008C1E402B1A080800831603131419442BE0
:1006900011081F3903190800442B64008001840AE3
:1006A00004060319003404064E2B0A128A1144234F
:1006B000700883120313930008000A128A1144235E
:1006C00083160313111508000A128A114423831696
:1006D0000313111408000A128A114423831603130A
:0406E0009114080069
:04400E00E2E0FFFFEE
:00000001FF
