:060000000A128A11122809
:10000800FE00030E83120313B0000408B1000A08AF
:10001800B2007F08B3000A128A1129290A128A112C
:1000280015288313BE30FD000430FE00E130FF00C8
:10003800A03084000A128A1178250A128A116D30BC
:10004800FD000530FE00C230FF00673084000A1250
:100058008A1178250A128A11831790308400C230D9
:100068000A128A119D250A128A118313D730840037
:10007800E7300A128A119D250A128A115D30840020
:1000880067300A128A119D2583010A128A11682B8A
:1000980083120313A0002008F9007907FA007A08F0
:1000A800A40024080138F9007908A1000A128A116D
:1000B800B4250A128A11831203132408F900FA01DD
:1000C8007908F0007A08F1000A128A11A5250A12A7
:1000D8008A117308F900FA017908F0007A08F1002A
:1000E8000A128A11A5250A128A117408F900FA0160
:1000F8007908F0007A08F1000A128A11A5250A1277
:100108008A110A128A11BB250A128A118312031353
:100118002108F900FA017908F0007A08F1000A12BA
:100128008A11A5250A128A11770884008317781C7A
:1001380083138001840A8001770884008317781C60
:1001480083130008F900840A0008FA007908750783
:10015800FB007A0803187A0A7607FC007B088400FB
:1001680083177C1C8313000A0319C1280230F70780
:100178000318F80A0030F807A02883120313A20115
:10018800A301770884008317781C83130008F900FB
:10019800840A0008FA007A082302031DD528790882
:1001A80022020318F62801300A128A11BB240A1207
:1001B8008A11F9008312031322087507FA0023082D
:1001C8000318230A7607FB007A08840083177B1C30
:1001D8008313790880000130A2070318A30A0030AE
:1001E800A307C52800300A128A11BB240A128A11F3
:1001F800F900770884008317781C83130008FA0035
:10020800840A0008FB007A087507FC007B080318BD
:100218007B0A7607FD007C08840083177D1C831306
:10022800790880000A128A11AD250A128A11033052
:10023800FB008A30FA005530F900F90B2129FA0B36
:100248002129FB0B2129282908008C1EF7290A12CD
:100258008A1185250A128A1183120313AD002D080D
:10026800B40074303406031DF62986140A128A1164
:1002780085250A128A1183120313AD002D08B500D3
:100288000A128A1185250A128A1183120313AD00F6
:100298002D08B6008C12033083120313AF008A3086
:1002A800AE005530AD00AD0B5729AE0B5729AF0B3B
:1002B8005729203083120313D4000030D5003508A5
:1002C800AD002D08F3003608AE002E08F4003430D7
:1002D800F5000030F6005408F7005508F8005030D3
:1002E8000A128A114C200A128A110330831203134E
:1002F800AF008A30AE005530AD00AD0B8129AE0B92
:100308008129AF0B812983120313071486117530D5
:10031800AD002D08D6006E30AD002D08D7006B302B
:10032800AD002D08D8006F30AD002D08D9000D3074
:10033800AD002D08DA00DB01DC015C08803AFF0023
:1003480080307F02031DAA2905305B020318F129BA
:10035800343083120313A0000030A1000A128A115E
:1003680002220A128A11043083120313AF00CF301D
:10037800AE000130AD00AD0BBF29AE0BBF29AF0BEE
:10038800BF29563083120313A0000030A1000A12BF
:100398008A1102220A128A11043083120313AF0051
:1003A800CF30AE000130AD00AD0BD829AE0BD82947
:1003B800AF0BD829013083120313DB070318DC0ABB
:1003C8000030DC075C08803AFF0080307F02031DA4
:1003D800EF2905305B02031CAC29831203130710B5
:1003E8008610F7298C123308FF0032088A0031087A
:1003F8008400300E8300FE0E7E0E09000330831247
:100408000313A4008A30A3005530A200A20B0A2AC5
:10041800A30B0A2AA40B0A2A83120313A501A60117
:100428002008F0002108F1000A128A11BA220A12E3
:100438008A11710883120313A6007008A500013001
:10044800DD000030DE00FF30E500A2002208E600F3
:10045800DF01E0010130E3000030E400E101E201E6
:10046800A701A801003028021B300319270203182E
:10047800522A7E300A128A1131240A128A11013056
:1004880083120313A7070318A80A0030A80700302F
:1004980028021B3003192702031C3D2AE301E4014B
:1004A800A901AA0126082A02031D5C2A2508290297
:1004B8000318712A2908903E8400831700080A123D
:1004C8008A1131240A128A11013083120313A907F1
:1004D8000318AA0A0030AA07562A0130E1000030A2
:1004E800E200E609E50966080A128A1131240A12AF
:1004F8008A118312031365080A128A1131240A1219
:100508008A1183120313E101E2010130E300003094
:10051800E400AB01AC0100302C02063003192B02B9
:100528000318AB2A7E300A128A1131240A128A1162
:10053800013083120313AB070318AC0A0030AC0771
:1005480000302C02063003192B02031C962A0330B4
:1005580083120313A4008A30A3005530A200A20B13
:10056800B32AA30BB32AA40BB32A0800F901FA0192
:1005780000307A020630031979020318E12A790853
:10058800013E84000A128A114E250A128A11F200CD
:100598007207F3007908903E84007308831780007F
:1005A8000130F9070318FA0A0030FA0700307A0216
:1005B800063003197902031CC32A6030F20072085E
:1005C800831603179600FB01FC0100307C020630FD
:1005D80003197B0203180F2B7B08083E84000A12BC
:1005E8008A114E250A128A11F2007207F3007B085D
:1005F800073E903E84007308831780000130FB0794
:100608000318FC0A0030FC0700307C02063003198E
:100618007B02031CF02AE130F200720883160317EC
:100628009D000330F20072089E00F030F20072085C
:100638009F00F701F801F701F80177087007F20049
:1006480078080318780A7107F30072088400831782
:10065800731C831300080319382B0130F70703189C
:10066800F80A0030F807212BF501F6017808760220
:10067800031D402B7708750203185F2B7508700758
:10068800F20076080318760A7107F30072088400EE
:100698008317731C83130008F4007508103E903EFE
:1006A80084007408831780000130F5070318F60AE0
:1006B8000030F6073A2B7708103EF0007808031848
:1006C800013E003EF10008000D3083160313D600EA
:1006D800AF30D500B530D400D40B702BD50B702BB0
:1006E800D60B702B772B0A128A11FF240A128A1153
:1006F8000A128A111A250A128A1100308316031366
:10070800CF000630CE001A30CD008030CC000A125F
:100718008A1189240A128A11BD2B07148611033005
:1007280083160313D6008A30D5005530D400D40B75
:100738009B2BD50B9B2BD60B9B2B033083160313BC
:10074800D6008A30D5005530D400D40BA92BD50B50
:10075800A92BD60BA92B033083160313D6008A3096
:10076800D5005530D400D40BB72BD50BB72BD60BEF
:10077800B72B033083160313D6008A30D5005530C3
:10078800D400D40BC52BD50BC52BD60BC52B831288
:1007980003130719912B0710BD2B00308316031381
:1007A800CA000030C9000030C8000030C700410846
:1007B80040043F043E040319282CCB01CB0AC11B7B
:1007C800F32B0130C6000310BE0DBF0DC00DC10DC7
:1007D800C60BE72B0130C6004608CB07E32B0130D8
:1007E800C6000310C70DC80DC90DCA0DC60BF52BE1
:1007F80041084502031D0A2C40084402031D0A2C27
:100808003F084302031D0A2C3E084202031C1B2C0E
:100818003E08C2023F08031C3F0FC3024008031CE6
:10082800400FC4024108031C410FC50247140130A0
:100838000310C10CC00CBF0CBE0CFF3E031D1C2CCA
:100848000130CB02031DF32B4A08C1004908C00040
:100858004808BF004708BE000800F700F501F60188
:10086800003076020830031975020318080077086B
:100878000139F3007308F800831203136108620456
:10088800031D502C63086404031D502C78080A12B9
:100898008A1134250A128A11780803196D2C01303F
:1008A80083120313DF070318E00A0030E007630828
:1008B8006404031D722C05305F066004031D722C4E
:1008C8000330F4009330F300F30B682CF40B682C1E
:1008D80000000A128A1162250A128A110330F400F4
:1008E8009330F300F30B762CF40B762C000077088A
:1008F800F3000310730CF4007408F7000130F507D7
:100908000318F60A0030F607342C28308312031334
:1009180094008316031391014C08D0004D08D100B0
:100928004E08D2004F08D30002300310D00DD10D6D
:10093800D20DD30DFF3E031D992C5308C100520858
:10094800C0005108BF005008BE000030C5009830F4
:10095800C4009630C3008030C2000A128A11D12325
:10096800831603133E08FF3E930094010800F1002C
:100978000A128A1194250A128A11831603139115F3
:100988000A128A1194250A128A1183120313130872
:10099800F0007008F2000A128A1194250A128A11CE
:1009A8007108031DDB2C831603139116DE2C8316A6
:1009B800031391121116720808000234003404342B
:1009C8000034083400340834003407340034003468
:1009D800003401340034073400340434003407345C
:1009E800003408340034073400340334003400344D
:1009F8000034003400340A308316031399008B172F
:100A08000B17181118128312031398171816981237
:100A18008C12831603130C128C16181383120313EB
:100A280018138316031398129816080083120313D9
:100A380085018601870189018316031788018901C9
:100A48008030831603138500103086005C308700E1
:100A58008901831203138501860187018901080032
:100A6800F2000310E50CE60C0130831203130305B2
:100A7800F00072087006F1007103031D0800650894
:100A8800843AF0007008E5006608083AF00070083B
:100A9800E600080005308A000408840A820700344A
:100AA8004A34513431345A344834583400344A348E
:100AB80051343134593443345A34003483120313D3
:100AC800DF01E0015D085E04031D702D871601300B
:100AD800DD000030DE0008008712DD01DE010800BD
:100AE8007E088A007F08820074250A128A11800015
:100AF800840A04087D0603190034FF0A0319FE0A54
:100B0800782D8312031318198B2D981C902D181209
:100B180000008312031318168C1E902D1A08080063
:100B2800831603131419942D11081F39031908008B
:100B3800942D64008001840A040603190034040615
:100B48009E2D0A128A1194257008831203139300AC
:100B580008000A128A119425831603131115080038
:100B68000A128A11942583160313111408000A1215
:100B78008A119425831603139114080000340A344B
:080B8800A034003400340A34EB
:04400E00E2E0FFFFEE
:00000001FF
