:100000000A128A11C12F00308A000408840A82076C
:1000100000344A34513431345A344834583400347A
:0E0020004A3451343134593443345A340034A4
:1006BA00A034003400340A3400340A340A128A118D
:1006CA00882383160313911408000A128A118823B7
:1006DA0083160313111408000A128A118823831639
:1006EA000313111508000A128A118823700883124D
:1006FA0003139300080064008001840A04060319A6
:10070A0000340406812B831603131419882B11084D
:10071A001F3903190800882B7E088A007F08820087
:10072A0091230A128A118000840A04087D0603199B
:10073A000034FF0A0319FE0A952B83120313D90109
:10074A00DA0153085404031DB02B87160130D30075
:10075A000030D40008008712D301D4010800813088
:10076A00831603139900181118128312031398178A
:10077A00181698128C12831603130C128C1618135F
:10078A00831203131813831603139812981608007A
:10079A0083120313850186018701890183160317D2
:1007AA008801890180308316031385000130860091
:1007BA005C30870089018312031385018601870152
:1007CA0089010800F2000310E10CE20C01308312E7
:1007DA0003130305F00072087006F1007103031D8C
:1007EA0008006108843AF0007008E1006208083ADB
:1007FA00F0007008E20008000034003401340034CC
:10080A00073400340434003407340034023400342A
:10081A000434003408340034083400340734003413
:10082A00083400340734003403340034003400340C
:10083A0000340034F1000A128A1188230A128A113C
:10084A008316031391150A128A1188230A128A1130
:10085A00831203131308F0007008F2000A128A11B7
:10086A0088230A128A117108031D3F2C8316031369
:10087A009116422C8316031391121116720808005E
:10088A0028308312031394008316031391018312F1
:10089A0003132008A4002108A5002208A6002308A3
:1008AA00A70002300310A40DA50DA60DA70DFF3E4B
:1008BA00031D572C2708F3002608F2002508F1002B
:1008CA002408F0000030F7009830F6009630F50062
:1008DA008030F4000A128A11D1247008FF3E831670
:1008EA000313930094010800F700F501F6010030A4
:1008FA0076020830031975020318080077080139CF
:10090A00F3007308F8008312031355085604031DF5
:10091A00982C57085804031D982C78080A128A1133
:10092A00E7230A128A1178080319B52C01308312B9
:10093A000313D9070318DA0A0030DA0757085804EC
:10094A00031DBA2C053059065A04031DBA2C03306C
:10095A00F4009330F300F30BB02CF40BB02C00002E
:10096A000A128A11A2230A128A110330F400933060
:10097A00F300F30BBE2CF40BBE2C00007708F30037
:10098A000310730CF4007408F7000130F50703181C
:10099A00F60A0030F6077C2C0030FC000030FB0021
:1009AA000030FA000030F900730872047104700410
:1009BA000319262DFD01FD0AF31BF12C0130F80065
:1009CA000310F00DF10DF20DF30DF80BE52C0130CB
:1009DA00F8007808FD07E12C0130F8000310F90D42
:1009EA00FA0DFB0DFC0DF80BF32C73087702031DAF
:1009FA00082D72087602031D082D71087502031D61
:100A0A00082D70087402031C192D7008F40271086D
:100A1A00031C710FF5027208031C720FF6027308A9
:100A2A00031C730FF702791401300310F30CF20C54
:100A3A00F10CF00CFF3E031D1A2D0130FD02031DBF
:100A4A00F12C7C08F3007B08F2007A08F10079089F
:100A5A00F000080083120313A200A001A1012208DA
:100A6A000A128A11C2250A128A1171088312031303
:100A7A00A1007008A0000130D3000030D400FF307C
:100A8A00E100FD007D08E200D901DA010130D7005A
:100A9A000030D800D501D601A301A40100302402F8
:100AAA001B300319230203186F2D7E300A128A1194
:100ABA0079240A128A11013083120313A307031837
:100ACA00A40A0030A407003024021B3003192302B1
:100ADA00031C5A2DD701D801A501A6012108260217
:100AEA00031D792D2008250203188E2D2508903E16
:100AFA008400831700080A128A1179240A128A11BB
:100B0A00013083120313A5070318A60A0030A607AB
:100B1A00732D0130D5000030D600E209E1096208E0
:100B2A000A128A1179240A128A118312031361089C
:100B3A000A128A1179240A128A1183120313D5011F
:100B4A00D6010130D7000030D800A701A801003033
:100B5A002802063003192702031808007E300A12F9
:100B6A008A1179240A128A11013083120313A70702
:100B7A000318A80A0030A807AC2DF400F901FA01FD
:100B8A0000307A020630031979020318EA2D79082F
:100B9A00083E84000A128A1103200A128A11F200FE
:100BAA007207F3007908903E840073088317800067
:100BBA000130F9070318FA0A0030FA0700307A02FE
:100BCA00063003197902031CCC2D6030F20072083A
:100BDA00831603179600FB01FC0100307C020630E5
:100BEA0003197B020318182E7B08013E84000A129F
:100BFA008A1103200A128A11F2007207F3007B0895
:100C0A00073E903E84007308831780000130FB077B
:100C1A000318FC0A0030FC0700307C020630031976
:100C2A007B02031CF92DE130F200720883160317C8
:100C3A009D000330F20072089E00F030F200720844
:100C4A009F00F701F801F701F80177087407F2002D
:100C5A00720884008313000803193A2E0130F7073B
:100C6A000318F80A0030F8072A2EF501F601780869
:100C7A007602031D422E7708750203185A2E75084C
:100C8A007407F2007208840083130008F3007508E1
:100C9A00103E903E84007308831780000130F507E8
:100CAA000318F60A0030F6073C2E7708103EF000CB
:100CBA0078080318013E003EF10008000A128A1162
:100CCA00B4230A128A110A128A11CD230A128A112E
:100CDA00003083120313A3000630A2001A30A100C9
:100CEA008030A0000A128A1145240A128A1183123E
:100CFA000313CD01CE012D30A9000030AA004D0802
:100D0A002907AB004E0803184E0A2A07AC002B0825
:100D1A00840083172C1C8313000803199B2E0130AF
:100D2A00CD070318CE0A0030CE07802E0330AB0061
:100D3A008A30AA005630A900A90BA12EAA0BA12E0F
:100D4A00AB0BA12EA82E033083120313AB008A30FB
:100D5A00AA005630A900A90BB02EAA0BB02EAB0BD5
:100D6A00B02EB72E83120313071D012F0330AB00D9
:100D7A008A30AA005630A900A90BC12EAA0BC12E8F
:100D8A00AB0BC12EC82EF301E03083120313A90066
:100D9A002908F4002D30AA002A08F5004F30AB00CC
:100DAA002B08F60050300A128A1111270A128A11EA
:100DBA00033083120313AB008A30AA005630A9000D
:100DCA00A90BE52EAA0BE52EAB0BE52EEC2E2D304A
:100DDA000A128A112F250A128A1103308312031369
:100DEA00AB008A30AA005630A900A90BFA2EAA0B2A
:100DFA00FA2EAB0BFA2E012F033083120313AB002A
:100E0A008A30AA005630A900A90B092FAA0B092F6C
:100E1A00AB0B092F102F7C2E83120313A00020087E
:100E2A00F7007707F8007808A40024080138F700CB
:100E3A007708A1000A128A116A230A128A118312F8
:100E4A0003132408F700F8017708F0007808F10086
:100E5A000A128A1178230A128A117308F700F80114
:100E6A007708F0007808F1000A128A1178230A122A
:100E7A008A117408F700F8017708F0007808F10081
:100E8A000A128A1178230A128A110A128A11632312
:100E9A000A128A11831203132108F700F80177084E
:100EAA00F0007808F1000A128A1178230A128A11CE
:100EBA007608840083138001840A800176088400FE
:100ECA0000087507F7007708840000080319722FD5
:100EDA000230F7007708F607632F83120313A20183
:100EEA00A301760884000008F700840A0008F800C5
:100EFA0078082302031D832F7708220203189D2FE7
:100F0A0001300A128A111F240A128A11F700831269
:100F1A00031322087507F8007808840077088313FA
:100F2A0080000130A2070318A30A0030A307762F16
:100F3A0000300A128A111F240A128A11F700760851
:100F4A008400831300087507F8007808840077087E
:100F5A0080000A128A1171230A128A110330F900D9
:100F6A008A30F8005630F700F70BB92FF80BB92F73
:100F7A00F90BB92FC02F08008313F030FD0004309D
:100F8A00FE000130FF00D23084000A128A11952334
:100F9A000A128A116930FD000330FE005D30FF003D
:100FAA00633084000A128A1195230A128A11831760
:100FBA0090308400D2300A128A1180230A128A11D0
:100FCA001030840030300A128A1180230A128A11E2
:100FDA008313A0308400D2300A128A1180230A12A5
:100FEA008A115130840063300A128A1180238301E6
:060FFA000A128A11632EA9
:04400E00E2E0FFFFEE
:00000001FF
