:060000000A128A11122809
:10000800FE00030E83120313B0000408B1000A08AF
:10001800B2007F08B3000A128A113E280A128A1118
:1000280015288313C430FD000630FE00F130FF00B0
:10003800A03084000A128A11AD270A128A11831788
:1000480090308400BF300A128A11D2278316031316
:10005800DD01DE01DF01E001E101E20183120313AA
:10006800EA01EB01EC01ED01EE01EF0183010A1257
:100078008A116C2D8C1E1A2B0A128A11BA270A12A1
:100088008A1183120313AD002D0803138312B400E1
:1000980074303406031DE1288312031386140A12F0
:1000A8008A11BA270A128A1183120313AD002D0888
:1000B80003138312B5000A128A11BA270A128A1189
:1000C80083120313AD002D0803138312B6008312A5
:1000D80003138C12033083120313AF008A30AE006F
:1000E8005530AD00AD0B7628AE0B7628AF0B7628D1
:1000F800283083120313DC000030DD000313831261
:10010800350883120313AD002D08F300031383127F
:10011800360883120313AE002E08F4003430F500BD
:100128000030F6005D08F8005C08F70050300A124D
:100138008A110E240A128A11033083120313AF00A6
:100148008A30AE005530AD00AD0BA828AE0BA828FC
:10015800AF0BA8288312031307148611E201E301E9
:100168006308803AFF0080307F02031DBD280530F8
:1001780062020318112B343083120313A0000030DD
:10018800A1000A128A1144230A128A110430831228
:100198000313AF00CF30AE000130AD00AD0BD22855
:1001A800AE0BD228AF0BD228013083120313E2071B
:1001B8000318E30A0030E307B428CC300313831292
:1001C8003406031D7A2983120313071D7A2986141E
:1001D8000A128A11BA270A128A1183120313AD0070
:1001E8002D0803138312B5000A128A11BA270A12BE
:1001F8008A1183120313AD002D0803138312B6006E
:10020800831203138C12033083120313AF008A3056
:10021800AE005530AD00AD0B0F29AE0B0F29AF0B5B
:100228000F29013083120313DE000030DF000313AF
:100238008312350883120313AD002D08F30003134E
:100248008312360883120313AE002E08F4003430EC
:10025800F5000030F6005F08F8005E08F70050303F
:100268000A128A110E240A128A1103308312031308
:10027800AF008A30AE005530AD00AD0B4129AE0B52
:100288004129AF0B41298312031307148611E40196
:10029800E5016508803AFF0080307F02031D56297A
:1002A800053064020318112B343083120313A000A5
:1002B8000030A1000A128A1144230A128A1104305C
:1002C80083120313AF00CF30AE000130AD00AD0B89
:1002D8006B29AE0B6B29AF0B6B290130831203130B
:1002E800E4070318E50A0030E5074D29DD3003135C
:1002F80083123406031D622A83120313071D622A20
:1003080086140A128A11BA270A128A118312031351
:10031800AD002D0803138312B500831203138C124A
:10032800033083120313AF008A30AE005530AD009E
:10033800AD0B9C29AE0B9C29AF0B9C29DD30031318
:1003480083123506031D5F2A83120313071D5F2AD4
:10035800033083120313AF008A30AE005530AD006E
:10036800AD0BB429AE0BB429AF0BB4298312031318
:100378000710E601E7016708803AFF0080307F0236
:10038800031DC8290530660203185F2A8312031368
:100398008615A33083120313AE005430AD00AD0BA5
:1003A800D329AE0BD3290000831203138611A3307F
:1003B80083120313AE005430AD00AD0BE129AE0B30
:1003C800E1290000831203138615A3308312031357
:1003D800AE005430AD00AD0BEF29AE0BEF29000095
:1003E800831203138611A33083120313AE00543013
:1003F800AD00AD0BFD29AE0BFD29000083120313E0
:100408008615A33083120313AE005430AD00AD0B34
:100418000B2AAE0B0B2A0000831203138611A3309C
:1004280083120313AE005430AD00AD0B192AAE0B86
:10043800192A00008312031386150230831203134E
:10044800AF00E730AE00FF30AD00AD0B292AAE0B90
:10045800292AAF0B292A302A831203138611A330C5
:1004680083120313AE005430AD00AD0B392AAE0B26
:10047800392A0000033083120313AF008A30AE001C
:100488005530AD00AD0B462AAE0B462AAF0B462AB7
:10049800013083120313E6070318E70A0030E70761
:1004A8006708803AFF0080307F02031D5D2A05300F
:1004B8006602031CCA2983120313142BEE3003139C
:1004C80083123406031D162B83120313071D162BE4
:1004D80086140A128A11BA270A128A118312031380
:1004E800AD002D0803138312B5000A128A11BA272A
:1004F8000A128A1183120313AD002D080313831205
:10050800B6000A128A11BA270A128A118312031333
:10051800AD002D0803138312B700831203138C1246
:10052800033083120313AF008A30AE005530AD009C
:10053800AD0B9C2AAE0B9C2AAF0B9C2A0130831270
:100548000313E0000030E10003138312350883121F
:100558000313AD002D08F30003138312360883122A
:100568000313AE002E08F4003430F5000030F60016
:100578006108F8006008F70050300A128A110E244A
:100588000A128A11033083120313AF008A30AE00B7
:100598005530AD00AD0BCE2AAE0BCE2AAF0BCE2A0E
:1005A8008312031307148611E801E9016908803AE8
:1005B800FF0080307F02031DE32A0530680203181C
:1005C800112B343083120313A0000030A1000A124B
:1005D8008A1144230A128A11043083120313AF00CC
:1005E800CF30AE000130AD00AD0BF82AAE0BF82AC3
:1005F800AF0BF82A013083120313E8070318E90A3E
:100608000030E9076908803AFF0080307F02031D47
:100618000F2B05306802031CE52A83120313071009
:100628008610392B831203138C12392B0C1C392B8F
:100638000B308F00DB308E000130EC070318ED0A19
:100648000030ED076D08803AFF0080307F02031DFF
:100658002F2B02306C02031C362B64008312031309
:10066800EC01ED01831203130C103308FF0032086C
:100678008A0031088400300E8300FE0E7E0E0900C9
:10068800033083120313A4008A30A3005530A2005C
:10069800A20B4C2BA30B4C2BA40B4C2B8312031338
:1006A800A501A6012008F0002108F1000A128A110C
:1006B800BE240A128A11710883120313A600700857
:1006C800A500013083160313DD000030DE00FF3083
:1006D80083120313EE00A2002208EF00831603130F
:1006E800DF01E001013083120313EA000030EB0060
:1006F80083160313E101E20183120313A701A80182
:10070800003028021B30031927020318A02B7E3063
:100718000A128A113B260A128A1101308312031326
:10072800A7070318A80A0030A807003028021B30C2
:1007380003192702031C8B2BEA01EB01A901AA016B
:1007480026082A02031DAA2B250829020318BF2BF5
:100758002908903E8400831700080A128A113B2654
:100768000A128A11013083120313A9070318AA0A6F
:100778000030AA07A42B013083160313E1000030D0
:10078800E20083120313EF09EE096F080A128A11B7
:100798003B260A128A11831203136E080A128A1161
:1007A8003B260A128A1183160313E101E201013084
:1007B80083120313EA000030EB00AB01AC010030F8
:1007C8002C02063003192B020318FF2B7E300A1265
:1007D8008A113B260A128A11013083120313AB07D0
:1007E8000318AC0A0030AC0700302C02063003199D
:1007F8002B02031CEA2B033083120313A4008A3054
:10080800A3005530A200A20B072CA30B072CA40BA6
:10081800072C080083120313A0002008F9007907A9
:10082800FA007A08A40024080138F9007908A10020
:100838000A128A11E9270A128A118312031324085B
:10084800F900FA017908F0007A08F1000A128A1111
:10085800DA270A128A117308F900FA017908F000F8
:100868007A08F1000A128A11DA270A128A11740822
:10087800F900FA017908F0007A08F1000A128A11E1
:10088800DA270A128A110A128A11F0270A128A1123
:10089800831203132108F900FA017908F0007A0895
:1008A800F1000A128A11DA270A128A118312031335
:1008B800A201A3017708FF3EF90078080318013E5A
:1008C800FF3EFA007A082302031D6C2C79082202E5
:1008D80003188D2C01300A128A11CB260A128A11AC
:1008E800F9008312031322087507FA002308031876
:1008F800230A7607FB007A08840083177B1C83137E
:10090800790880000130A2070318A30A0030A30762
:100918005E2C00300A128A11CB260A128A11F900BD
:100928007708FF3EFA0078080318013EFF3EFB00F7
:100938007A087507FC007B0803187B0A7607FD0018
:100948007C08840083177D1C8313790880000A12B1
:100958008A11E2270A128A110330FB008A30FA0052
:100968005530F900F90BB62CFA0BB62CFB0BB62C4C
:10097800BD2C0800F901FA0100307A02063003198B
:1009880079020318E52C7908013E84000A128A11BD
:1009980095270A128A11F2007207F3007908903E2F
:1009A80084007308831780000130F9070318FA0AD6
:1009B8000030FA0700307A02063003197902031C66
:1009C800C72C6030F2007208831603179600FB01EB
:1009D800FC0100307C02063003197B020318132D3A
:1009E8007B08083E84000A128A1195270A128A1188
:1009F800F2007207F3007B08073E903E84007308FC
:100A0800831780000130FB070318FC0A0030FC073D
:100A180000307C02063003197B02031CF42CE13001
:100A2800F2007208831603179D000330F200720863
:100A38009E00F030F20072089F00F701F801F701FC
:100A4800F80177087007F20078080318780A710728
:100A5800F300720884008317731C831300080319BA
:100A68003C2D0130F7070318F80A0030F807252D48
:100A7800F501F60178087602031D442D7708750202
:100A88000318632D75087007F20076080318760AB4
:100A98007107F300720884008317731C831300081E
:100AA800F4007508103E903E840074088317800097
:100AB8000130F5070318F60A0030F6073E2D7708CF
:100AC800103EF00078080318013E003EF1000800CF
:100AD8000D3083160313DC00AF30DB00B530DA00CD
:100AE800DA0B742DDB0B742DDC0B742D7B2D0A12A5
:100AF8008A1115270A128A110A128A1130270A1236
:100B08008A11003083160313D5000630D4001A303A
:100B1800D3008030D2000A128A1199260A128A114B
:100B28000A128A117E270A128A11033083160313C8
:100B3800DC008A30DB005530DA00DA0BA12DDB0B44
:100B4800A12DDC0BA12D831203138611033083160C
:100B58000313DC008A30DB005530DA00DA0BB22DE3
:100B6800DB0BB22DDC0BB22D033083160313DC0034
:100B78008A30DB005530DA00DA0BC02DDB0BC02DD4
:100B8800DC0BC02D83120313861003308316031366
:100B9800DC008A30DB005530DA00DA0BD12DDB0BB4
:100BA800D12DDC0BD12D831203130710992D0030A2
:100BB80083160313D0000030CF000030CE00003081
:100BC800CD0047084604450444040319322ED101D8
:100BD800D10AC71BFD2D0130CC000310C40DC50D73
:100BE800C60DC70DCC0BF12D0130CC004C08D10738
:100BF800ED2D0130CC000310CD0DCE0DCF0DD00D55
:100C0800CC0BFF2D47084B02031D142E46084A0241
:100C1800031D142E45084902031D142E44084802DA
:100C2800031C252E4408C8024508031C450FC902A9
:100C38004608031C460FCA024708031C470FCB028D
:100C48004D1401300310C70CC60CC50CC40CFF3E74
:100C5800031D262E0130D102031DFD2D5008C700AB
:100C68004F08C6004E08C5004D08C4000800F7002C
:100C7800F501F601003076020830031975020318F1
:100C8800080077080139F3007308F8008316031386
:100C980061086204031D5C2E831203136A086B0447
:100CA800031D5C2E78080A128A1164270A128A1119
:100CB800780803197D2E013083160313DF07031804
:100CC800E00A0030E007831203136A086B04031D6F
:100CD800822E0530831603135F066004031D822EDF
:100CE8000330F4009330F300F30B782EF40B782ED6
:100CF80000000A128A114A270A128A110330F400E6
:100D08009330F300F30B862EF40B862E0000770841
:100D1800F3000310730CF4007408F7000130F507B2
:100D28000318F60A0030F6073E2E28308312031304
:100D380094008316031391015208D6005308D70074
:100D48005408D8005508D90002300310D60DD70D25
:100D5800D80DD90DFF3E031DA92E5908C700580804
:100D6800C6005708C5005608C4000030CB009830AC
:100D7800CA009630C9008030C8000A128A11DB25E3
:100D8800831603134408FF3E930094010800F10002
:100D98000A128A11C9270A128A1183160313911598
:100DA8000A128A11C9270A128A1183120313130817
:100DB800F0007008F2000A128A11C9270A128A1173
:100DC8007108031DEB2E831603139116EE2E83165E
:100DD8000313911211167208080002340034043407
:100DE8000034083400340834003407340034003444
:100DF8000034013400340734003404340034073438
:100E08000034083400340734003403340034003428
:100E180000340034003400340A34A0340034003480
:100E28000A340A308316031399008B170B1718110D
:100E38001812831203139817181698128C12831617
:100E480003130C128C16181383120313181383162A
:100E5800031398129816080083120313850186015C
:100E68008701890183160317880189018030831659
:100E780003138500103086005C30870089018312D7
:100E8800031385018601870189010800831603136E
:100E9800DF01E0015D085E04031D5C2F831203136C
:100EA8008716013083160313DD000030DE000800CA
:100EB80083120313871283160313DD01DE01080072
:100EC800F2000310EE0CEF0C01308312031303053C
:100ED800F00072087006F1007103031D08006E0827
:100EE800843AF0007008EE006F08083AF0007008C5
:100EF800EF0008008B170B178316031381150730B3
:100F08008104831203130C10831603130C1430305E
:100F18008312031390040B308F00DB308E00101403
:100F2800080007308A000408840A820700344A341B
:100F3800513431345A344834583400344A345134F2
:100F48003134593443345A3400347E088A007F08D7
:100F58008200A9270A128A118000840A04087D06E3
:100F680003190034FF0A0319FE0AAD2F8312031375
:100F78001819C02F981CC52F1812000083120313CC
:100F880018168C1EC52F1A08080083160313141987
:100F9800C92F11081F3903190800C92F64008001DF
:100FA800840A0406031900340406D32F0A128A118E
:100FB800C927700883120313930008000A128A11C4
:100FC800C92783160313111508000A128A11C927A5
:100FD80083160313111408000A128A11C9278316ED
:060FE80003139114080040
:04400E00E2E0FFFFEE
:00000001FF
