:060000000A128A11122809
:10000800FE00030E83120313B0000408B1000A08AF
:10001800B2007F08B3000A128A114C280A128A110A
:1000280015288313C030FD000530FE00FF30FF00A7
:10003800A03084000A128A1198260A128A116F3099
:10004800FD000630FE00E230FF006B3084000A122B
:100058008A1198260A128A11831790308400C230B8
:100068000A128A11BD260A128A118313D930840014
:10007800E9300A128A11BD260A128A1161308400F9
:100088006B300A128A11BD2683010A128A11862C46
:100098008C1E382A0A128A11A5260A128A1183127E
:1000A8000313AD002D08B40074303406031D0A296B
:1000B80086140A128A11A5260A128A1183120313BA
:1000C800AD002D08B5000A128A11A5260A128A1158
:1000D80083120313AD002D08B6008C12033083126F
:1000E8000313AF008A30AE005530AD00AD0B7A284F
:1000F800AE0B7A28AF0B7A28203083120313D40072
:100108000030D5003508AD002D08F3003608AE00E4
:100118002E08F4003430F5000030F6005408F700DB
:100128005508F80050300A128A1143220A128A111F
:10013800033083120313AF008A30AE005530AD0090
:10014800AD0BA428AE0BA428AF0BA428831203136D
:10015800071486117530AD002D08D8006E30AD003B
:100168002D08D9006B30AD002D08DA006F30AD00D6
:100178002D08DB000D30AD002D08DC00DD01DE01AF
:100188005E08803AFF0080307F02031DCD280530CD
:100198005D0203189929343083120313A00000303C
:1001A800A1000A128A1120230A128A11043083122C
:1001B8000313AF00CF30AE000130AD00AD0BE22825
:1001C800AE0BE228AF0BE228583083120313A000CD
:1001D8000030A1000A128A1120230A128A11043061
:1001E80083120313AF00CF30AE000130AD00AD0B6A
:1001F800FB28AE0BFB28AF0BFB280130831203133F
:10020800DD070318DE0A0030DE07C428CC303406C8
:10021800031D9D2986140A128A11A5260A128A111D
:1002280083120313AD002D08B5000A128A11A52602
:100238000A128A1183120313AD002D08B6008C121E
:10024800033083120313AF008A30AE005530AD007F
:10025800AD0B2C29AE0B2C29AF0B2C2901308312A6
:100268000313D6000030D7003508AD002D08F30081
:100278003608AE002E08F4003430F5000030F600E1
:100288005608F7005708F80050300A128A1143221E
:100298000A128A11033083120313AF008A30AE00AA
:1002A8005530AD00AD0B5629AE0B5629AF0B56296C
:1002B8008312031307148611DF01E0016008803AF6
:1002C800FF0080307F02031D6B2905305F02031891
:1002D8009929343083120313A0000030A1000A12B8
:1002E8008A1120230A128A11043083120313AF00E3
:1002F800CF30AE000130AD00AD0B8029AE0B8029A8
:10030800AF0B8029013083120313DF070318E00ABB
:100318000030E0076008803AFF0080307F02031D4C
:10032800972905305F02031C6D29831203130710F8
:10033800352ADD303406031D372A86140A128A113D
:10034800A5260A128A1183120313AD002D08B500E1
:100358008C12033083120313AF008A30AE0055307D
:10036800AD00AD0BB529AE0BB529AF0BB529DD3006
:10037800831203133506031D332A8615A33083120F
:100388000313AE005430AD00AD0BC829AE0BC8291D
:100398000000831203138611A33083120313AE00E7
:1003A8005430AD00AD0BD629AE0BD6290000831210
:1003B80003138615A33083120313AE005430AD0027
:1003C800AD0BE429AE0BE429000083120313861158
:1003D800A33083120313AE005430AD00AD0BF229E5
:1003E800AE0BF2290000831203138615A330831283
:1003F8000313AE005430AD00AD0B002AAE0B002A3B
:100408000000831203138611A33083120313AE0076
:100418005430AD00AD0B0E2AAE0B0E2A000083122D
:1004280003138615023083120313AF00E730AE00C2
:10043800FF30AD00AD0B1E2AAE0B1E2AAF0B1E2AD5
:10044800252A831203138611A33083120313AE00E7
:100458005430AD00AD0B2E2AAE0B2E2A00008312AD
:1004680003138610382A8C123308FF0032088A00DA
:1004780031088400300E8300FE0E7E0E09008312C0
:100488000313A0002008F9007907FA007A08A400ED
:1004980024080138F9007908A1000A128A11D42623
:1004A8000A128A11831203132408F900FA01790841
:1004B800F0007A08F1000A128A11C5260A128A1178
:1004C8007308F900FA017908F0007A08F1000A12B5
:1004D8008A11C5260A128A117408F900FA017908E6
:1004E800F0007A08F1000A128A11C5260A128A1148
:1004F8000A128A11DB260A128A11831203132108B1
:10050800F900FA017908F0007A08F1000A128A1154
:10051800C5260A128A11770884008317781C83136A
:100528008001840A8001770884008317781C83136C
:100538000008F900840A0008FA0079087507FB002A
:100548007A0803187A0A7607FC007B088400831768
:100558007C1C8313000A0319B82A0230F707031812
:10056800F80A0030F807972A83120313A201A3019F
:10057800770884008317781C83130008F900840A1D
:100588000008FA007A082302031DCC2A79082202FF
:100598000318ED2A01300A128A11D9250A128A1184
:1005A800F9008312031322087507FA0023080318B9
:1005B800230A7607FB007A08840083177B1C8313C1
:1005C800790880000130A2070318A30A0030A307A6
:1005D800BC2A00300A128A11D9250A128A11F90098
:1005E800770884008317781C83130008FA00840AAC
:1005F8000008FB007A087507FC007B0803187B0AD3
:100608007607FD007C08840083177D1C8313790816
:1006180080000A128A11CD260A128A110330FB00C3
:100628008A30FA005530F900F90B182BFA0B182B01
:10063800FB0B182B1F2B0800033083120313A40095
:100648008A30A3005530A200A20B282BA30B282B1D
:10065800A40B282B83120313A501A6012008F00080
:100668002108F1000A128A11D8230A128A11710886
:1006780083120313A6007008A5000130E1000030C2
:10068800E200FF30E900A2002208EA00E301E401E9
:100698000130E7000030E800E501E601A701A80104
:1006A800003028021B30031927020318702B7E30F4
:1006B8000A128A114F250A128A1101308312031374
:1006C800A7070318A80A0030A807003028021B3023
:1006D80003192702031C5B2BE701E801A901AA0102
:1006E80026082A02031D7A2B2508290203188F2BB6
:1006F8002908903E8400831700080A128A114F25A2
:100708000A128A11013083120313A9070318AA0ACF
:100718000030AA07742B0130E5000030E600EA0932
:10072800E9096A080A128A114F250A128A118312E6
:10073800031369080A128A114F250A128A118312B3
:100748000313E501E6010130E7000030E800AB01E2
:10075800AC0100302C02063003192B020318C92BF8
:100768007E300A128A114F250A128A11013083122B
:100778000313AB070318AC0A0030AC0700302C0297
:10078800063003192B02031CB42B03308312031306
:10079800A4008A30A3005530A200A20BD12BA30BD2
:1007A800D12BA40BD12B0800F901FA0100307A02F1
:1007B8000630031979020318FF2B7908013E8400DB
:1007C8000A128A116E260A128A11F2007207F300C1
:1007D8007908903E84007308831780000130F90778
:1007E8000318FA0A0030FA0700307A0206300319B3
:1007F8007902031CE12B6030F2007208831603179C
:100808009600FB01FC0100307C02063003197B02D4
:1008180003182D2C7B08083E84000A128A116E26C4
:100828000A128A11F2007207F3007B08073E903E15
:1008380084007308831780000130FB070318FC0A43
:100848000030FC0700307C02063003197B02031CD1
:100858000E2CE130F2007208831603179D00033056
:10086800F20072089E00F030F20072089F00F70153
:10087800F801F701F80177087007F2007808031803
:10088800780A7107F300720884008317731C8313B6
:1008980000080319562C0130F7070318F80A00302E
:1008A800F8073F2CF501F60178087602031D5E2C47
:1008B8007708750203187D2C75087007F200760812
:1008C8000318760A7107F300720884008317731CF3
:1008D80083130008F4007508103E903E84007408E5
:1008E800831780000130F5070318F60A0030F60771
:1008F800582C7708103EF00078080318013E003E97
:10090800F10008000D3083160313D800AF30D7006C
:10091800B530D600D60B8E2CD70B8E2CD80B8E2C40
:10092800952C0A128A111F260A128A110A128A1194
:100938003A260A128A11003083160313D1000630B2
:10094800D0001A30CF008030CE000A128A11A725B5
:100958000A128A11DB2C071486110330831603133D
:10096800D8008A30D7005530D600D60BB92CD70B13
:10097800B92CD80BB92C033083160313D8008A304E
:10098800D7005530D600D60BC72CD70BC72CD80BA1
:10099800C72C033083160313D8008A30D70055308C
:1009A800D600D60BD52CD70BD52CD80BD52C03308D
:1009B80083160313D8008A30D7005530D600D60BDB
:1009C800E32CD70BE32CD80BE32C83120313071962
:1009D800AF2C0710DB2C003083160313CC0000303B
:1009E800CB000030CA000030C9004308420441046B
:1009F80040040319462DCD01CD0AC31B112D01302A
:100A0800C8000310C00DC10DC20DC30DC80B052DC4
:100A18000130C8004808CD07012D0130C800031077
:100A2800C90DCA0DCB0DCC0DC80B132D43084702B9
:100A3800031D282D42084602031D282D41084502A2
:100A4800031D282D40084402031C392D4008C40208
:100A58004108031C410FC5024208031C420FC6028D
:100A68004308031C430FC702491401300310C30C89
:100A7800C20CC10CC00CFF3E031D3A2D0130CD0243
:100A8800031D112D4C08C3004B08C2004A08C100C1
:100A98004908C0000800F700F501F60100307602A9
:100AA8000830031975020318080077080139F300A4
:100AB8007308F8008312031365086604031D6E2D7E
:100AC80067086804031D6E2D78080A128A115426D7
:100AD8000A128A11780803198B2D01308312031327
:100AE800E3070318E40A0030E40767086804031DF5
:100AF800902D053063066404031D902D0330F40027
:100B08009330F300F30B862DF40B862D00000A12A8
:100B18008A1182260A128A110330F4009330F300F6
:100B2800F30B942DF40B942D00007708F3000310B9
:100B3800730CF4007408F7000130F5070318F60A7F
:100B48000030F607522D28308312031394008316C1
:100B5800031391014E08D2004F08D3005008D40067
:100B68005108D50002300310D20DD30DD40DD50D88
:100B7800FF3E031DB72D5508C3005408C200530893
:100B8800C1005208C0000030C7009830C600963037
:100B9800C5008030C4000A128A11EF24831603139B
:100BA8004008FF3E930094010800F1000A128A11E0
:100BB800B4260A128A118316031391150A128A1190
:100BC800B4260A128A11831203131308F00070085E
:100BD800F2000A128A11B4260A128A117108031D3A
:100BE800F92D831603139116FC2D83160313911206
:100BF8001116720808000234003404340034083432
:100C0800003408340034073400340034003401342C
:100C18000034073400340434003407340034083412
:100C28000034073400340334003400340034003412
:100C3800003400340A340A308316031399008B17E2
:100C48000B171811181283120313981718169812F5
:100C58008C12831603130C128C16181383120313A9
:100C68001813831603139812981608008312031397
:100C78008501860187018901831603178801890187
:100C88008030831603138500103086005C3087009F
:100C980089018312031385018601870189010800F0
:100CA800F2000310E90CEA0C013083120313030568
:100CB800F00072087006F1007103031D080069084E
:100CC800843AF0007008E9006A08083AF0007008F1
:100CD800EA00080006308A000408840A8207003403
:100CE8004A34513431345A344834583400344A344C
:100CF80051343134593443345A3400348312031391
:100D0800E301E40161086204031D902E8716013097
:100D1800E1000030E20008008712E101E20108006A
:100D28007E088A007F08820094260A128A118000B1
:100D3800840A04087D0603190034FF0A0319FE0A11
:100D4800982E831203131819AB2E981CB02E181264
:100D580000008312031318168C1EB02E1A08080000
:100D6800831603131419B42E11081F390319080028
:100D7800B42E64008001840A0406031900340406B2
:100D8800BE2E0A128A11B426700883120313930028
:100D980008000A128A11B4268316031311150800D5
:100DA8000A128A11B42683160313111408000A12B2
:100DB8008A11B4268316031391140800A034003452
:040DC80000340A34B5
:04400E00E2E0FFFFEE
:00000001FF
