:100000000A128A11D62F00308A000408840A820757
:1000100000344A34513431345A344834583400347A
:0E0020004A3451343134593443345A340034A4
:1008E20064008001840A0406031900340406722C91
:1008F2007E088A007F08820079240A128A11800009
:10090200840A04087D0603190034FF0A0319FE0A4B
:100912007D2C83120313E001E1015A085B04031DDD
:10092200982C87160130DA000030DB0008008712AD
:10093200DA01DB01080083120313850186018701B6
:1009420089018316031788018901803083160313F6
:10095200850086015C3087008901831203138501BB
:1009620086018701890108008130831603139900EB
:1009720018111812831203139817181698128C1252
:10098200831603130C128C161813831203131813F5
:1009920083160313981298160800F2000310E80C4D
:1009A200E90C0130831203130305F000720870068C
:1009B200F1007103031D08006808843AF000700812
:1009C200E8006908083AF0007008E90008000034FD
:1009D2000034013400340734003404340034073462
:1009E200003402340034043400340834003408344F
:1009F200003407340034083400340734003403343C
:100A020000340034003400340034A03400340034A4
:100A12000A3400340A3428308312031394008316F4
:100A220003139101831203134408C8004508C90047
:100A32004608CA004708CB0002300310C80DC90D92
:100A4200CA0DCB0DFF3E031D1E2D4B08F3004A08B5
:100A5200F2004908F1004808F0000030F700983031
:100A6200F6009630F5008030F4000A128A119825BB
:100A72007008FF3E83160313930094010800F700E9
:100A8200F501F601003076020830031975020318E9
:100A9200080077080139F3007308F8008312031382
:100AA2005C085D04031D5F2D5E085F04031D5F2D5E
:100AB20078080A128A11CE240A128A1178080319B8
:100AC2007C2D013083120313E0070318E10A003082
:100AD200E1075E085F04031D812D05306006610495
:100AE200031D812D0330F4009330F300F30B772DB7
:100AF200F40B772D00000A128A118A240A128A1135
:100B02000330F4009330F300F30B852DF40B852DA5
:100B120000007708F3000310730CF4007408F70068
:100B22000130F5070318F60A0030F607432D0030AE
:100B3200FC000030FB000030FA000030F9007308BE
:100B42007204710470040319ED2DFD01FD0AF31BFB
:100B5200B82D0130F8000310F00DF10DF20DF30D78
:100B6200F80BAC2D0130F8007808FD07A82D0130F4
:100B7200F8000310F90DFA0DFB0DFC0DF80BBA2D60
:100B820073087702031DCF2D72087602031DCF2D45
:100B920071087502031DCF2D70087402031CE02D2D
:100BA2007008F4027108031C710FF5027208031C2D
:100BB200720FF6027308031C730FF70279140130E7
:100BC2000310F30CF20CF10CF00CFF3E031DE12DAF
:100BD2000130FD02031DB82D7C08F3007B08F200F2
:100BE2007A08F1007908F00008000A128A11B52487
:100BF2000A128A110A128A119C240A128A110030DE
:100C020083120313C7000630C6001A30C5008030B5
:100C1200C4000A128A110C250A128A114D3083125D
:100C22000313D2001930D1009A30D000D00B172E06
:100C3200D10B172ED20B172E1E2E682E07148611DB
:100C42000330D2008A30D1005630D000D00B272E8C
:100C5200D10B272ED20B272E2E2E033083120313F5
:100C6200D2008A30D1005630D000D00B362ED10BB4
:100C7200362ED20B362E3D2E753083120313D00042
:100C82005008D3006E30D0005008D4006B30D00032
:100C92005008D5006F30D0005008D6000D30D0007B
:100CA2005008D70053300A128A1120270A128A11DB
:100CB200033083120313D2008A30D1005630D000A1
:100CC200D00B612ED10B612ED20B612E682E8312B6
:100CD200031386140330D2008A30D1005630D0007C
:100CE200D00B712ED10B712ED20B712E782E831256
:100CF2000313861007191F2E0710682EF400F9013E
:100D0200FA0100307A020630031979020318A72E7D
:100D12007908013E84000A128A1103200A128A11FC
:100D2200F2007207F3007908903E8400730883177B
:100D320080000130F9070318FA0A0030FA07003080
:100D42007A02063003197902031C892E6030F20000
:100D52007208831603179600FB01FC0100307C0227
:100D6200063003197B020318D52E7B08083E840047
:100D72000A128A1103200A128A11F2007207F30082
:100D82007B08073E903E8400730883178000013081
:100D9200FB070318FC0A0030FC0700307C02063017
:100DA20003197B02031CB62EE130F200720883168F
:100DB20003179D000330F20072089E00F030F2002B
:100DC20072089F00F701F801F701F801770874072C
:100DD200F20072088400831300080319F72E013011
:100DE200F7070318F80A0030F807E72EF501F601B5
:100DF20078087602031DFF2E770875020318172F55
:100E020075087407F2007208840083130008F30067
:100E12007508103E903E84007308831780000130ED
:100E2200F5070318F60A0030F607F92E7708103E88
:100E3200F00078080318013E003EF100080083121A
:100E42000313C9000330C6008A30C5005630C400FF
:100E5200C40B292FC50B292FC60B292F302F831224
:100E62000313C701C80149080A128A117F260A1210
:100E72008A11710883120313C8007008C700013079
:100E8200DA000030DB00FF30E800C4004408E9006B
:100E9200E001E1010130DE000030DF00DC01DD01B4
:100EA200CA01CB0100304B021B3003194A0203185E
:100EB2006F2F7E300A128A1140250A128A110130E0
:100EC20083120313CA070318CB0A0030CB07003082
:100ED2004B021B3003194A02031C5A2FDE01DF01A9
:100EE200CC01CD0148084D02031D792F47084C0261
:100EF20003188E2F4C08903E8400831700080A12B4
:100F02008A1140250A128A11013083120313CC0779
:100F12000318CD0A0030CD07732F0130DC000030FA
:100F2200DD00E909E80969080A128A1140250A1256
:100F32008A118312031368080A128A1140250A12C1
:100F42008A1183120313DC01DD010130DE0000305F
:100F5200DF00CE01CF0100304F02063003194E02EE
:100F62000318C82F7E300A128A1140250A128A11EC
:100F7200013083120313CE070318CF0A0030CF07C4
:100F820000304F02063003194E02031CB32F033008
:100F9200C6008A30C5005630C400C40BCE2FC50B24
:100FA200CE2FC60BCE2FD52F080083134430FD0061
:100FB2000430FE00E830FF00203084000A128A115B
:100FC2007D240A128A11831790308400E2300A12BB
:100FD2008A1171240A128A118313A0308400E2302C
:100FE2000A128A1171240A128A11583084006A3056
:0E0FF2000A128A11712483010A128A11F62D47
:04400E00E2E0FFFFEE
:00000001FF
