:100000000A128A11B32F453441340034A03400342D
:1000100000340A3400340A3400340034013400342B
:100020000734003404340034073400340834003416
:100030000734003403340034003400340034003416
:100040007330F6007608F8007A28780884000008F3
:10005000F9000030FA000130F6007608F807790858
:100060007A04031D37280130F9008030FA007A083D
:1000700083120313FF00790884000A128A150020F6
:100080000A128A11003A03197A287A088312031394
:10009000FF00790884000A128A1500200A128A11CA
:1000A000F6007008840083137118831776088000A7
:1000B0000130F9070318FA0A0130F0070318F10AB2
:1000C0000030F1073728780884000008F600760829
:1000D000FB000230F6007608F807700884008313EE
:1000E000711883177B0880000130F0070318F10AAC
:1000F0000030F1070130F207FF30720784000A1266
:100100008A150A200A128A11F6007608FB007B087D
:100110000319A52825307B06031D6D28F701013042
:10012000F207FF30720784000A128A150A200A12A9
:100130008A11FB00003A0319A528633A03196328C2
:10014000103A031925286D287A287008840083172F
:10015000711C83138001080083120313D401D5019D
:10016000D601D7015708803AFF0080307F02031D77
:10017000BB28113056020318D928831203135608DE
:10018000A0002007303E840083138001840A800190
:100190000130D6070318D70A0030D7075708803A2E
:1001A000FF0080307F02031DD72811305602031C48
:1001B000BD2883120313D201D3015308803AFF00F4
:1001C00080307F02031DE628113052020318B72A3F
:1001D00083120313DA01DB015B08803AFF008030F1
:1001E0007F02031DF52805305A020318A42A831242
:1001F00003135B08A1005A08A0000310A00DA10D75
:1002000020087B07A20021080318210A7C07A3000D
:10021000220884008317231C83130008A400840A87
:100220000008A50024189D2904305A065B04031D0C
:1002300060290230F0000030F1005B08A1005A088C
:10024000A0000310A00DA10D20087B07A20021082B
:100250000318210A7C07A300220884008317231CAB
:1002600083130008F200840A0008F3000A128A15BA
:10027000EB220A128A11831203135B08A5005A08A5
:10028000A4000310A40DA50D24087B07A6002508D3
:100290000318250A7C07A700260884008317271C5B
:1002A000831370088000840A710880005408A0003D
:1002B0002007303E840083138001840A8001052AD0
:1002C0000230F0000030F1005B08A1005A08A000E5
:1002D0000310A00DA10D20087B07A2002108031820
:1002E000210A7C07A300220884008317231C8313A0
:1002F0000008F200840A0008F3000A128A15EB22B3
:100300000A128A11831203135B08A5005A08A4007D
:100310000310A40DA50D24087B07A60025080318CB
:10032000250A7C07A700260884008317271C83134F
:1003300070088000840A7108922A5B08A1005A089C
:10034000A0000310A00DA10D20087B07A20021082A
:100350000318210A7C07A300220884008317231CAA
:1003600083130008A400840A0008A500241C932A13
:1003700004305A065B04031D0C2A0230F0000030E2
:10038000F1005B08A1005A08A0000310A00DA10D08
:1003900020087B07A20021080318210A7C07A3007C
:1003A000220884008317231C83130008F200840AA8
:1003B0000008F3000A128A15EB220A128A1183122E
:1003C00003135B08A5005A08A4000310A40DA50D93
:1003D00024087B07A60025080318250A7C07A70028
:1003E000260884008317271C831370088000840A62
:1003F000710880005408A0002007303E84000130BE
:1004000083138000840A003080000130D407031871
:10041000D50A0030D507932A0230F0000030F100F1
:100420005B08A1005A08A0000310A00DA10D200830
:100430007B07A20021080318210A7C07A3002208D9
:1004400084008317231C83130008F200840A000829
:10045000F3000A128A15EB220A128A11831203137F
:100460005B08A5005A08A4000310A40DA50D2408DC
:100470007B07A60025080318250A7C07A700260885
:1004800084008317271C831370088000840A710876
:1004900080005B08A1005A08A0000310A00DA10D68
:1004A0002008023EA20021080318013E003EA300DE
:1004B00022087B07A40023080318230A7C07A50051
:1004C000240884008317251C83130008A600840ACF
:1004D0000008A70026080A3EA80027080318013EC6
:1004E000003EA9005B08AB005A08AA000310AA0D41
:1004F000AB0D2A08023EAC002B080318013E003E5B
:10050000AD002C087B07AE002D0803182D0A7C07D0
:10051000AF002E08840083172F1C83132808800047
:10052000840A290880000130DA070318DB0A00304A
:10053000DB075B08803AFF0080307F02031DA22AA0
:1005400005305A02031CF728013083120313D20727
:100550000318D30A0030D3075308803AFF008030D5
:100560007F02031DB52A11305202031CE8288312B2
:100570000313D801D9015908803AFF0080307F0267
:10058000031DC42A1130580203180D2B83120313C4
:100590005808A0002007303E840083130008A10003
:1005A000840A0008A20021082204031DE02A7A0818
:1005B000F3007908F2000A128A1509220A128A1138
:1005C000831203135808A0002007303E84008313D1
:1005D0000008A100840A0008A20021032204031DD0
:1005E000FA2A7A08F3007908F2000A128A15C32160
:1005F0000A128A11013083120313D8070318D90A8B
:100600000030D9075908803AFF0080307F02031D6F
:100610000B2B11305802031CC62A7A08F300790804
:10062000F2000A128A15C3210A128A117A08F3000D
:100630007908F2000A128A1509220A128A117A0828
:10064000F3007908F2000A128A1561210800FF30D0
:10065000F600760883120313BC00EA01EB010030B8
:100660006B02023003196A02031808007E303C0650
:100670000319862B0A128A154F220A128A11710851
:1006800083120313BB007008BA003C08F60076071B
:10069000F7007708BC003A083B040319362B3C08E6
:1006A0000138F6007608BC00362BA001A10100300D
:1006B00021020830031920020318862B0A128A151A
:1006C0004F220A128A11710883120313BB007008AB
:1006D000BA003C08F6000310760CF7007708BC005F
:1006E0003A083B040319792B3C088038F600760859
:1006F000BC000130A0070318A10A0030A107003098
:100700002102083003192002031C5E2B7E303C06B8
:100710000319552B0F3084000A128A150A200A1279
:100720008A11F600F7010310F60DF70D3C08F800EA
:10073000F90177087906031D9F2B76087806031DBB
:10074000642D3C08F6006608903E84007608831706
:1007500080000130E6070318E70A0030E707A2012E
:10076000A301003023020830031922020318E02BF2
:100770000A128A154F220A128A1171088312031372
:10078000BB007008BA003C08F6000310760CF700B6
:100790007708BC003A083B040319D32B3C08803887
:1007A000F6007608BC000130A2070318A30A003047
:1007B000A30700302302083003192202031CB82BC0
:1007C000103084000A128A150A200A128A11F600D3
:1007D000F7010310F60DF70D3C08F800F901770852
:1007E0007906031DF52B76087806031D642D3C0859
:1007F000F6006608903E840076088317800001307A
:10080000E6070318E70A0030E707A401A501003056
:1008100025020830031924020318362C0A128A15FF
:100820004F220A128A11710883120313BB00700849
:10083000BA003C08F6000310760CF7007708BC00FD
:100840003A083B040319292C3C088038F600760846
:10085000BC000130A4070318A50A0030A50700302A
:100860002502083003192402031C0E2C11308400C9
:100870000A128A150A200A128A11F600F7010310DB
:10088000F60DF70D3C08F800F90177087906031D0D
:100890004B2C76087806031D642D3C08F60066088C
:1008A000903E84007608831780000130E607031825
:1008B000E70A0030E707A601A70100302702083049
:1008C0000319260203188C2C0A128A154F220A12C9
:1008D0008A11710883120313BB007008BA003C0828
:1008E000F6000310760CF7007708BC003A083B04CA
:1008F00003197F2C3C088038F6007608BC000130D4
:10090000A6070318A70A0030A707003027020830FF
:1009100003192602031C642C123084000A128A1563
:100920000A200A128A11F600F7010310F60DF70DDE
:100930003C08F800F90177087906031DA12C760818
:100940007806031D642D3C08F6006608903E84007E
:100950007608831780000130E6070318E70A0030A5
:10096000E707A801A901003029020830031928026D
:100970000318E22C0A128A154F220A128A117108F2
:1009800083120313BB007008BA003C08F600031082
:10099000760CF7007708BC003A083B040319D52C05
:1009A0003C088038F6007608BC000130A807031820
:1009B000A90A0030A90700302902083003192802CB
:1009C000031CBA2C133084000A128A150A200A125A
:1009D0008A11F600F7010310F60DF70D3C08F80038
:1009E000F90177087906031DF72C76087806031DB0
:1009F000642D3C08F6006608903E84007608831754
:100A000080000130E6070318E70A0030E707AA0173
:100A1000AB0100302B02083003192A020318382DCD
:100A20000A128A154F220A128A11710883120313BF
:100A3000BB007008BA003C08F6000310760CF70003
:100A40007708BC003A083B0403192B2D3C0880387A
:100A5000F6007608BC000130AA070318AB0A003084
:100A6000AB0700302B02083003192A02031C102D9B
:100A7000143084000A128A150A200A128A11F6001C
:100A8000F7010310F60DF70D3C08F800F90177089F
:100A90007906031D4D2D76087806031D642D3C084C
:100AA000F6006608903E84007608831780000130C7
:100AB000E6070318E70A0030E7070130EA070318E2
:100AC000EB0A0030EB07662DE601E701AC01AD0152
:100AD00000302D02083003192C020318972D0A123A
:100AE0008A154F220A128A11710883120313BB0060
:100AF0007008BA003C08F6000310760CF70077087F
:100B0000BC003A083B0403198A2D3C088038F600E3
:100B10007608BC000130AC070318AD0A0030AD0701
:100B200000302D02083003192C02031C6F2D3C08E5
:100B3000F6006608903E8400760883178000013036
:100B4000E6070318E70A0030E707AE01AF010030FF
:100B50002F02083003192E020318D62D0A128A1507
:100B60004F220A128A11710883120313BB00700806
:100B7000BA003C08F6000310760CF7007708BC00BA
:100B80003A083B040319C92D3C088038F600760862
:100B9000BC000130AE070318AF0A0030AF070030C9
:100BA0002F02083003192E02031CAE2D08308400DA
:100BB0000A128A150A200A128A11F600F701031098
:100BC000F60DF70D3C08F800F90177087906031DCA
:100BD000EB2D76087806031DB02F3C08F60066085A
:100BE000903E84007608831780000130E6070318E2
:100BF000E70A0030E707B001B101003031020830E8
:100C00000319300203182C2E0A128A154F220A12D9
:100C10008A11710883120313BB007008BA003C08E4
:100C2000F6000310760CF7007708BC003A083B0486
:100C300003191F2E3C088038F6007608BC000130EE
:100C4000B0070318B10A0030B10700303102083094
:100C500003193002031C042E093084000A128A157D
:100C60000A200A128A11F600F7010310F60DF70D9B
:100C70003C08F800F90177087906031D412E760833
:100C80007806031DB02F3C08F6006608903E8400ED
:100C90007608831780000130E6070318E70A003062
:100CA000E707B201B3010030330208300319320202
:100CB0000318822E0A128A154F220A128A1171080D
:100CC00083120313BB007008BA003C08F60003103F
:100CD000760CF7007708BC003A083B040319752E20
:100CE0003C088038F6007608BC000130B2070318D3
:100CF000B30A0030B3070030330208300319320260
:100D0000031C5A2E0A3084000A128A150A200A127D
:100D10008A11F600F7010310F60DF70D3C08F800F4
:100D2000F90177087906031D972E76087806031DCA
:100D3000B02F3C08F6006608903E840076088317C2
:100D400080000130E6070318E70A0030E707B40126
:100D5000B501003035020830031934020318D82ECB
:100D60000A128A154F220A128A117108831203137C
:100D7000BB007008BA003C08F6000310760CF700C0
:100D80007708BC003A083B040319CB2E3C08803896
:100D9000F6007608BC000130B4070318B50A00302D
:100DA000B50700303502083003193402031CB02E99
:100DB0000B3084000A128A150A200A128A11F600E2
:100DC000F7010310F60DF70D3C08F800F90177085C
:100DD0007906031DED2E76087806031DB02F3C081A
:100DE000F6006608903E8400760883178000013084
:100DF000E6070318E70A0030E707B601B70100303D
:100E0000370208300319360203182E2F0A128A15EA
:100E10004F220A128A11710883120313BB00700853
:100E2000BA003C08F6000310760CF7007708BC0007
:100E30003A083B040319212F3C088038F600760855
:100E4000BC000130B6070318B70A0030B7070030FE
:100E50003702083003193602031C062F0C308400B9
:100E60000A128A150A200A128A11F600F7010310E5
:100E7000F60DF70D3C08F800F90177087906031D17
:100E8000432F76087806031DB02F3C08F60066084D
:100E9000903E84007608831780000130E60703182F
:100EA000E70A0030E707B801B9010030390208301D
:100EB000031938020318842F0A128A154F220A12C6
:100EC0008A11710883120313BB007008BA003C0832
:100ED000F6000310760CF7007708BC003A083B04D4
:100EE0000319772F3C088038F6007608BC000130E3
:100EF000B8070318B90A0030B907003039020830C2
:100F000003193802031C5C2F0D3084000A128A1565
:100F10000A200A128A11F600F7010310F60DF70DE8
:100F20003C08F800F90177087906031D992F760827
:100F30007806031DB02F3C08F6006608903E84003A
:100F40007608831780000130E6070318E70A0030AF
:100F5000E7070130EA070318EB0A0030EB072F2BF5
:100F6000E601E7012D2B8317EA30FD000830FE0073
:100F70008A30FF00C23084000A168A11B3270A1291
:100F80008A116930FD000830FE003130FF0050301A
:100F900084000A168A11B3270A128A118313E130DA
:100FA000FD000030FE000330FF00C43084000A164C
:100FB0008A11B3270A128A11831790308400C23035
:100FC0000A168A119E270A128A11103084005030A6
:100FD0000A168A119E270A128A118313E1308400AF
:100FE000EE300A168A119E270A128A116630840092
:100FF00070300A168A119E2783010A128A15402E24
:10100000FF1B0A2883137F1883170008840A03191B
:10101000FF0A080008308A000408840A82070034A6
:1010200028346E3475346C346C34293400344A34CA
:10103000513431345A344834583400344A345134F9
:101040003134593443345A3400342534733425341C
:10105000633400340A168A11A62783160313111568
:101060000800483465346C346C346F3421342034D7
:10107000493427346D3420344F3472346934673442
:1010800061346D346934533461347434313421340F
:1010900021340034831203138501860187018801FE
:1010A0008901831603178801890180308316031391
:1010B00085002030860098308700880189018312DE
:1010C00003138501860187018801890108008312C5
:1010D0000313061685144030F2006A30F100D53053
:1010E000F000F00B7128F10B7128F20B71287828B1
:1010F00083120313061285100730F2005830F100F6
:101100005E30F000F00B8228F10B8228F20B82286F
:1011100089280800083400340734003403340034CC
:10112000003400340034003400340034013400341E
:1011300007340034043400340734003402340034FB
:1011400004340034083400340834003407340034E4
:1011500002340034043400340834003408340034D9
:1011600007340034F500BE280130F2007208F5079C
:101170000130F0070318F10A0030F1077508840008
:1011800083170008F200700884008317711C831312
:101190000003FF3A7207F3007308F4007408031D9C
:1011A000D7287508840083170008031DB428740825
:1011B000F000F101F01BF103080002308312031369
:1011C000E0000030E1006108F5006008F4000A1258
:1011D0008A1560240A128A15831203136108FA0023
:1011E0006008F9005D08FC005C08FB000A128A1523
:1011F0005F250A128A15831203136108FA0060083A
:10120000F9005E08FB005F08FC000A128A11AC209E
:101210000800033083120313E0000030E10061088E
:10122000F5006008F4000A128A1560240A128A1573
:10123000831203136108FA006008F9005D08FC00DE
:101240005C08FB000A128A155F250A128A158312B0
:1012500003136108FA006008F9005E08FB005F08EC
:10126000FC000A128A11AC2008000130831203131B
:10127000E0000030E1006108F5006008F4000A12A7
:101280008A1560240A128A15831203136108FA0072
:101290006008F9005D08FC005C08FB000A128A1572
:1012A0005F250A128A15831203136108FA00600889
:1012B000F9005E08FB005F08FC000A128A11AC20EE
:1012C000080072037304031D70298312031385162B
:1012D0000A168A11D2270A128A158312031385125D
:1012E000023072067304031D80298312031308144D
:1012F0000A168A11D2270A128A15831203130810BC
:10130000033072067304031D0800831203130516CD
:101310000A168A11D22783120313051208002830F7
:101320008312031394008316031391018312031392
:101330002008A4002108A5002208A6002308A70071
:1013400002300310A40DA50DA60DA70DFF3E031D31
:10135000A1292708F3002608F2002508F100240837
:10136000F0000030F7009830F6009630F50080303D
:10137000F4000A128A15A1237008FF3E8316031396
:1013800093009401080072037304031DDA29831289
:10139000031309140A168A11D2270A128A15831216
:1013A000031389140A168A11D2270A128A15831286
:1013B00003138910023072067304031DF22983128D
:1013C000031388140A168A11D2270A128A15831267
:1013D000031308150A168A11D2270A128A158312D6
:1013E00003130811033072067304031D08008312EF
:1013F000031385150A168A11D2270A128A15831239
:10140000031305150A168A11D22783120313051137
:10141000080072037304031D202A831203130910AA
:101420000A168A11D2270A128A1583120313891405
:101430000A168A11D2270A128A15831203138910F9
:10144000023072067304031D382A831203138810B6
:101450000A168A11D2270A128A1583120313081555
:101460000A168A11D2270A128A1583120313081149
:10147000033072067304031D0800831203138511E1
:101480000A168A11D2270A128A1583120313051528
:101490000A168A11D22783120313051108000310BC
:1014A00083120313861A0314003003180130F2006C
:1014B000F301720883160313EC007308ED00F401C6
:1014C000F501003075023E30031974020318962AA4
:1014D00003108312861A0314003003180130F2003F
:1014E000F301831603136D087306031D792A6C0834
:1014F00072060319892AF930F2000000F20B7D2AE6
:10150000812A00000430831203138706F001F101E1
:1015100008000130F4070318F50A0030F507003021
:1015200075023E3003197402031C692A0130F00071
:101530000030F10008000A128A1127230A128A15C6
:101540008312031306150A128A15FF230A128A153D
:101550008312031306110A128A15DD240A128A1552
:10156000710883120313BE007008BD003D033E04E2
:10157000031DE52ABF01C0016608EE3EFA006708B8
:101580000318013EFF3EFB007B084002031DCA2AF0
:101590007A083F020318DF2A3F08103E903E84007D
:1015A00083170008FA003F08303E84007A08800064
:1015B0000130BF070318C00A0030C007BC2AE6018B
:1015C000E701EA01EB0130300800E601E701EA013A
:1015D000EB0100300800F601F11FF52AF009F109CE
:1015E000F00A0319F10AF601F60AF31F002BF209BB
:1015F000F309F20A0319F30A0130F4007408F6063D
:10160000F701F801700871040319372BF501F50A89
:10161000F11B162B01300310F00DF10DFF3E031DE1
:101620000B2B0130F4007408F507082B0130031070
:10163000F70DF80DFF3E031D172B71087302031DF4
:10164000232B70087202031C2C2B7008F202710805
:10165000031CF303F302771401300310F10CF00CB8
:10166000FF3E031D2D2B0130F502031D162B7608BE
:1016700003193F2BF709F809F70A0319F80A780844
:10168000F1007708F0000800F8007808F500750709
:10169000F6007608F9000A168A1187270A128A15B9
:1016A0007908F500F6017508F0007608F1000A16D1
:1016B0008A118E270A128A157208F500F60175083C
:1016C000F0007608F1000A168A118E270A128A1590
:1016D0007308F500F6017508F0007608F1000A16A7
:1016E0008A118E270A128A1574088400831700084D
:1016F00003198E2B7408840083170008F500F60187
:101700007508F0007608F1000A168A118E270A1271
:101710008A150130F5007508F407742B0A128A1532
:101720002A200A128A150330F7008A30F600563054
:10173000F500F50B992BF60B992BF70B992BA02B9A
:1017400008000030FC000030FB000030FA000030E0
:10175000F90073087204710470040319F62BFD017B
:10176000FD0AF31BC12B0130F8000310F00DF10D41
:10177000F20DF30DF80BB52B0130F8007808FD07DA
:10178000B12B0130F8000310F90DFA0DFB0DFC0D23
:10179000F80BC32B73087702031DD82B720876024F
:1017A000031DD82B71087502031DD82B7008740215
:1017B000031CE92B7008F4027108031C710FF50279
:1017C0007208031C720FF6027308031C730FF702F2
:1017D000791401300310F30CF20CF10CF00CFF3E05
:1017E000031DEA2B0130FD02031DC12B7C08F30011
:1017F0007B08F2007A08F1007908F00008008312F3
:101800000313A601A201A301A001A101A401A50146
:1018100002306A066B04031D08000A128A154F2263
:101820000A128A15710883120313A5007008A40018
:10183000053022062304031D2B2C24032504031D3D
:10184000282C0130EA070318EB0A0030EB070800E8
:10185000A201A301082C2608F6000310760CF7005D
:101860007708A60024082504031D392CA201A30132
:10187000442C26088038F6007608A6000130A2071E
:101880000318A30A0030A3070130A0070318A10A18
:101890000030A107083020062104031D082CA001F8
:1018A000A1012608F6006608903E8400760883179A
:1018B00080000130E6070318E70A0030E707082C2C
:1018C0007508F3007408F2000A128A1509220A1238
:1018D0008A157508F3007408F2000A128A150922A5
:1018E0000A128A157508F3007408F2000A128A15A4
:1018F00009220A128A157508F3007408F2000A1208
:101900008A15C3210A128A157508F3007408F200BB
:101910000A128A15C3210A128A157508F300740881
:10192000F2000A128A1509220A128A157508F300B4
:101930007408F2000A128A1509220A128A1575081B
:10194000F3007408F2000A128A1509220A128A1595
:101950007508F3007408F2000A128A1509220A12A7
:101960008A157508F3007408F2000A128A15092214
:101970000A128A157508F3007408F2000A128A1513
:10198000C3210A128A157508F3007408F2000A12BE
:101990008A1509220A128A157508F3007408F200E4
:1019A0000A128A1509220A128A157508F3007408AA
:1019B000F2000A128A1561210800FF308312031316
:1019C000EC00F2007208ED0003306A066B04031DA0
:1019D0000800F501F6016608FE3EF20067080318EC
:1019E000013EFF3EF30073087602031DF92C7208D6
:1019F00075020318442D7508903E84008317000873
:101A0000F2007208F900F701F8010030780208309E
:101A10000319770203183D2D79080139F200720885
:101A2000F4000310EC0CED0C0130831203130305DA
:101A3000F20074087206F3007303031D292D6C086D
:101A4000843AF2007208EC006D08083AF20072085D
:101A5000ED007908F2000310720CF3007308F9002E
:101A60000130F7070318F80A0030F8070030780251
:101A7000083003197702031C0C2D0130F5070318F9
:101A8000F60A0030F607EB2CED09EC096608FE3E7D
:101A9000903E8400831700086D06031D5C2D6608C8
:101AA000FF3E903E840000086C06031D5C2D013053
:101AB000F0000030F1000800F001F101080083128D
:101AC0000313BD01BE013E08803AFF0080307F0253
:101AD000031D6C2D0C303D0203188A2D8312031355
:101AE0003D08A0002007233E840083138001840A60
:101AF00080010130BD070318BE0A0030BE073E0852
:101B0000803AFF0080307F02031D882D0C303D029B
:101B1000031C6E2D83120313BB01BC017C08803AA9
:101B2000FF0080307F02031D972D01307B02031CD4
:101B3000D02D01307B0583120313A00000307C05FB
:101B4000A1003B08A2002207233E84002008831343
:101B50008000840A210880000230F0000030F1008B
:101B60007C08F3007B08F2000A128A15EB220A12A5
:101B70008A157108FC007008FB0001308312031302
:101B8000BB070318BC0A0030BC077C08803AFF0082
:101B900080307F02031DCE2D01307B020318992D6A
:101BA00083120313BF01C0014008803AFF00803058
:101BB0007F02031DDD2D0C303F020318262E8312F9
:101BC00003133F08A0002007233E8400831300086E
:101BD000A100840A0008A20021082204031DF92D97
:101BE0007A08F3007908F2000A128A1509220A120B
:101BF0008A15831203133F08A0002007233E8400A8
:101C000083130008A100840A0008A2002103220413
:101C1000031D132E7A08F3007908F2000A128A15C0
:101C2000C3210A128A15013083120313BF07031858
:101C3000C00A0030C0074008803AFF0080307F02B1
:101C4000031D242E0C303F02031CDF2D7A08F30005
:101C50007908F2000A128A15C3210A128A157A0835
:101C6000F3007908F2000A128A15C3210A128A15B4
:101C70007A08F3007908F2000A128A156121080037
:101C8000073083120313E4005830E3005E30E200B3
:101C9000E20B482EE30B482EE40B482E4F2E0A167B
:101CA0008A11E7270A128A150A128A154A200A128F
:101CB0008A15003083120313A3000630A2001A30E5
:101CC000A1008030A0000A128A158F210A128A15FD
:101CD0008312031306150730E4005830E3005E302A
:101CE000E200E20B712EE30B712EE40B712E782EC5
:101CF000831603134C0883120313DD0083160313AA
:101D00004B0883120313DC00D730DE000030DF0005
:101D10000A128A1535210A128A15831603134808F8
:101D200083120313DD008316031347088312031382
:101D3000DC00CD30DE000030DF000A128A15DD2025
:101D40000A128A15831603134A0883120313DD004F
:101D500083160313490883120313DC00E030DE000E
:101D60000130DF000A128A1509210A128A1583122E
:101D7000031306110A128A159B220A128A1583126E
:101D80000313E200620883160313C30083120313D4
:101D900006150730E4005830E3005E30E200E20B45
:101DA000CF2EE30BCF2EE40BCF2ED62E83120313B0
:101DB0000611F201F3018316031343088312031380
:101DC000E2006208F40050300A128A1544230A1215
:101DD0008A15723083120313E2006208831603131C
:101DE000C100F101F20141080A168A11C0270A1246
:101DF0008A15831603134408A0004508A10046086D
:101E0000A2000D3083120313E2006208831603134D
:101E1000C200A030F0000030F1001630831203132E
:101E2000E2006208F200A030E3006308F3008316CA
:101E30000313420883120313E400E5016408F4006D
:101E40006508F5000A128A1120200A128A15A030AE
:101E5000F0000030F1008316031343080A128A15BC
:101E6000B2200A128A1570087104031DF02F831224
:101E7000031306150730E4005830E3005E30E2003B
:101E8000E20B402FE30B402FE40B402F472F831230
:101E9000031306110A128A1567200A128A154030A8
:101EA00083120313E4006A30E300D530E200E20B52
:101EB000572FE30B572FE40B572F5E2FA3308400CF
:101EC000C23083120313E2000408E3000A30E40086
:101ED0006208840083170008E500E20A63088400B2
:101EE000831365088000E30AE40B682FAD3084009B
:101EF000CC30E2000408E3000A30E4006208840009
:101F000083170008E500E20A63088400831365086C
:101F10008000E30AE40B7E2FB7308400D630E20065
:101F20000408E3000A30E400620884008317000814
:101F3000E500E20A63088400831365088000E30A71
:101F4000E40B942F831603134C0883120313DD0054
:101F5000831603134B0883120313DC00A330DE0047
:101F60000030DF000A128A1535210A128A158316FD
:101F70000313480883120313DD0083160313470875
:101F800083120313DC00AD30DE000030DF000A12E4
:101F90008A15DD200A128A15831603134A08831254
:101FA0000313DD0083160313490883120313DC00B7
:101FB000B730DE000030DF000A128A1509210A124C
:101FC0008A15073083120313E4005830E3005E30B3
:101FD000E200E20BE92FE30BE92FE40BE92FF02FEE
:101FE000073083120313E4005830E3005E30E20050
:101FF000E20BF82FE30BF82FE40BF82FFF2FBA2E8C
:102F0E000A168A11A62783160313111408000A162F
:102F1E008A11A62770088312031393000800F0008D
:102F2E00831203130C1E972F70089900080064007B
:102F3E008001840A04060319003404069F2F8316A9
:102F4E0003131419A62F11081F3903190800A62FF1
:102F5E007E088A007F088200AF270A168A11800039
:102F6E00840A04087D0603190034FF0A0319FE0AB9
:102F7E00B32FF30073080A168A1196270A168A11C0
:102F8E0071080A168A1196270A168A1172080A16ED
:102F9E008A1196270800F001F1017108803AFF00AE
:102FAE0080307F02031DDD2F0530700203180800EC
:102FBE0000000130F0070318F10A0030F107D42F9A
:102FCE000A30831603139900181118128312031373
:102FDE009817181698128C12831603130C128C164F
:102FEE0018138312031318138316031398129816CB
:022FFE000800C9
:04400E00E2E0FFFFEE
:00000001FF
