:060000000A128A11B32F61
:10000A00483465346C346C346F34213420344934C8
:10001A0027346D3420344F34723469346734613490
:10002A006D346934533461347434313421342134B5
:10003A0000347330F6007608F8007A2878088400CD
:10004A000008F9000030FA000130F6007608F807D7
:10005A0079087A04031D35280130F9008030FA0046
:10006A007A0883120313FF00790884000A128A159A
:10007A0000200A128A11003A03197A287A08831290
:10008A000313FF00790884000A128A1500200A1255
:10009A008A11F600700884008317711C831376088E
:1000AA0080000130F9070318FA0A0130F007031833
:1000BA00F10A0030F1073528780884000008F600B4
:1000CA007608FB000230F6007608F8077B08F6008F
:1000DA00700884008317711C83137608800001302E
:1000EA00F0070318F10A0030F1070130F207FF3078
:1000FA00720784000A128A150A200A128A11F60067
:10010A007608FB007B080319A52825307B06031D0A
:10011A006B28F7010130F207FF30720784000A12D8
:10012A008A150A200A128A11FB00003A0319A52827
:10013A00633A03196128103A031923286B287A288D
:10014A00700884008317711C8313800108008312CE
:10015A000313D401D501D601D7015708803AFF000D
:10016A0080307F02031DBB28113056020318D9289C
:10017A00831203135608A0002007303E840083131D
:10018A008001840A80010130D6070318D70A00309B
:10019A00D7075708803AFF0080307F02031DD7280F
:1001AA0011305602031CBD2883120313D201D30156
:1001BA005308803AFF0080307F02031DE628113081
:1001CA0052020318B72A83120313DA01DB015B0810
:1001DA00803AFF0080307F02031DF52805305A025D
:1001EA000318A42A831203135B08A1005A08A0006B
:1001FA000310A00DA10D20087B07A20021080318F7
:10020A00210A7C07A300220884008317231C831376
:10021A000008A400840A0008A50024189D290430B7
:10022A005A065B04031D60290230F0000030F10019
:10023A005B08A1005A08A0000310A00DA10D200818
:10024A007B07A20021080318210A7C07A3002208C1
:10025A0084008317231C83130008F200840A000811
:10026A00F3000A128A151C230A128A118312031335
:10027A005B08A5005A08A4000310A40DA50D2408C4
:10028A007B07A60025080318250A7C07A70026086D
:10029A0084008317271C831370088000840A71085E
:1002AA0080005408A0002007303E84008313800198
:1002BA00840A8001052A0230F0000030F1005B0850
:1002CA00A1005A08A0000310A00DA10D20087B0769
:1002DA00A20021080318210A7C07A300220884002F
:1002EA008317231C83130008F200840A0008F30012
:1002FA000A128A151C230A128A11831203135B0835
:10030A00A5005A08A4000310A40DA50D24087B0714
:10031A00A60025080318250A7C07A70026088400DA
:10032A008317271C831370088000840A7108922A95
:10033A005B08A1005A08A0000310A00DA10D200817
:10034A007B07A20021080318210A7C07A3002208C0
:10035A0084008317231C83130008A400840A00085E
:10036A00A500241C932A04305A065B04031D0C2A98
:10037A000230F0000030F1005B08A1005A08A0002A
:10038A000310A00DA10D20087B07A2002108031865
:10039A00210A7C07A300220884008317231C8313E5
:1003AA000008F200840A0008F3000A128A151C23C6
:1003BA000A128A11831203135B08A5005A08A400C3
:1003CA000310A40DA50D24087B07A6002508031811
:1003DA00250A7C07A700260884008317271C831395
:1003EA0070088000840A710880005408A000200761
:1003FA00303E8400013083138000840A003080007C
:10040A000130D4070318D50A0030D507932A0230E1
:10041A00F0000030F1005B08A1005A08A0000310A8
:10042A00A00DA10D20087B07A20021080318210AAC
:10043A007C07A300220884008317231C8313000867
:10044A00F200840A0008F3000A128A151C230A1211
:10045A008A11831203135B08A5005A08A40003102B
:10046A00A40DA50D24087B07A60025080318250A54
:10047A007C07A700260884008317271C83137008AB
:10048A008000840A710880005B08A1005A08A00055
:10049A000310A00DA10D2008023EA2002108031896
:1004AA00013E003EA30022087B07A400230803188C
:1004BA00230A7C07A500240884008317251C8313BC
:1004CA000008A600840A0008A70026080A3EA80019
:1004DA0027080318013E003EA9005B08AB005A0832
:1004EA00AA000310AA0DAB0D2A08023EAC002B0885
:1004FA000318013E003EAD002C087B07AE002D0814
:10050A0003182D0A7C07AF002E08840083172F1CBE
:10051A00831328088000840A290880000130DA073A
:10052A000318DB0A0030DB075B08803AFF008030E3
:10053A007F02031DA22A05305A02031CF728013044
:10054A0083120313D2070318D30A0030D3075308C0
:10055A00803AFF0080307F02031DB52A1130520213
:10056A00031CE82883120313D801D9015908803AD9
:10057A00FF0080307F02031DC42A1130580203187D
:10058A000D2B831203135808A0002007303E840065
:10059A0083130008A100840A0008A200210822048B
:1005AA00031DE02A7A08F3007908F2000A128A1574
:1005BA0043220A128A11831203135808A000200743
:1005CA00303E840083130008A100840A0008A200B8
:1005DA0021032204031DFA2A7A08F3007908F2009B
:1005EA000A128A15FD210A128A1101308312031395
:1005FA00D8070318D90A0030D9075908803AFF00EA
:10060A0080307F02031D0B2B11305802031CC62AAF
:10061A007A08F3007908F2000A128A15FD210A12F3
:10062A008A117A08F3007908F2000A128A1543221D
:10063A000A128A117A08F3007908F2000A128A1556
:10064A009B210800FF30F600760883120313BC00D2
:10065A00EA01EB0100306B02023003196A02031847
:10066A0008007E303C060319862B0A128A15892255
:10067A000A128A11710883120313BB007008BA00A8
:10068A003C08F6007607F7007708BC003A083B04F6
:10069A000319362B3C080138F6007608BC00362BC5
:1006AA00A001A10100302102083003192002031819
:1006BA00862B0A128A1589220A128A117108831254
:1006CA000313BB007008BA003C08F6000310760C4E
:1006DA00F7007708BC003A083B040319792B3C0859
:1006EA008038F6007608BC000130A0070318A10A7A
:1006FA000030A10700302102083003192002031C30
:10070A005E2B7E303C060319552B0F3084000A12EB
:10071A008A150A200A128A11F600F7010310F60D4B
:10072A00F70D3C08F800F90177087906031D9F2B9D
:10073A0076087806031D642D3C08F6006808903E8A
:10074A0084007608831780000130E8070318E90A55
:10075A000030E907A201A30100302302083003197F
:10076A0022020318E02B0A128A1589220A128A1118
:10077A00710883120313BB007008BA003C08F60024
:10078A000310760CF7007708BC003A083B040319FB
:10079A00D32B3C088038F6007608BC000130A2074B
:1007AA000318A30A0030A3070030230208300319F4
:1007BA002202031CB82B103084000A128A150A2060
:1007CA000A128A11F600F7010310F60DF70D3C081C
:1007DA00F800F90177087906031DF52B76087806E3
:1007EA00031D642D3C08F6006808903E84007608D4
:1007FA00831780000130E8070318E90A0030E90787
:10080A00A401A501003025020830031924020318A7
:10081A00362C0A128A1589220A128A117108831241
:10082A000313BB007008BA003C08F6000310760CEC
:10083A00F7007708BC003A083B040319292C3C0846
:10084A008038F6007608BC000130A4070318A50A10
:10085A000030A50700302502083003192402031CC2
:10086A000E2C113084000A128A150A200A128A11E3
:10087A00F600F7010310F60DF70D3C08F800F90130
:10088A0077087906031D4B2C76087806031D642D1C
:10089A003C08F6006808903E8400760883178000BA
:1008AA000130E8070318E90A0030E907A601A701A1
:1008BA000030270208300319260203188C2C0A126A
:1008CA008A1589220A128A11710883120313BB003E
:1008DA007008BA003C08F6000310760CF700770897
:1008EA00BC003A083B0403197F2C3C088038F60008
:1008FA007608BC000130A6070318A70A0030A7072C
:10090A0000302702083003192602031C642C123017
:10091A0084000A128A150A200A128A11F600F701BF
:10092A000310F60DF70D3C08F800F901770879066F
:10093A00031DA12C76087806031D642D3C08F600D9
:10094A006808903E84007608831780000130E80723
:10095A000318E90A0030E907A801A90100302902B1
:10096A000830031928020318E22C0A128A15892270
:10097A000A128A11710883120313BB007008BA00A5
:10098A003C08F6000310760CF7007708BC003A081A
:10099A003B040319D52C3C088038F6007608BC00C5
:1009AA000130A8070318A90A0030A9070030290254
:1009BA00083003192802031CBA2C133084000A12C7
:1009CA008A150A200A128A11F600F7010310F60D99
:1009DA00F70D3C08F800F90177087906031DF72C92
:1009EA0076087806031D642D3C08F6006808903ED8
:1009FA0084007608831780000130E8070318E90AA3
:100A0A000030E907AA01AB0100302B0208300319B4
:100A1A002A020318382D0A128A1589220A128A1103
:100A2A00710883120313BB007008BA003C08F60071
:100A3A000310760CF7007708BC003A083B04031948
:100A4A002B2D3C088038F6007608BC000130AA0736
:100A5A000318AB0A0030AB0700302B020830031929
:100A6A002A02031C102D143084000A128A150A2047
:100A7A000A128A11F600F7010310F60DF70D3C0869
:100A8A00F800F90177087906031D4D2D76087806D6
:100A9A00031D642D3C08F6006808903E8400760821
:100AAA00831780000130E8070318E90A0030E907D4
:100ABA000130EA070318EB0A0030EB07662DE8015C
:100ACA00E901AC01AD0100302D02083003192C02F6
:100ADA000318972D0A128A1589220A128A11710897
:100AEA0083120313BB007008BA003C08F600031017
:100AFA00760CF7007708BC003A083B0403198A2DE4
:100B0A003C088038F6007608BC000130AC070318B0
:100B1A00AD0A0030AD0700302D02083003192C024F
:100B2A00031C6F2D3C08F6006808903E8400760886
:100B3A00831780000130E8070318E90A0030E90743
:100B4A00AE01AF0100302F02083003192E0203183C
:100B5A00D62D0A128A1589220A128A11710883125D
:100B6A000313BB007008BA003C08F6000310760CA9
:100B7A00F7007708BC003A083B040319C92D3C0862
:100B8A008038F6007608BC000130AE070318AF0AB9
:100B9A000030AF0700302F02083003192E02031C61
:100BAA00AE2D083084000A128A150A200A128A1108
:100BBA00F600F7010310F60DF70D3C08F800F901ED
:100BCA0077087906031DEB2D76087806031DB02FEA
:100BDA003C08F6006808903E840076088317800077
:100BEA000130E8070318E90A0030E907B001B1014A
:100BFA000030310208300319300203182C2E0A1271
:100C0A008A1589220A128A11710883120313BB00FA
:100C1A007008BA003C08F6000310760CF700770853
:100C2A00BC003A083B0403191F2E3C088038F60022
:100C3A007608BC000130B0070318B10A0030B107CA
:100C4A0000303102083003193002031C042E093027
:100C5A0084000A128A150A200A128A11F600F7017C
:100C6A000310F60DF70D3C08F800F901770879062C
:100C7A00031D412E76087806031DB02F3C08F600A6
:100C8A006808903E84007608831780000130E807E0
:100C9A000318E90A0030E907B201B3010030330250
:100CAA000830031932020318822E0A128A15892281
:100CBA000A128A11710883120313BB007008BA0062
:100CCA003C08F6000310760CF7007708BC003A08D7
:100CDA003B040319752E3C088038F6007608BC00E0
:100CEA000130B2070318B30A0030B30700303302E9
:100CFA00083003193202031C5A2E0A3084000A12E1
:100D0A008A150A200A128A11F600F7010310F60D55
:100D1A00F70D3C08F800F90177087906031D972EAC
:100D2A0076087806031DB02F3C08F6006808903E46
:100D3A0084007608831780000130E8070318E90A5F
:100D4A000030E907B401B501003035020830031953
:100D5A0034020318D82E0A128A1589220A128A1115
:100D6A00710883120313BB007008BA003C08F6002E
:100D7A000310760CF7007708BC003A083B04031905
:100D8A00CB2E3C088038F6007608BC000130B40748
:100D9A000318B50A0030B5070030350208300319C8
:100DAA003402031CB02E0B3084000A128A150A2062
:100DBA000A128A11F600F7010310F60DF70D3C0826
:100DCA00F800F90177087906031DED2E76087806F2
:100DDA00031DB02F3C08F6006808903E8400760890
:100DEA00831780000130E8070318E90A0030E90791
:100DFA00B601B7010030370208300319360203186A
:100E0A002E2F0A128A1589220A128A117108831250
:100E1A000313BB007008BA003C08F6000310760CF6
:100E2A00F7007708BC003A083B040319212F3C0855
:100E3A008038F6007608BC000130B6070318B70AF6
:100E4A000030B70700303702083003193602031C96
:100E5A00062F0C3084000A128A150A200A128A11F7
:100E6A00F600F7010310F60DF70D3C08F800F9013A
:100E7A0077087906031D432F76087806031DB02FDD
:100E8A003C08F6006808903E8400760883178000C4
:100E9A000130E8070318E90A0030E907B801B90187
:100EAA00003039020830031938020318842F0A1255
:100EBA008A1589220A128A11710883120313BB0048
:100ECA007008BA003C08F6000310760CF7007708A1
:100EDA00BC003A083B040319772F3C088038F60017
:100EEA007608BC000130B8070318B90A0030B90700
:100EFA0000303902083003193802031C5C2F0D3008
:100F0A0084000A128A150A200A128A11F600F701C9
:100F1A000310F60DF70D3C08F800F9017708790679
:100F2A00031D992F76087806031DB02F3C08F6009A
:100F3A006808903E84007608831780000130E8072D
:100F4A000318E90A0030E9070130EA070318EB0A37
:100F5A000030EB072F2BE801E9012D2B8317EA302C
:100F6A00FD000830FE00C430FF00C23084000A16BB
:100F7A008A11E1270A128A116930FD000030FE0049
:100F8A000530FF00503084000A168A11E1270A1240
:100F9A008A118313E130FD000830FE008430FF001F
:100FAA00C43084000A168A11E1270A128A118317AB
:100FBA0090308400C2300A168A11D5270A128A1183
:100FCA001030840050300A168A11D5270A128A1165
:100FDA008313E1308400EE300A168A11D5270A12EB
:100FEA008A116630840070300A168A11D527830167
:100FFA000A128A15712EFF1B0A2883137F1883177A
:10100A000008840A0319FF0A080008308A00040845
:10101A00840A8207003428346E3475346C346C3494
:10102A00293400344A34513431345A344834583427
:10103A0000344A3451343134593443345A34003444
:0A104A002534733425346334003478
:10106000831603131419302811081F3903190800B7
:101070003028F001F1017108803AFF0080307F02D2
:10108000031D4428053070020318080000000130D9
:10109000F0070318F10A0030F1073B280A308316E5
:1010A00003139900181118128312031398171816B6
:1010B00098128C12831603130C128C1618138312B9
:1010C000031318138316031398129816080083123B
:1010D000031385018601870188018901831603179F
:1010E0008801890180308316031385000130860052
:1010F00098308700880189018312031385018601D6
:1011000087018801890108004534413400340034E6
:101110000A34A034003400340A340034003401347A
:101120000034073400340434003407340034083405
:101130000034073400340334003400340034003405
:10114000003483120313061685144030F2006A300F
:10115000F1009730F000F00BAB28F10BAB28F20B4D
:10116000AB28B22883120313061285100730F20051
:101170005830F1005930F000F00BBC28F10BBC28BE
:10118000F20BBC28C32808000234003404340034B5
:101190000834003408340034073400340034003498
:1011A000013400340734003404340034073400348C
:1011B000083400340734003403340034003400347D
:1011C0000034003402340034043400340834003471
:1011D0000834003407340034F500F8280130F200F8
:1011E0007208F5070130F0070318F10A0030F10723
:1011F0007508840083170008F200700884008317C4
:10120000711C83130003FF3A7207F3007308F400A4
:101210007408031D11297508840083170008031D35
:10122000EE287408F000F101F01BF1030800023011
:1012300083120313E0000030E1006108F50060084C
:10124000F4000A128A1591240A128A1583120313D4
:101250006108FA006008F9005D08FC005C08FB000A
:101260000A128A1590250A128A158312031361083F
:10127000FA006008F9005E08FB005F08FC000A1233
:101280008A11AC200800033083120313E000003001
:10129000E1006108F5006008F4000A128A15912443
:1012A0000A128A15831203136108FA006008F90014
:1012B0005D08FC005C08FB000A128A1590250A12E2
:1012C0008A15831203136108FA006008F9005E08AA
:1012D000FB005F08FC000A128A11AC2008000130F4
:1012E00083120313E0000030E1006108F50060089C
:1012F000F4000A128A1591240A128A158312031324
:101300006108FA006008F9005D08FC005C08FB0059
:101310000A128A1590250A128A158312031361088E
:10132000FA006008F9005E08FB005F08FC000A1282
:101330008A11AC20080072037304031DAA298312CA
:10134000031385160A128A1539200A128A15831288
:1013500003138512023072067304031DBA29831227
:10136000031308140A128A1539200A128A158312E7
:1013700003130810033072067304031D0800831260
:10138000031305160A128A15392083120313051256
:10139000080028308312031394008316031391016D
:1013A000831203132008A4002108A5002208A60028
:1013B0002308A70002300310A40DA50DA60DA70D4C
:1013C000FF3E031DDB292708F3002608F20025084D
:1013D000F1002408F0000030F7009830F600963055
:1013E000F5008030F4000A128A15D2237008FF3EFF
:1013F0008316031393009401080072037304031D02
:10140000142A8312031309140A128A1539200A12A6
:101410008A158312031389140A128A1539200A12B5
:101420008A15831203138910023072067304031D98
:101430002C2A8312031388140A128A1539200A12DF
:101440008A158312031308150A128A1539200A1205
:101450008A15831203130811033072067304031DE7
:1014600008008312031385150A128A1539200A12FF
:101470008A158312031305150A128A15392083125F
:1014800003130511080072037304031D5A2A831203
:10149000031309100A128A1539200A128A158312B9
:1014A000031389140A128A1539200A128A15831225
:1014B00003138910023072067304031D722A83120B
:1014C000031388100A128A1539200A128A1583120A
:1014D000031308150A128A1539200A128A15831275
:1014E00003130811033072067304031D08008312EE
:1014F000031385110A128A1539200A128A158312DC
:10150000031305150A128A153920831203130511D6
:101510000800031083120313861A03140030031803
:101520000130F200F301720883160313EC00730814
:10153000ED00F401F501003075023C30031974022E
:101540000318CD2A031083120313861A03140030E4
:1015500003180130F200F301831603136D087306BC
:10156000031DB42A6C0872060319C02AC730F200A2
:10157000B92AF20BB82ABC2ABD2AF001F1010800F1
:101580000130F4070318F50A0030F5070030750242
:101590003C3003197402031CA32A0130F000003010
:1015A000F10008000A128A1127230A128A150A126A
:1015B0008A1530240A128A150A128A150E250A1273
:1015C0008A15710883120313BE007008BD003D0325
:1015D0003E04031D162BBF01C0016808EE3EFA0051
:1015E00069080318013EFF3EFB007B084002031D13
:1015F000FB2A7A083F020318102B3F08103E903E4A
:10160000840083170008FA003F08303E84007A08FF
:1016100080000130BF070318C00A0030C007ED2A60
:10162000E801E901EA01EB0130300800E801E901D5
:10163000EA01EB0100300800F601F11F262BF0094A
:10164000F109F00A0319F10AF601F60AF31F312B2A
:10165000F209F309F20A0319F30A0130F4007408DD
:10166000F606F701F801700871040319682BF501FB
:10167000F50AF11B472B01300310F00DF10DFF3E71
:10168000031D3C2B0130F4007408F507392B0130A1
:101690000310F70DF80DFF3E031D482B7108730270
:1016A000031D542B70087202031C5D2B7008F2029C
:1016B0007108031CF303F302771401300310F10CDB
:1016C000F00CFF3E031D5E2B0130F502031D472B7E
:1016D00076080319702BF709F809F70A0319F80AB5
:1016E0007808F1007708F0000800F8007808F500A5
:1016F0007507F6007608F9000A168A11B7270A124C
:101700008A157908F500F6017508F0007608F100F1
:101710000A168A11C5270A128A157208F500F60101
:101720007508F0007608F1000A168A11C5270A121A
:101730008A157308F500F6017508F0007608F100C7
:101740000A168A11C5270A128A157408840083179D
:1017500000080319BF2B7408840083170008F500E4
:10176000F6017508F0007608F1000A168A11C527FF
:101770000A128A150130F5007508F407A52B0A1620
:101780008A11BE270A128A150330F7008A30F60044
:101790005530F500F50BCA2BF60BCA2BF70BCA2BED
:1017A000D12B08000030FC000030FB000030FA00B4
:1017B0000030F90073087204710470040319272CB7
:1017C000FD01FD0AF31BF22B0130F8000310F00DB0
:1017D000F10DF20DF30DF80BE62B0130F80078084F
:1017E000FD07E22B0130F8000310F90DFA0DFB0D97
:1017F000FC0DF80BF42B73087702031D092C7208FB
:101800007602031D092C71087502031D092C70084E
:101810007402031C1A2C7008F4027108031C710F67
:10182000F5027208031C720FF6027308031C730F93
:10183000F702791401300310F30CF20CF10CF00CE8
:10184000FF3E031D1B2C0130FD02031DF22B7C0803
:10185000F3007B08F2007A08F1007908F000080034
:1018600083120313A601A201A301A001A101A401F7
:10187000A50102306A066B04031D08000A128A15CE
:1018800089220A128A15710883120313A5007008B1
:10189000A400053022062304031D5C2C2403250428
:1018A000031D592C0130EA070318EB0A0030EB073F
:1018B0000800A201A301392C2608F6000310760CBB
:1018C000F7007708A60024082504031D6A2CA2014E
:1018D000A301752C26088038F6007608A600013092
:1018E000A2070318A30A0030A3070130A0070318BA
:1018F000A10A0030A107083020062104031D392C5D
:10190000A001A1012608F6006808903E8400760830
:10191000831780000130E8070318E90A0030E9075F
:10192000392C7508F3007408F2000A128A15432254
:101930000A128A157508F3007408F2000A128A1553
:1019400043220A128A157508F3007408F2000A127D
:101950008A1543220A128A157508F3007408F200EA
:101960000A128A15FD210A128A157508F3007408F7
:10197000F2000A128A15FD210A128A157508F30071
:101980007408F2000A128A1543220A128A15750891
:10199000F3007408F2000A128A1543220A128A150B
:1019A0007508F3007408F2000A128A1543220A121D
:1019B0008A157508F3007408F2000A128A1543228A
:1019C0000A128A157508F3007408F2000A128A15C3
:1019D00043220A128A157508F3007408F2000A12ED
:1019E0008A15FD210A128A157508F3007408F200A1
:1019F0000A128A1543220A128A157508F300740820
:101A0000F2000A128A1543220A128A157508F30099
:101A10007408F2000A128A159B210800FF30831215
:101A20000313EF00F2007208EE0003306A066B0445
:101A3000031D0800F501F6016808FE3EF200690882
:101A40000318013EFF3EF30073087602031D2A2DA2
:101A5000720875020318752D7508903E840083176F
:101A60000008F2007208F900F701F801003078026E
:101A700008300319770203186E2D79080139F20036
:101A80007208F4000310EF0CEE0C01308312031304
:101A90000305F20074087206F3007303031D5A2D48
:101AA0006F08843AF2007208EF006E08083AF200FC
:101AB0007208EE007908F2000310720CF30073084C
:101AC000F9000130F7070318F80A0030F807003072
:101AD0007802083003197702031C3D2D0130F50709
:101AE0000318F60A0030F6071C2DEE09EF09680806
:101AF000FE3E903E8400831700086E06031D8D2D68
:101B00006808FF3E903E840000086F06031D8D2D7F
:101B10000130F0000030F1000800F001F101080090
:101B200083120313BD01BE013E08803AFF008030DE
:101B30007F02031D9D2D0C303D020318BB2D831227
:101B400003133D08A0002007233E84008313800177
:101B5000840A80010130BD070318BE0A0030BE07A9
:101B60003E08803AFF0080307F02031DB92D0C3003
:101B70003D02031C9F2D83120313BB01BC017C0893
:101B8000803AFF0080307F02031DC82D01307B02A8
:101B9000031C012E01307B0583120313A0000030CB
:101BA0007C05A1003B08A2002207233E84002008F8
:101BB00083138000840A210880000230F000003086
:101BC000F1007C08F3007B08F2000A128A151C233E
:101BD0000A128A157108FC007008FB00013083129C
:101BE0000313BB070318BC0A0030BC077C08803A0B
:101BF000FF0080307F02031DFF2D01307B020318A0
:101C0000CA2D83120313BF01C0014008803AFF00B0
:101C100080307F02031D0E2E0C303F020318572E1A
:101C2000831203133F08A0002007233E8400831380
:101C30000008A100840A0008A20021082204031D54
:101C40002A2E7A08F3007908F2000A128A15432234
:101C50000A128A15831203133F08A0002007233EAF
:101C6000840083130008A100840A0008A200210355
:101C70002204031D442E7A08F3007908F2000A12A8
:101C80008A15FD210A128A15013083120313BF073A
:101C90000318C00A0030C0074008803AFF008030B7
:101CA0007F02031D552E0C303F02031C102E7A08B4
:101CB000F3007908F2000A128A15FD210A128A152A
:101CC0007A08F3007908F2000A128A15FD210A1237
:101CD0008A157A08F3007908F2000A128A159B2106
:101CE0000800073083120313E4005830E300593032
:101CF000E200E20B792EE30B792EE40B792E0A1227
:101D00008A154E200A128A150A128A1567200A12AD
:101D10008A15003083120313A3000630A2001A3084
:101D2000A1008030A0000A128A15C9210A128A1562
:101D3000403083120313E4006A30E3009730E2007E
:101D4000E20BA02EE30BA02EE40BA02E83160313B0
:101D50004C0883120313DD00831603134B08831210
:101D60000313DC00D730DE000030DF000A128A15D2
:101D70006F210A128A15831603134A08831203136C
:101D8000DD0083160313490883120313DC00CD30F2
:101D9000DE000030DF000A128A1517210A128A15A8
:101DA00083160313480883120313DD0083160313FD
:101DB000470883120313DC00E030DE000130DF004F
:101DC0000A128A1543210A128A150A128A15D2228A
:101DD0000A128A1583120313E200620883160313A2
:101DE000C300F201F301430883120313E200620807
:101DF000F40050300A128A1575230A128A157230BF
:101E000083120313E200620883160313C100F10179
:101E1000F20141080A168A11EE270A128A15831662
:101E200003134408A0004508A1004608A2000D3095
:101E300083120313E200620883160313C200A0306A
:101E4000F0000030F100163083120313E200620844
:101E5000F200A030E3006308F30083160313420886
:101E600083120313E400E5016408F4006508F5003B
:101E70000A128A111E200A128A15A030F0000030C2
:101E8000F1008316031343080A128A15EC200A1284
:101E90008A1570087104031DF12F0A128A15A120FA
:101EA0000A128A15403083120313E4006A30E300FB
:101EB0009730E200E20B5A2FE30B5A2FE40B5A2F14
:101EC000A3308400D63083120313E2000408E30039
:101ED0000A30E4006208840083170008E500E20A83
:101EE00063088400831365088000E30AE40B6A2F0B
:101EF000AD308400CC30E2000408E3000A30E40096
:101F00006208840083170008E500E20A6308840081
:101F1000831365088000E30AE40B802FB730840048
:101F2000C230E2000408E3000A30E40062088400E2
:101F300083170008E500E20A63088400831365083C
:101F40008000E30AE40B962F831603134C088312D8
:101F50000313DD00831603134B0883120313DC0005
:101F6000A330DE000030DF000A128A156F210A124A
:101F70008A15831603134A0883120313DD008316A0
:101F80000313490883120313DC00AD30DE00003078
:101F9000DF000A128A1517210A128A158316031305
:101FA000480883120313DD008316031347088312C6
:101FB0000313DC00B730DE000030DF000A128A15A0
:101FC00043210A128A15073083120313E4005830A4
:101FD000E3005930E200E20BEB2FE30BEB2FE40BB5
:101FE000EB2F073083120313E4005830E30059301D
:101FF000E200E20BF92FE30BF92FE40BF92FE52EAA
:102F6E000A128A15302083160313111408000A1250
:102F7E008A15302083160313111508000A128A15BC
:102F8E00302070088312031393000800F0008312A0
:102F9E0003130C1ECE2F70089900080064008001E8
:102FAE00840A0406031900340406D62F7E088A000C
:102FBE007F088200DD270A168A118000840A040821
:102FCE007D0603190034FF0A0319FE0AE12FF300F0
:102FDE0073080A168A11CD270A168A1171080A1665
:102FEE008A11CD270A168A1172080A168A11CD2760
:022FFE000800C9
:04400E00E2E0FFFFEE
:00000001FF
