:100000000A128A11BC2FF8007808F5007507F6006F
:100010007608F9000A128A15A2200A128A117908B4
:10002000F500F6017508F0007608F1000A128A154D
:10003000B0200A128A117208F500F6017508F00066
:100040007608F1000A128A15B0200A128A11730884
:10005000F500F6017508F0007608F1000A128A151D
:10006000B0200A128A11740884008317000803194B
:100070004D287408840083170008F500F601750800
:10008000F0007608F1000A128A15B0200A128A11CF
:100090000130F5007508F40733280A128A15A920E3
:1000A0000A128A110330F7008A30F6005530F50045
:1000B000F50B5828F60B5828F70B58285F2808002E
:1000C00083120313BD01BE013E08803AFF00803059
:1000D0007F02031D6D280C303D0203188B2883120C
:1000E00003133D08A0002007233E840083138001F2
:1000F000840A80010130BD070318BE0A0030BE0724
:100100003E08803AFF0080307F02031D89280C30B2
:100110003D02031C6F2883120313BB01BC017C0842
:10012000803AFF0080307F02031D982801307B0257
:10013000031CD12801307B0583120313A00000307B
:100140007C05A1003B08A2002207233E8400200872
:1001500083138000840A210880000230F000003000
:10016000F1007C08F3007B08F2000A128A15B02324
:100170000A128A117108FC007008FB00013083121A
:100180000313BB070318BC0A0030BC077C08803A85
:10019000FF0080307F02031DCF2801307B0203184F
:1001A0009A2883120313BF01C0014008803AFF0060
:1001B00080307F02031DDE280C303F020318272900
:1001C000831203133F08A0002007233E84008313FB
:1001D0000008A100840A0008A20021082204031DCF
:1001E000FA287A08F3007908F2000A128A15232304
:1001F0000A128A11831203133F08A0002007233E2E
:10020000840083130008A100840A0008A2002103CF
:100210002204031D14297A08F3007908F2000A1257
:100220008A15DD220A128A11013083120313BF07D7
:100230000318C00A0030C0074008803AFF00803031
:100240007F02031D25290C303F02031CE0287A0899
:10025000F3007908F2000A128A15DD220A128A11C7
:100260007A08F3007908F2000A128A15DD220A12D0
:100270008A117A08F3007908F2000A128A154122DD
:100280000800033083120313DB008A30DA00553094
:10029000D900D90B4929DA0B4929DB0B49290A1264
:1002A0008A1509210A128A110A128A153B210A129B
:1002B0008A11003083120313A3000630A2001A3003
:1002C000A1008030A0000A128A156F220A128A113A
:1002D0008312031306150D3083120313DB00AF30B6
:1002E000DA00B530D900D90B7329DA0B7329DB0B8F
:1002F00073297A2983160313250883120313D50063
:1003000083160313240883120313D400BA30D900D0
:100310005908D6000A128A1515220A128A11831664
:100320000313230883120313D50083160313220833
:1003300083120313D400B030D9005908D6000A1232
:100340008A15BD210A128A1183160313210883120C
:100350000313D50083160313200883120313D4005C
:10036000A630D9005908D6000A128A15E9210A12C6
:100370008A118312031306110A128A15C8240A125D
:100380008A1183120313D900590883160313E4005A
:10039000831203130615073083120313DB00583052
:1003A000DA005930D900D90BD329DA0BD329DB0B6A
:1003B000D3298312031306113030D9005908F200F3
:1003C0003030DA005A08F3008316031364088312EE
:1003D0000313DB005B08F40050300A128A1103207B
:1003E0000A128A11023083120313DB004530DA004F
:1003F000A930D900D90BFA29DA0BFA29DB0BFA2933
:10040000743083120313D900590883160313E200D2
:10041000303083120313D9005908F1003030DA006C
:100420005A08F2008316031362080A128A15A322DF
:100430000A128A1183160313640884006E3083172E
:100440000006031D3E2A723083120313D900590897
:1004500083160313E300303083120313D9005908C5
:10046000F1003030DA005A08F200831603136308F3
:100470000A128A15E2200A128A11212B831603130D
:1004800064088400703083170006031D0C2B640879
:10049000023E8400723000060319F42A212B0A124E
:1004A0008A1576210A128A11403083120313DB0069
:1004B0006A30DA009730D900D90B5C2ADA0B5C2A53
:1004C000DB0B5C2AC4308400E63083120313D900AE
:1004D0000408DA000A30DB0059088400831700089A
:1004E000DC00D90A5A08840083135C088000DA0A09
:1004F000DB0B6C2ACE308400DC30D9000408DA0033
:100500000A30DB005908840083170008DC00D90A90
:100510005A08840083135C088000DA0ADB0B822A05
:10052000D8308400D230D9000408DA000A30DB0069
:100530005908840083170008DC00D90A5A0884008F
:1005400083135C088000DA0ADB0B982A83160313F6
:10055000250883120313D50083160313240883127E
:100560000313D400C430D9005908D6000A128A15E2
:1005700015220A128A118316031323088312031308
:10058000D50083160313220883120313D400CE3040
:10059000D9005908D6000A128A15BD210A128A11FB
:1005A00083160313210883120313D5008316031344
:1005B000200883120313D400D830D9005908D6007C
:1005C0000A128A15E9210A128A11073083120313CD
:1005D000DB005830DA005930D900D90BED2ADA0B9C
:1005E000ED2ADB0BED2A212B831603136408033E4F
:1005F000840083170008333A0319212B763A031934
:100600004F2A0C3A0319212B073A0319212B1A3AC6
:100610000319212B212B212B8312031306150D30D7
:1006200083120313DB00AF30DA00B530D900D90BE9
:10063000172BDA0B172BDB0B172B1E2B8312031335
:100640000611073083120313DB005830DA005930EB
:10065000D900D90B292BDA0B292BDB0B292BBC2931
:10066000FF30F600760883120313BC00E901EA01AB
:1006700000306A02023003196902031808007E3054
:100680003C0603198F2B0A128A1569230A128A1154
:10069000710883120313BB007008BA003C08F6000F
:1006A0007607F7007708BC003A083B0403193F2B94
:1006B0003C080138F6007608BC003F2BA001A101E0
:1006C0000030210208300319200203188F2B0A1270
:1006D0008A1569230A128A11710883120313BB0059
:1006E0007008BA003C08F6000310760CF700770893
:1006F000BC003A083B040319822B3C088038F60002
:100700007608BC000130A0070318A10A0030A10739
:1007100000302102083003192002031C672B7E30B1
:100720003C0603195E2B0A3084000A128A15002049
:100730000A128A11F600F7010310F60DF70D3C08B6
:10074000F800F90177087906031DA82B76087806CA
:10075000031D6D2D3C08F6006708903E8400760866
:10076000831780000130E7070318E80A0030E80724
:10077000A201A3010030230208300319220203184A
:10078000E92B0A128A1569230A128A117108831249
:100790000313BB007008BA003C08F6000310760C87
:1007A000F7007708BC003A083B040319DC2B3C082F
:1007B0008038F6007608BC000130A2070318A30AAF
:1007C0000030A30700302302083003192202031C63
:1007D000C12B0B3084000A128A1500200A128A11DC
:1007E000F600F7010310F60DF70D3C08F800F901CB
:1007F00077087906031DFE2B76087806031D6D2DFC
:100800003C08F6006708903E840076088317800055
:100810000130E7070318E80A0030E807A401A50142
:100820000030250208300319240203183F2C0A1255
:100830008A1569230A128A11710883120313BB00F7
:100840007008BA003C08F6000310760CF700770831
:10085000BC003A083B040319322C3C088038F600EF
:100860007608BC000130A4070318A50A0030A507CC
:1008700000302502083003192402031C172C0C3009
:1008800084000A128A1500200A128A11F600F70164
:100890000310F60DF70D3C08F800F901770879060A
:1008A000031D542C76087806031D6D2D3C08F600B8
:1008B0006708903E84007608831780000130E707C0
:1008C0000318E80A0030E807A601A7010030270254
:1008D0000830031926020318952C0A128A15692379
:1008E0000A128A11710883120313BB007008BA0040
:1008F0003C08F6000310760CF7007708BC003A08B5
:100900003B040319882C3C088038F6007608BC00AC
:100910000130A6070318A70A0030A70700302702F6
:10092000083003192602031C6D2C0D3084000A12B6
:100930008A1500200A128A11F600F7010310F60D3D
:10094000F70D3C08F800F90177087906031DAA2C79
:1009500076087806031D6D2D3C08F6006708903E6A
:1009600084007608831780000130E7070318E80A3F
:100970000030E807A801A901003029020830031956
:1009800028020318EB2C0A128A1569230A128A110D
:10099000710883120313BB007008BA003C08F6000C
:1009A0000310760CF7007708BC003A083B040319E3
:1009B000DE2C3C088038F6007608BC000130A80721
:1009C0000318A90A0030A9070030290208300319CA
:1009D0002802031CC32C0E3084000A128A15002042
:1009E0000A128A11F600F7010310F60DF70D3C0804
:1009F000F800F90177087906031D002D76087806BE
:100A0000031D6D2D3C08F6006708903E84007608B3
:100A1000831780000130E7070318E80A0030E80771
:100A2000AA01AB0100302B02083003192A02031877
:100A3000412D0A128A1569230A128A11710883123C
:100A40000313BB007008BA003C08F6000310760CD4
:100A5000F7007708BC003A083B040319342D3C0822
:100A60008038F6007608BC000130AA070318AB0AEC
:100A70000030AB0700302B02083003192A02031C98
:100A8000192D0F3084000A128A1500200A128A11CB
:100A9000F600F7010310F60DF70D3C08F800F90118
:100AA00077087906031D562D76087806031D6D2DEF
:100AB0003C08F6006708903E8400760883178000A3
:100AC0000130E7070318E80A0030E8070130E907BA
:100AD0000318EA0A0030EA076F2DE701E801AC01CC
:100AE000AD0100302D02083003192C020318A02D8F
:100AF0000A128A1569230A128A11710883120313D4
:100B0000BB007008BA003C08F6000310760CF70032
:100B10007708BC003A083B040319932D3C08803841
:100B2000F6007608BC000130AC070318AD0A0030AF
:100B3000AD0700302D02083003192C02031C782D5C
:100B40003C08F6006708903E840076088317800012
:100B50000130E7070318E80A0030E807AE01AF01EB
:100B600000302F02083003192E020318DF2D0A125D
:100B70008A1569230A128A11710883120313BB00B4
:100B80007008BA003C08F6000310760CF7007708EE
:100B9000BC003A083B040319D22D3C088038F6000B
:100BA0007608BC000130AE070318AF0A0030AF076B
:100BB00000302F02083003192E02031CB72D03301A
:100BC00084000A128A1500200A128A11F600F70121
:100BD0000310F60DF70D3C08F800F90177087906C7
:100BE000031DF42D76087806031DB92F3C08F60086
:100BF0006708903E84007608831780000130E7077D
:100C00000318E80A0030E807B001B10100303102F2
:100C10000830031930020318352E0A128A15692389
:100C20000A128A11710883120313BB007008BA00FC
:100C30003C08F6000310760CF7007708BC003A0871
:100C40003B040319282E3C088038F6007608BC00C7
:100C50000130B0070318B10A0030B107003031028B
:100C6000083003193002031C0D2E043084000A12D0
:100C70008A1500200A128A11F600F7010310F60DFA
:100C8000F70D3C08F800F90177087906031D4A2E94
:100C900076087806031DB92F3C08F6006708903ED9
:100CA00084007608831780000130E7070318E80AFC
:100CB0000030E807B201B3010030330208300319F5
:100CC000320203188B2E0A128A1569230A128A111E
:100CD000710883120313BB007008BA003C08F600C9
:100CE0000310760CF7007708BC003A083B040319A0
:100CF0007E2E3C088038F6007608BC000130B20732
:100D00000318B30A0030B307003033020830031968
:100D10003202031C632E053084000A128A1500205B
:100D20000A128A11F600F7010310F60DF70D3C08C0
:100D3000F800F90177087906031DA02E76087806D9
:100D4000031DB92F3C08F6006708903E8400760822
:100D5000831780000130E7070318E80A0030E8072E
:100D6000B401B5010030350208300319340203180C
:100D7000E12E0A128A1569230A128A117108831258
:100D80000313BB007008BA003C08F6000310760C91
:100D9000F7007708BC003A083B040319D42E3C083E
:100DA0008038F6007608BC000130B4070318B50A95
:100DB0000030B50700303502083003193402031C37
:100DC000B92E063084000A128A1500200A128A11F0
:100DD000F600F7010310F60DF70D3C08F800F901D5
:100DE00077087906031DF62E76087806031DB92FBD
:100DF0003C08F6006708903E840076088317800060
:100E00000130E7070318E80A0030E807B601B70128
:100E1000003037020830031936020318372F0A1240
:100E20008A1569230A128A11710883120313BB0001
:100E30007008BA003C08F6000310760CF70077083B
:100E4000BC003A083B0403192A2F3C088038F600FE
:100E50007608BC000130B6070318B70A0030B707A0
:100E600000303702083003193602031C0F2F0730F9
:100E700084000A128A1500200A128A11F600F7016E
:100E80000310F60DF70D3C08F800F9017708790614
:100E9000031D4C2F76087806031DB92F3C08F60079
:100EA0006708903E84007608831780000130E707CA
:100EB0000318E80A0030E807B801B9010030390228
:100EC00008300319380203188D2F0A128A15692376
:100ED0000A128A11710883120313BB007008BA004A
:100EE0003C08F6000310760CF7007708BC003A08BF
:100EF0003B040319802F3C088038F6007608BC00BC
:100F00000130B8070318B90A0030B90700303902B8
:100F1000083003193802031C652F083084000A12B8
:100F20008A1500200A128A11F600F7010310F60D47
:100F3000F70D3C08F800F90177087906031DA22F88
:100F400076087806031DB92F3C08F6006708903E26
:100F500084007608831780000130E7070318E80A49
:100F60000030E8070130E9070318EA0A0030EA0711
:100F7000382BE701E801362B8317F030FD000930EC
:100F8000FE005830FF00D23084000A128A15D520A6
:100F90000A128A112930FD000930FE002230FF00BC
:100FA000103084000A128A15D5200A128A11831380
:100FB000C430FD000930FE009930FF00A0308400ED
:100FC0000A128A15D5200A128A11831790308400DC
:100FD000D2300A128A15C0200A128A11831603130E
:100FE000E501E601E701E801E90183135D308400D2
:100FF0006F300A128A15C02083010A128A11412912
:1010000008308A000408840A82070034203400343F
:101010004A34513431345A344834583400344A3420
:0C10200051343134593443345A34003414
:101144000A128A15C82083160313111408000A1200
:101154008A15C82083160313111508000A128A156C
:10116400C82070088312031393000800F000831250
:1011740003130C1EB928700899000800640080014C
:10118400840A0406031900340406C12883160313D1
:101194001419C82811081F3903190800C8287E0823
:1011A4008A007F088200D1200A128A158000840AEE
:1011B40004087D0603190034FF0A0319FE0AD52822
:1011C400F30073080A128A15B8200A128A157108E6
:1011D4000A128A15B8200A128A1572080A128A1588
:1011E400B8200800F001F1017108803AFF00803056
:1011F4007F02031DFF280530700203180800000059
:101204000130F0070318F10A0030F107F6280A301C
:1012140083160313990018111812831203139817D5
:10122400181698128C12831603130C128C161813AA
:1012340083120313181383160313981298160800C5
:10124400483465346C346C346F342134203449347C
:1012540027346D3420344F34723469346734613444
:101264006D34693453346134743431342134213469
:1012740000348312031385018601870188018901E3
:1012840083160317880189018030831603138500B0
:101294002030860098308700880189018312031367
:1012A4008501860187018801890108000234003420
:1012B400043400340834003408340034073400346F
:1012C400003400340134003407340034043400346E
:1012D4000734003408340034073400340334003451
:1012E40000340034003400348312031306168514CA
:1012F4004030F2006A30F1009730F000F00B8029A2
:10130400F10B8029F20B802987298312031306121B
:1013140085100730F2005830F1005930F000F00B1E
:101324009129F10B9129F20B912998290800003495
:101334000A34A034003400340A340234003404344F
:1013440000340834003408340034073400340034E2
:1013540000340134003407340034043400340734D6
:1013640000340834003407340034033400340034C7
:10137400003400340034023083120313D7000030E9
:10138400D8005808F5005708F4000A128A152D25CC
:101394000A128A15831203135808FA005708F90031
:1013A4005508FC005408FB000A128A1160200A1236
:1013B4008A15831203135808FA005708F9005608CF
:1013C400FD007D08FB000A128A152C260800033054
:1013D40083120313D7000030D8005808F5005708CB
:1013E400F4000A128A152D250A128A158312031392
:1013F4005808FA005708F9005508FC005408FB0087
:101404000A128A1160200A128A15831203135808DB
:10141400FA005708F9005608FD007D08FB000A127F
:101424008A152C260800013083120313D7000030DC
:10143400D8005808F5005708F4000A128A152D251B
:101444000A128A15831203135808FA005708F90080
:101454005508FC005408FB000A128A1160200A1285
:101464008A15831203135808FA005708F90056081E
:10147400FD007D08FB000A128A152C260800720361
:101484007304031D502A8312031385160A128A1546
:10149400F4200A128A15831203138512023072068D
:1014A4007304031D602A8312031308140A128A1595
:1014B400F4200A128A1583120313081003307206EB
:1014C4007304031D08008312031305160A128A15F8
:1014D400F420831203130512080028308312031327
:1014E4009400831603139101831203132008A400AC
:1014F4002108A5002208A6002308A7000230031033
:10150400A40DA50DA60DA70DFF3E031D812A2708D6
:10151400F3002608F2002508F1002408F00000304A
:10152400F7009830F6009630F5008030F4000A1287
:101534008A1509247008FF3E83160313930094014F
:101544000800F500831203138716A330F400553006
:10155400F300F30BAB2AF40BAB2A75080A128A15B5
:10156400B8200A128A15A330F4005530F300F30BA7
:10157400B92AF40BB92A71080A128A15B8200A127A
:101584008A15A330F4005530F300F30BC72AF40B8B
:10159400C72A72080A128A15B8200A128A15A330BB
:1015A400F4005530F300F30BD52AF40BD52A83123B
:1015B40003138712080072037304031DF42A8312B1
:1015C400031309140A128A15F4200A128A158312C5
:1015D400031389140A128A15F4200A128A15831235
:1015E40003138910023072067304031D0C2B83123B
:1015F400031388140A128A15F4200A128A15831216
:10160400031308150A128A15F4200A128A15831284
:1016140003130811033072067304031D08008312B8
:10162400031385150A128A15F4200A128A158312E7
:10163400031305150A128A15F420831203130511E6
:10164400080072037304031D3A2B83120313091059
:101654000A128A15F4200A128A15831203138914B4
:101664000A128A15F4200A128A15831203138910A8
:10167400023072067304031D522B83120313881065
:101684000A128A15F4200A128A1583120313081504
:101694000A128A15F4200A128A15831203130811F8
:1016A400033072067304031D0800831203138511AB
:1016B4000A128A15F4200A128A15831203130515D7
:1016C4000A128A15F420831203130511080003106B
:1016D40083120313861A0314003003180130F20036
:1016E400F3017208E5007308E600F401F501003027
:1016F40075023E30031974020318AB2B0310861ACB
:101704000314003003180130F200F3016608730675
:10171400031D8E2B6508720603199E2BC730F20039
:10172400932BF20B922B962B972B043083120313DB
:101734008706F001F10108000130F4070318F50AE7
:101744000030F507003075023E3003197402031CA3
:10175400812B0130F0000030F1000800F601F11F88
:10176400BA2BF009F109F00A0319F10AF601F60A95
:10177400F31FC52BF209F309F20A0319F30A013026
:10178400F4007408F606F701F801700871040319EF
:10179400FC2BF501F50AF11BDB2B01300310F00DD6
:1017A400F10DFF3E031DD02B0130F4007408F50742
:1017B400CD2B01300310F70DF80DFF3E031DDC2B7C
:1017C40071087302031DE82B70087202031CF12BCD
:1017D4007008F2027108031CF303F302771401305A
:1017E4000310F10CF00CFF3E031DF22B0130F50247
:1017F400031DDB2B76080319042CF709F809F70AF3
:101804000319F80A7808F1007708F000080000309E
:10181400FC000030FB000030FA000030F9007308CF
:1018240072047104700403195E2CFD01FD0AF31B9C
:10183400292C0130F8000310F00DF10DF20DF30D19
:10184400F80B1D2C0130F8007808FD07192C013025
:10185400F8000310F90DFA0DFB0DFC0DF80B2B2C01
:1018640073087702031D402C72087602031D402C76
:1018740071087502031D402C70087402031C512C5E
:101884007008F4027108031C710FF5027208031C3E
:10189400720FF6027308031C730FF70279140130F8
:1018A4000310F30CF20CF10CF00CFF3E031D522C50
:1018B4000130FD02031D292C7C08F3007B08F20093
:1018C4007A08F1007908F000080083120313A601D6
:1018D400A201A301A001A101A401A501023069068E
:1018E4006A04031D08000A128A1569230A128A155C
:1018F400710883120313A5007008A40005302206A2
:101904002304031D932C24032504031D902C013070
:10191400E9070318EA0A0030EA070800A201A30154
:10192400702C2608F6000310760CF7007708A60042
:1019340024082504031DA12CA201A301AC2C260814
:101944008038F6007608A6000130A2070318A30A1F
:101954000030A3070130A0070318A10A0030A10733
:10196400083020062104031D702CA001A1012608C3
:10197400F6006708903E84007608831780000130E3
:10198400E7070318E80A0030E807702C0A128A11E6
:1019940030230A128A150A128A1567240A128A1534
:1019A4000A128A15AA250A128A15710883120313CA
:1019B400BE007008BD003D033E04031D272DBF017A
:1019C400C001013084000A128A1500200A128A1507
:1019D400FA000A128A1500200A128A15FB007B08F5
:1019E4004002031DF72C7A083F020318212D3F08FB
:1019F400143E903E840083170008FA003F08C23E5C
:101A040084007A0880000130BF070318C00A003040
:101A1400C007013084000A128A1500200A128A15B0
:101A2400FA000A128A1500200A128A15FB007B08A4
:101A34004002031D1F2D7A083F02031CF92CE70105
:101A4400E801E901EA01C2300800E701E801E9011F
:101A5400EA01003008007508F3007408F2000A1265
:101A64008A1523230A128A157508F3007408F200F4
:101A74000A128A1523230A128A157508F3007408BA
:101A8400F2000A128A1523230A128A157508F30034
:101A94007408F2000A128A15DD220A128A157508E2
:101AA400F3007408F2000A128A15DD220A128A155C
:101AB4007508F3007408F2000A128A1523230A1227
:101AC4008A157508F3007408F2000A128A15232394
:101AD4000A128A157508F3007408F2000A128A15AE
:101AE40023230A128A157508F3007408F2000A12F7
:101AF4008A1523230A128A157508F3007408F20064
:101B04000A128A1523230A128A157508F300740829
:101B1400F2000A128A15DD220A128A157508F300EA
:101B24007408F2000A128A1523230A128A1575080A
:101B3400F3007408F2000A128A1523230A128A1584
:101B44007508F3007408F2000A128A15412208008D
:101B5400FF3083120313EE00F2007208ED0003302D
:101B640069066A04031D0800F501F6016708FE3ED4
:101B7400F20068080318013EFF3EF3007308760282
:101B8400031DC62D720875020318112E7508903EA8
:101B9400840083170008F2007208F900F701F801C5
:101BA4000030780208300319770203180A2E7908E6
:101BB4000139F2007208F4000310EE0CED0C013050
:101BC400831203130305F20074087206F30073030F
:101BD400031DF62D6E08843AF2007208EE006D08BB
:101BE400083AF2007208ED007908F2000310720C52
:101BF400F3007308F9000130F7070318F80A0030FE
:101C0400F80700307802083003197702031CD92D35
:101C14000130F5070318F60A0030F607B82DED0970
:101C2400EE096708FE3E903E8400831700086D06A7
:101C3400031D292E6708FF3E903E840000086E06AF
:101C4400031D292E0130F0000030F1000800F001DE
:101C5400F101080083120313CC01CD01CE01CF01A1
:101C64004F08803AFF0080307F02031D3B2E113065
:101C74004E020318592E831203134E08A0002007A6
:101C8400283E840083138001840A80010130CE073A
:101C94000318CF0A0030CF074F08803AFF00803086
:101CA4007F02031D572E11304E02031C3D2E83125A
:101CB4000313CA01CB014B08803AFF0080307F0236
:101CC400031D662E11304A020318902F831203134A
:101CD400D201D3015308803AFF0080307F02031DF4
:101CE400752E0530520203187D2F831203135208F8
:101CF400A00020077B07A1002108840083130008AB
:101D0400A200840A0008A3002218DE2E0430520622
:101D14005304031DBA2E0230F0000030F1005208C3
:101D2400A00020077B07A100210884000008F2001E
:101D3400840A0008F3000A128A15B0230A128A15CD
:101D4400831203135208A20022077B07A30023086F
:101D54008400700883138000840A710880004C0892
:101D6400A0002007283E84008001840A80011F2FE0
:101D74000230F0000030F1005208A00020077B0779
:101D8400A100210884000008F200840A0008F3007E
:101D94000A128A15B0230A128A15831203135208F1
:101DA400A20022077B07A300230884007008831382
:101DB4008000840A71086B2F5208A00020077B075B
:101DC400A100210884000008A200840A0008A300DE
:101DD400221C6C2F043052065304031D262F02309C
:101DE400F0000030F1005208A00020077B07A1009A
:101DF400210884000008F200840A0008F3000A1293
:101E04008A15B0230A128A15831203135208A200FA
:101E140022077B07A3002308840070088313800033
:101E2400840A710880004C08A0002007283E840022
:101E340001308000840A003080000130CC07031890
:101E4400CD0A0030CD076C2F0230F0000030F100D5
:101E54005208A00020077B07A10021088400000885
:101E6400F200840A0008F3000A128A15B0230A1249
:101E74008A15831203135208A20022077B07A300CA
:101E840023088400700883138000840A710880008A
:101E94005208A0002007023E7B07A100210884000D
:101EA4000008A200840A0008A30022080A3EA40035
:101EB40023080318013E003EA5005208A600260789
:101EC400023E7B07A7002708840024088000840AB8
:101ED400250880000130D2070318D30A0030D30745
:101EE4005308803AFF0080307F02031D7B2F0530AA
:101EF4005202031C772E013083120313CA070318FE
:101F0400CB0A0030CB074B08803AFF0080307F02B9
:101F1400031D8E2F11304A02031C682E83120313F3
:101F2400D001D1015108803AFF0080307F02031DA7
:101F34009D2F113050020318E62F8312031350080B
:101F4400A0002007283E840083130008A100840A0F
:101F54000008A20021082204031DB92F7A08F30007
:101F64007908F2000A128A1523230A128A158312A9
:101F740003135008A0002007283E840083130008A0
:101F8400A100840A0008A20021032204031DD32F08
:101F94007A08F3007908F2000A128A15DD220A127F
:101FA4008A15013083120313D0070318D10A0030B5
:101FB400D1075108803AFF0080307F02031DE42FCF
:101FC40011305002031C9F2F7A08F3007908F200A5
:101FD4000A128A15DD220A128A157A08F300790892
:101FE400F2000A128A1523230A128A157A08F300CA
:0C1FF4007908F2000A128A154122080048
:04400E00E2E3FFFEEC
:00000001FF
