:060000000A128A11B32F61
:10000E0083120313061685144030F2006A30F10095
:10001E009730F000F00B1128F10B1128F20B11287C
:10002E00182883120313061285100730F200583079
:10003E00F1005930F000F00B2228F10B2228F20BC0
:10004E00222829280800FF3083120313EF00F20044
:10005E007208EE0003306A066B04031D0800F501FA
:10006E00F6016808FE3EF20069080318013EFF3EE5
:10007E00F30073087602031D4628720875020318F2
:10008E0091287508903E840083170008F2007208CC
:10009E00F900F701F80100307802083003197702F1
:1000AE0003188A2879080139F2007208F400031047
:1000BE00EF0CEE0C0130831203130305F2007408EB
:1000CE007206F3007303031D76286F08843AF2005C
:1000DE007208EF006E08083AF2007208EE00790816
:1000EE00F2000310720CF3007308F9000130F707E9
:1000FE000318F80A0030F8070030780208300319A8
:10010E007702031C59280130F5070318F60A003050
:10011E00F6073828EE09EF096808FE3E903E840087
:10012E00831700086E06031DA9286808FF3E903E3F
:10013E00840000086F06031DA9280130F00000306E
:10014E00F1000800F001F101080083120313D4013D
:10015E00D501D601D7015708803AFF0080307F02C3
:10016E00031DBB28113056020318D928831203131E
:10017E005608A0002007303E840083138001840AB5
:10018E0080010130D6070318D70A0030D707570869
:10019E00803AFF0080307F02031DD72811305602AF
:1001AE00031CBD2883120313D201D3015308803AD6
:1001BE00FF0080307F02031DE62811305202031823
:1001CE00B72A83120313DA01DB015B08803AFF00C2
:1001DE0080307F02031DF52805305A020318A42A29
:1001EE00831203135B08A1005A08A0000310A00D90
:1001FE00A10D20087B07A20021080318210A7C0705
:10020E00A300220884008317231C83130008A40074
:10021E00840A0008A50024189D2904305A065B04A0
:10022E00031D60290230F0000030F1005B08A100D0
:10023E005A08A0000310A00DA10D20087B07A200F4
:10024E0021080318210A7C07A300220884008317C3
:10025E00231C83130008F200840A0008F3000A121C
:10026E008A15F3220A128A11831203135B08A50062
:10027E005A08A4000310A40DA50D24087B07A600A0
:10028E0025080318250A7C07A70026088400831773
:10029E00271C831370088000840A7108800054089C
:1002AE00A0002007303E840083138001840A800161
:1002BE00052A0230F0000030F1005B08A1005A0858
:1002CE00A0000310A00DA10D20087B07A20021089D
:1002DE000318210A7C07A300220884008317231C1D
:1002EE0083130008F200840A0008F3000A128A152C
:1002FE00F3220A128A11831203135B08A5005A080F
:10030E00A4000310A40DA50D24087B07A600250844
:10031E000318250A7C07A700260884008317271CCC
:10032E00831370088000840A7108922A5B08A1006A
:10033E005A08A0000310A00DA10D20087B07A200F3
:10034E0021080318210A7C07A300220884008317C2
:10035E00231C83130008A400840A0008A500241C93
:10036E00932A04305A065B04031D0C2A0230F00057
:10037E000030F1005B08A1005A08A0000310A00D88
:10038E00A10D20087B07A20021080318210A7C0773
:10039E00A300220884008317231C83130008F20095
:1003AE00840A0008F3000A128A15F3220A128A112F
:1003BE00831203135B08A5005A08A4000310A40DB2
:1003CE00A50D24087B07A60025080318250A7C071F
:1003DE00A700260884008317271C8313700880004B
:1003EE00840A710880005408A0002007303E840063
:1003FE00013083138000840A003080000130D4075E
:10040E000318D50A0030D507932A0230F0000030C9
:10041E00F1005B08A1005A08A0000310A00DA10D69
:10042E0020087B07A20021080318210A7C07A300DD
:10043E00220884008317231C83130008F200840A09
:10044E000008F3000A128A15F3220A128A11831287
:10045E0003135B08A5005A08A4000310A40DA50DF4
:10046E0024087B07A60025080318250A7C07A70089
:10047E00260884008317271C831370088000840AC3
:10048E00710880005B08A1005A08A0000310A00D9F
:10049E00A10D2008023EA20021080318013E003ED5
:1004AE00A30022087B07A40023080318230A7C0755
:1004BE00A500240884008317251C83130008A600BA
:1004CE00840A0008A70026080A3EA8002708031879
:1004DE00013E003EA9005B08AB005A08AA000310BB
:1004EE00AA0DAB0D2A08023EAC002B080318013EE4
:1004FE00003EAD002C087B07AE002D0803182D0A18
:10050E007C07AF002E08840083172F1C8313280846
:10051E008000840A290880000130DA070318DB0AFC
:10052E000030DB075B08803AFF0080307F02031D3E
:10053E00A22A05305A02031CF72801308312031336
:10054E00D2070318D30A0030D3075308803AFF00AE
:10055E0080307F02031DB52A11305202031CE82899
:10056E0083120313D801D9015908803AFF00803055
:10057E007F02031DC42A1130580203180D2B83125B
:10058E0003135808A0002007303E84008313000890
:10059E00A100840A0008A20021082204031DE02AFB
:1005AE007A08F3007908F2000A128A1561220A12FB
:1005BE008A11831203135808A0002007303E8400CE
:1005CE0083130008A100840A0008A200210322045C
:1005DE00031DFA2A7A08F3007908F2000A128A1526
:1005EE001B220A128A11013083120313D807031833
:1005FE00D90A0030D9075908803AFF0080307F02AF
:10060E00031D0B2B11305802031CC62A7A08F30067
:10061E007908F2000A128A151B220A128A117A0828
:10062E00F3007908F2000A128A1561220A128A1161
:10063E007A08F3007908F2000A128A157F21080061
:10064E00FF30F600760883120313BC00EA01EB01BB
:10065E0000306B02023003196A02031808007E3064
:10066E003C060319862B0A128A15A7220A128A1132
:10067E00710883120313BB007008BA003C08F60021
:10068E007607F7007708BC003A083B040319362BAF
:10069E003C080138F6007608BC00362BA001A101FB
:1006AE00003021020830031920020318862B0A128B
:1006BE008A15A7220A128A11710883120313BB002E
:1006CE007008BA003C08F6000310760CF7007708A5
:1006DE00BC003A083B040319792B3C088038F6001D
:1006EE007608BC000130A0070318A10A0030A1074C
:1006FE0000302102083003192002031C5E2B7E30CD
:10070E003C060319552B0A3084000A128A15002064
:10071E000A128A11F600F7010310F60DF70D3C08C8
:10072E00F800F90177087906031D9F2B76087806E5
:10073E00031D642D3C08F6006808903E8400760880
:10074E00831780000130E8070318E90A0030E90733
:10075E00A201A3010030230208300319220203185C
:10076E00E02B0A128A15A7220A128A117108831227
:10077E000313BB007008BA003C08F6000310760C99
:10078E00F7007708BC003A083B040319D32B3C084A
:10079E008038F6007608BC000130A2070318A30AC1
:1007AE000030A30700302302083003192202031C75
:1007BE00B82B0B3084000A128A1500200A128A11F7
:1007CE00F600F7010310F60DF70D3C08F800F901DD
:1007DE0077087906031DF52B76087806031D642D20
:1007EE003C08F6006808903E840076088317800067
:1007FE000130E8070318E90A0030E907A401A50152
:10080E00003025020830031924020318362C0A1270
:10081E008A15A7220A128A11710883120313BB00CC
:10082E007008BA003C08F6000310760CF700770843
:10083E00BC003A083B040319292C3C088038F6000A
:10084E007608BC000130A4070318A50A0030A507DE
:10085E0000302502083003192402031C0E2C0C3024
:10086E0084000A128A1500200A128A11F600F70176
:10087E000310F60DF70D3C08F800F901770879061C
:10088E00031D4B2C76087806031D642D3C08F600DC
:10089E006808903E84007608831780000130E807D0
:1008AE000318E90A0030E907A601A7010030270264
:1008BE0008300319260203188C2C0A128A15A72257
:1008CE000A128A11710883120313BB007008BA0052
:1008DE003C08F6000310760CF7007708BC003A08C7
:1008EE003B0403197F2C3C088038F6007608BC00C8
:1008FE000130A6070318A70A0030A7070030270209
:10090E00083003192602031C642C0D3084000A12D1
:10091E008A1500200A128A11F600F7010310F60D4F
:10092E00F70D3C08F800F90177087906031DA12C94
:10093E0076087806031D642D3C08F6006808903E84
:10094E0084007608831780000130E8070318E90A4F
:10095E000030E907A801A901003029020830031967
:10096E0028020318E22C0A128A15A7220A128A11EB
:10097E00710883120313BB007008BA003C08F6001E
:10098E000310760CF7007708BC003A083B040319F5
:10099E00D52C3C088038F6007608BC000130A8073C
:1009AE000318A90A0030A9070030290208300319DC
:1009BE002802031CBA2C0E3084000A128A1500205D
:1009CE000A128A11F600F7010310F60DF70D3C0816
:1009DE00F800F90177087906031DF72C76087806DA
:1009EE00031D642D3C08F6006808903E84007608CE
:1009FE00831780000130E8070318E90A0030E90781
:100A0E00AA01AB0100302B02083003192A02031889
:100A1E00382D0A128A15A7220A128A11710883121A
:100A2E000313BB007008BA003C08F6000310760CE6
:100A3E00F7007708BC003A083B0403192B2D3C083D
:100A4E008038F6007608BC000130AA070318AB0AFE
:100A5E000030AB0700302B02083003192A02031CAA
:100A6E00102D0F3084000A128A1500200A128A11E6
:100A7E00F600F7010310F60DF70D3C08F800F9012A
:100A8E0077087906031D4D2D76087806031D642D13
:100A9E003C08F6006808903E8400760883178000B4
:100AAE000130E8070318E90A0030E9070130EA07C8
:100ABE000318EB0A0030EB07662DE801E901AC01E3
:100ACE00AD0100302D02083003192C020318972DAA
:100ADE000A128A15A7220A128A11710883120313A9
:100AEE00BB007008BA003C08F6000310760CF70045
:100AFE007708BC003A083B0403198A2D3C0880385D
:100B0E00F6007608BC000130AC070318AD0A0030C1
:100B1E00AD0700302D02083003192C02031C6F2D77
:100B2E003C08F6006808903E840076088317800023
:100B3E000130E8070318E90A0030E907AE01AF01FA
:100B4E0000302F02083003192E020318D62D0A1278
:100B5E008A15A7220A128A11710883120313BB0089
:100B6E007008BA003C08F6000310760CF700770800
:100B7E00BC003A083B040319C92D3C088038F60026
:100B8E007608BC000130AE070318AF0A0030AF077D
:100B9E0000302F02083003192E02031CAE2D033035
:100BAE0084000A128A1500200A128A11F600F70133
:100BBE000310F60DF70D3C08F800F90177087906D9
:100BCE00031DEB2D76087806031DB02F3C08F600AA
:100BDE006808903E84007608831780000130E8078D
:100BEE000318E90A0030E907B001B1010030310203
:100BFE0008300319300203182C2E0A128A15A72268
:100C0E000A128A11710883120313BB007008BA000E
:100C1E003C08F6000310760CF7007708BC003A0883
:100C2E003B0403191F2E3C088038F6007608BC00E2
:100C3E000130B0070318B10A0030B107003031029D
:100C4E00083003193002031C042E043084000A12EB
:100C5E008A1500200A128A11F600F7010310F60D0C
:100C6E00F70D3C08F800F90177087906031D412EAF
:100C7E0076087806031DB02F3C08F6006808903EF3
:100C8E0084007608831780000130E8070318E90A0C
:100C9E000030E907B201B301003033020830031906
:100CAE0032020318822E0A128A15A7220A128A11FC
:100CBE00710883120313BB007008BA003C08F600DB
:100CCE000310760CF7007708BC003A083B040319B2
:100CDE00752E3C088038F6007608BC000130B2074D
:100CEE000318B30A0030B30700303302083003197B
:100CFE003202031C5A2E053084000A128A15002077
:100D0E000A128A11F600F7010310F60DF70D3C08D2
:100D1E00F800F90177087906031D972E76087806F4
:100D2E00031DB02F3C08F6006808903E840076083C
:100D3E00831780000130E8070318E90A0030E9073D
:100D4E00B401B5010030350208300319340203181E
:100D5E00D82E0A128A15A7220A128A117108831236
:100D6E000313BB007008BA003C08F6000310760CA3
:100D7E00F7007708BC003A083B040319CB2E3C0859
:100D8E008038F6007608BC000130B4070318B50AA7
:100D9E000030B50700303502083003193402031C49
:100DAE00B02E063084000A128A1500200A128A110B
:100DBE00F600F7010310F60DF70D3C08F800F901E7
:100DCE0077087906031DED2E76087806031DB02FE1
:100DDE003C08F6006808903E840076088317800071
:100DEE000130E8070318E90A0030E907B601B70138
:100DFE000030370208300319360203182E2F0A125C
:100E0E008A15A7220A128A11710883120313BB00D6
:100E1E007008BA003C08F6000310760CF70077084D
:100E2E00BC003A083B040319212F3C088038F60019
:100E3E007608BC000130B6070318B70A0030B707B2
:100E4E0000303702083003193602031C062F073014
:100E5E0084000A128A1500200A128A11F600F70180
:100E6E000310F60DF70D3C08F800F9017708790626
:100E7E00031D432F76087806031DB02F3C08F6009D
:100E8E006808903E84007608831780000130E807DA
:100E9E000318E90A0030E907B801B9010030390238
:100EAE000830031938020318842F0A128A15A72254
:100EBE000A128A11710883120313BB007008BA005C
:100ECE003C08F6000310760CF7007708BC003A08D1
:100EDE003B040319772F3C088038F6007608BC00D7
:100EEE000130B8070318B90A0030B90700303902CB
:100EFE00083003193802031C5C2F083084000A12D4
:100F0E008A1500200A128A11F600F7010310F60D59
:100F1E00F70D3C08F800F90177087906031D992FA3
:100F2E0076087806031DB02F3C08F6006808903E40
:100F3E0084007608831780000130E8070318E90A59
:100F4E000030E9070130EA070318EB0A0030EB071F
:100F5E002F2BE801E9012D2B8317EA30FD00083015
:100F6E00FE00D330FF00C23084000A128A153620EC
:100F7E000A128A115930FD000830FE008330FF003E
:100F8E00403084000A128A1536200A128A11831301
:100F9E00DB30FD000830FE009C30FF00C1308400C5
:100FAE000A128A1536200A128A118317903084008D
:100FBE00C2300A128A1521200A128A1110308400BA
:100FCE0040300A128A1521200A128A118313DB304F
:100FDE008400E8300A128A1521200A128A1166301E
:100FEE00840070300A128A15212083010A128A1594
:100FFE002B2E08308A000408840A8207003420341D
:10100E0000344A34513431345A344834583400346C
:0E101E004A3451343134593443345A34003496
:10103200F000831203130C1E1A287008990008008E
:1010420064008001840A040603190034040622287D
:10105200831603131419292811081F3903190800CC
:1010620029287E088A007F08820032200A128A1507
:101072008000840A04087D0603190034FF0A03195C
:10108200FE0A3628F30073080A128A1519200A127A
:101092008A1571080A128A1519200A128A1572080D
:1010A2000A128A1519200800F001F1017108803A2C
:1010B200FF0080307F02031D602805307002031894
:1010C200080000000130F0070318F10A0030F107B0
:1010D20057280A3083160313990018111812831225
:1010E20003139817181698128C12831603130C12F6
:1010F2008C161813831203131813831603139812F2
:1011020098160800483465346C346C346F342134DA
:101112002034493427346D3420344F3472346934E6
:10112200673461346D346934533461347434313426
:1011320021342134003400340A34A0340034003421
:101142000A340034003401340034073400340434E7
:1011520000340734003408340034073400340334D4
:101162000034003400340034003483120313850148
:101172008601870188018901831603178801890185
:101182008030831603138500203086009830870054
:101192008801890183120313850186018701880171
:1011A2008901080002340034043400340834003465
:1011B200083400340734003400340034013400347D
:1011C2000734003404340034073400340834003463
:1011D2000734003403340034003400340034003463
:1011E2000234003404340034083400340834003447
:1011F20007340034023083120313E0000030E100B0
:101202006108F5006008F4000A128A15CD240A125A
:101212008A15831203136108FA006008F9005D0859
:10122200FC005C08FB000A128A154A250A128A157C
:10123200831203136108FA006008F9005E08FB00DC
:101242005F08FC000A128A11AC20080003308312E6
:101252000313E0000030E1006108F5006008F400CB
:101262000A128A15CD240A128A1583120313610801
:10127200FA006008F9005D08FC005C08FB000A1235
:101282008A154A250A128A15831203136108FA0085
:101292006008F9005E08FB005F08FC000A128A1170
:1012A200AC200800013083120313E0000030E1009B
:1012B2006108F5006008F4000A128A15CD240A12AA
:1012C2008A15831203136108FA006008F9005D08A9
:1012D200FC005C08FB000A128A154A250A128A15CC
:1012E200831203136108FA006008F9005E08FB002C
:1012F2005F08FC000A128A11AC2008007203730412
:10130200031D8E298312031385160A128A1555208E
:101312000A128A15831203138512023072067304AD
:10132200031D9E298312031308140A128A155520DD
:101332000A128A158312031308100330720673040B
:10134200031D08008312031305160A128A1555207D
:10135200831203130512080028308312031394002A
:10136200831603139101831203132008A40021089A
:10137200A5002208A6002308A70002300310A40D2E
:10138200A50DA60DA70DFF3E031DBF292708F300DB
:101392002608F2002508F1002408F0000030F700CA
:1013A2009830F6009630F5008030F4000A128A1563
:1013B200A9237008FF3E83160313930094010800CB
:1013C200F500831203138716A330F4005530F3009F
:1013D200F30BE929F40BE92975080A128A15192079
:1013E2000A128A15A330F4005530F300F30BF729E3
:1013F200F40BF72971080A128A1519200A128A15A4
:10140200A330F4005530F300F30B052AF40B052A40
:1014120072080A128A1519200A128A15A330F400DA
:101422005530F300F30B132AF40B132A8312031320
:101432008712080072037304031D322A83120313F6
:1014420009140A128A1555200A128A1583120313E7
:1014520089140A128A1555200A128A158312031357
:101462008910023072067304031D4A2A8312031381
:1014720088140A128A1555200A128A158312031338
:1014820008150A128A1555200A128A1583120313A7
:101492000811033072067304031D0800831203133C
:1014A20085150A128A1555200A128A15831203130A
:1014B20005150A128A155520831203130511080017
:1014C20072037304031D782A8312031309100A128C
:1014D2008A1555200A128A158312031389140A12D7
:1014E2008A1555200A128A158312031389100230B5
:1014F20072067304031D902A8312031388100A12C2
:101502008A1555200A128A158312031308150A1226
:101512008A1555200A128A15831203130811033003
:1015220072067304031D08008312031385110A1245
:101532008A1555200A128A158312031305150A12F9
:101542008A15552083120313051108000310831214
:101552000313861A0314003003180130F200F3015A
:10156200720883160313E6007308E700F401F5011D
:10157200003075023E30031974020318EE2A03107C
:101582008312861A0314003003180130F200F301AB
:101592008316031367087306031DD12A66087206B1
:1015A2000319E12AC730F200D62AF20BD52AD92A2A
:1015B200DA2A0430831203138706F001F1010800CE
:1015C2000130F4070318F50A0030F5070030750200
:1015D2003E3003197402031CC12A0130F0000030AE
:1015E200F1000800F601F11FFD2AF009F109F00AE5
:1015F2000319F10AF601F60AF31F082BF209F3099F
:10160200F20A0319F30A0130F4007408F606F7012E
:10161200F8017008710403193F2BF501F50AF11B5B
:101622001E2B01300310F00DF10DFF3E031D132B95
:101632000130F4007408F507102B01300310F70D88
:10164200F80DFF3E031D1F2B71087302031D2B2B88
:1016520070087202031C342B7008F2027108031C1A
:10166200F303F302771401300310F10CF00CFF3E88
:10167200031D352B0130F502031D1E2B76080319BD
:10168200472BF709F809F70A0319F80A7808F10055
:101692007708F0000800F8007808F5007507F600F2
:1016A2007608F9000A168A11EA270A128A157908B9
:1016B200F500F6017508F0007608F1000A168A11A5
:1016C200F8270A128A157208F500F6017508F0006B
:1016D2007608F1000A168A11F8270A128A15730889
:1016E200F500F6017508F0007608F1000A168A1175
:1016F200F8270A128A157408840083170008031950
:10170200962B7408840083170008F500F60175080B
:10171200F0007608F1000A168A11F8270A128A15D3
:101722000130F5007508F4077C2B0A168A11F1279F
:101732000A128A150330F7008A30F6005530F50098
:10174200F50BA12BF60BA12BF70BA12BA82B080055
:101752000030FC000030FB000030FA000030F900DD
:1017620073087204710470040319FE2BFD01FD0A53
:10177200F31BC92B0130F8000310F00DF10DF20D2F
:10178200F30DF80BBD2B0130F8007808FD07B92BDB
:101792000130F8000310F90DFA0DFB0DFC0DF80BEA
:1017A200CB2B73087702031DE02B72087602031D10
:1017B200E02B71087502031DE02B70087402031CF4
:1017C200F12B7008F4027108031C710FF502720804
:1017D200031C720FF6027308031C730FF7027914CD
:1017E20001300310F30CF20CF10CF00CFF3E031D60
:1017F200F22B0130FD02031DC92B7C08F3007B088C
:10180200F2007A08F1007908F0000800831203134D
:10181200A601A201A301A001A101A401A501023018
:101822006A066B04031D08000A128A15A7220A120F
:101832008A15710883120313A5007008A4000530ED
:1018420022062304031D332C24032504031D302CFC
:101852000130EA070318EB0A0030EB070800A20187
:10186200A301102C2608F6000310760CF700770867
:10187200A60024082504031D412CA201A3014C2C1F
:1018820026088038F6007608A6000130A207031861
:10189200A30A0030A3070130A0070318A10A0030F1
:1018A200A107083020062104031D102CA001A1016C
:1018B2002608F6006808903E8400760883178000A8
:1018C2000130E8070318E90A0030E907102C0A1270
:1018D2008A1127230A128A150A128A1507240A1264
:1018E2008A150A128A112A200A128A15710883128D
:1018F2000313BE007008BD003D033E04031DC72C48
:10190200BF01C001013084000A128A1500200A12A8
:101912008A15FA000A128A1500200A128A15FB009B
:101922007B084002031D972C7A083F020318C12C42
:101932003F08143E903E840083170008FA003F08D7
:10194200303E84007A0880000130BF070318C00AC5
:101952000030C007013084000A128A1500200A12E2
:101962008A15FA000A128A1500200A128A15FB004B
:101972007B084002031DBF2C7A083F02031C992CEE
:10198200E801E901EA01EB0130300800E801E90170
:10199200EA01EB01003008007508F3007408F20058
:1019A2000A128A1561220A128A157508F300740850
:1019B200F2000A128A1561220A128A157508F300CA
:1019C2007408F2000A128A1561220A128A15750831
:1019D200F3007408F2000A128A151B220A128A15F1
:1019E2007508F3007408F2000A128A151B220A1203
:1019F2008A157508F3007408F2000A128A1561222A
:101A02000A128A157508F3007408F2000A128A1580
:101A120061220A128A157508F3007408F2000A128C
:101A22008A1561220A128A157508F3007408F200F9
:101A32000A128A1561220A128A157508F3007408BF
:101A4200F2000A128A1561220A128A157508F30039
:101A52007408F2000A128A151B220A128A157508E6
:101A6200F3007408F2000A128A1561220A128A151A
:101A72007508F3007408F2000A128A1561220A122C
:101A82008A157508F3007408F2000A128A157F217C
:101A9200080083120313BD01BE013E08803AFF0015
:101AA20080307F02031D572D0C303D020318752D27
:101AB200831203133D08A0002007233E84008313F2
:101AC2008001840A80010130BD070318BE0A00307C
:101AD200BE073E08803AFF0080307F02031D732D4F
:101AE2000C303D02031C592D83120313BB01BC01B0
:101AF2007C08803AFF0080307F02031D822D013076
:101B02007B02031CBB2D01307B0583120313A00053
:101B120000307C05A1003B08A2002207233E84007E
:101B2200200883138000840A210880000230F0001C
:101B32000030F1007C08F3007B08F2000A128A15DB
:101B4200F3220A128A157108FC007008FB000130AA
:101B520083120313BB070318BC0A0030BC077C08BE
:101B6200803AFF0080307F02031DB92D01307B02D5
:101B72000318842D83120313BF01C0014008803A69
:101B8200FF0080307F02031DC82D0C303F02031876
:101B9200112E831203133F08A0002007233E840066
:101BA20083130008A100840A0008A200210822046D
:101BB200031DE42D7A08F3007908F2000A128A154F
:101BC20061220A128A15831203133F08A00020071C
:101BD200233E840083130008A100840A0008A200A7
:101BE20021032204031DFE2D7A08F3007908F20076
:101BF2000A128A151B220A128A1501308312031354
:101C0200BF070318C00A0030C0074008803AFF002F
:101C120080307F02031D0F2E0C303F02031CCA2DA1
:101C22007A08F3007908F2000A128A151B220A12B6
:101C32008A157A08F3007908F2000A128A151B2223
:101C42000A128A157A08F3007908F2000A128A1534
:101C52007F210800033083120313E4008A30E3007B
:101C62005530E200E20B332EE30B332EE40B332E1E
:101C72000A128A156A200A128A150A128A15B620D1
:101C82000A128A15003083120313A3000630A20041
:101C92001A30A1008030A0000A128A15AD210A1262
:101CA2008A158312031306150D3083120313E40001
:101CB200AF30E300B530E200E20B5D2EE30B5D2EA8
:101CC200E40B5D2E642E831603134608831203135E
:101CD200DD0083160313450883120313DC00D130A1
:101CE200DE000030DF000A128A1553210A128A151B
:101CF20083160313440883120313DD0083160313B0
:101D0200430883120313DC00C730DE000030DF001B
:101D12000A128A15FB200A128A1583160313420837
:101D220083120313DD008316031341088312031386
:101D3200DC00E030DE000130DF000A128A152721C4
:101D42000A128A158312031306110A128A156824CD
:101D52000A128A1583120313E20062088316031320
:101D6200C000831203130615073083120313E40025
:101D72005830E3005930E200E20BBD2EE30BBD2EDA
:101D8200E40BBD2E831203130611F201F301831635
:101D92000313400883120313E2006208F400503078
:101DA2000A128A154C230A128A150230831203136F
:101DB200E4004530E300A930E200E20BDE2EE30B43
:101DC200DE2EE40BDE2E743083120313E20062086F
:101DD20083160313BE00F101F2013E080A128A15AE
:101DE200E1210A128A1583160313400884006E301B
:101DF20083170006031D0E2F723083120313E200B5
:101E0200620883160313BF00F101F2013F080A12B0
:101E12008A1543200A128A15F12F831603134008EC
:101E22008400703083170006031DDC2F4008023E39
:101E32008400723000060319C42FF12F0A128A118E
:101E420007200A128A15403083120313E4006A3015
:101E5200E3009730E200E20B2C2FE30B2C2FE40B74
:101E62002C2FA0308400D63083120313E200040822
:101E7200E3000A30E4006208840083170008E500EA
:101E8200E20A63088400831365088000E30AE40B16
:101E92003C2FAA308400CC30E2000408E3000A3070
:101EA200E4006208840083170008E500E20A630880
:101EB2008400831365088000E30AE40B522FB430D8
:101EC2008400C230E2000408E3000A30E400620841
:101ED200840083170008E500E20A63088400831384
:101EE20065088000E30AE40B682F83160313460893
:101EF20083120313DD0083160313450883120313B1
:101F0200DC00A030DE000030DF000A128A15532107
:101F12000A128A1583160313440883120313DD0081
:101F220083160313430883120313DC00AA30DE0076
:101F32000030DF000A128A15FB200A128A15831666
:101F42000313420883120313DD00831603134108AF
:101F520083120313DC00B430DE000030DF000A120B
:101F62008A1527210A128A15073083120313E40007
:101F72005830E3005930E200E20BBD2FE30BBD2FD6
:101F8200E40BBD2FF12F831603134008033E840098
:101F920083170008333A0319F12F763A03191F2FDA
:101FA2000C3A0319F12F073A0319F12F1A3A0319C0
:101FB200F12FF12FF12F8312031306150D30831227
:101FC2000313E400AF30E300B530E200E20BE72F89
:101FD200E30BE72FE40BE72FEE2F83120313061117
:101FE200073083120313E4005830E3005930E20053
:0E1FF200E20BF92FE30BF92FE40BF92FA62ECB
:102FD4000A128A15292083160313111408000A12F1
:102FE4008A15292083160313111508000A128A155D
:0C2FF400292070088312031393000800CA
:04400E00E2E3FFFEEC
:00000001FF
