:060000000A128A11B32F61
:10000E0083120313061685144030F2006A30F10095
:10001E00D530F000F00B1128F10B1128F20B11283E
:10002E00182883120313061285100730F200583079
:10003E00F1005E30F000F00B2228F10B2228F20BBB
:10004E00222829280800FF3083120313EC00F20047
:10005E007208ED0003306A066B04031D0800F501FB
:10006E00F6016608FE3EF20067080318013EFF3EE9
:10007E00F30073087602031D4628720875020318F2
:10008E0091287508903E840083170008F2007208CC
:10009E00F900F701F80100307802083003197702F1
:1000AE0003188A2879080139F2007208F400031047
:1000BE00EC0CED0C0130831203130305F2007408EF
:1000CE007206F3007303031D76286C08843AF2005F
:1000DE007208EC006D08083AF2007208ED0079081B
:1000EE00F2000310720CF3007308F9000130F707E9
:1000FE000318F80A0030F8070030780208300319A8
:10010E007702031C59280130F5070318F60A003050
:10011E00F6073828ED09EC096608FE3E903E84008D
:10012E00831700086D06031DA9286608FF3E903E42
:10013E00840000086C06031DA9280130F000003071
:10014E00F1000800F001F101080083120313D4013D
:10015E00D501D601D7015708803AFF0080307F02C3
:10016E00031DBB28113056020318D928831203131E
:10017E005608A0002007303E840083138001840AB5
:10018E0080010130D6070318D70A0030D707570869
:10019E00803AFF0080307F02031DD72811305602AF
:1001AE00031CBD2883120313D201D3015308803AD6
:1001BE00FF0080307F02031DE62811305202031823
:1001CE00B72A83120313DA01DB015B08803AFF00C2
:1001DE0080307F02031DF52805305A020318A42A29
:1001EE00831203135B08A1005A08A0000310A00D90
:1001FE00A10D20087B07A20021080318210A7C0705
:10020E00A300220884008317231C83130008A40074
:10021E00840A0008A50024189D2904305A065B04A0
:10022E00031D60290230F0000030F1005B08A100D0
:10023E005A08A0000310A00DA10D20087B07A200F4
:10024E0021080318210A7C07A300220884008317C3
:10025E00231C83130008F200840A0008F3000A121C
:10026E008A15E2220A128A11831203135B08A50073
:10027E005A08A4000310A40DA50D24087B07A600A0
:10028E0025080318250A7C07A70026088400831773
:10029E00271C831370088000840A7108800054089C
:1002AE00A0002007303E840083138001840A800161
:1002BE00052A0230F0000030F1005B08A1005A0858
:1002CE00A0000310A00DA10D20087B07A20021089D
:1002DE000318210A7C07A300220884008317231C1D
:1002EE0083130008F200840A0008F3000A128A152C
:1002FE00E2220A128A11831203135B08A5005A0820
:10030E00A4000310A40DA50D24087B07A600250844
:10031E000318250A7C07A700260884008317271CCC
:10032E00831370088000840A7108922A5B08A1006A
:10033E005A08A0000310A00DA10D20087B07A200F3
:10034E0021080318210A7C07A300220884008317C2
:10035E00231C83130008A400840A0008A500241C93
:10036E00932A04305A065B04031D0C2A0230F00057
:10037E000030F1005B08A1005A08A0000310A00D88
:10038E00A10D20087B07A20021080318210A7C0773
:10039E00A300220884008317231C83130008F20095
:1003AE00840A0008F3000A128A15E2220A128A1140
:1003BE00831203135B08A5005A08A4000310A40DB2
:1003CE00A50D24087B07A60025080318250A7C071F
:1003DE00A700260884008317271C8313700880004B
:1003EE00840A710880005408A0002007303E840063
:1003FE00013083138000840A003080000130D4075E
:10040E000318D50A0030D507932A0230F0000030C9
:10041E00F1005B08A1005A08A0000310A00DA10D69
:10042E0020087B07A20021080318210A7C07A300DD
:10043E00220884008317231C83130008F200840A09
:10044E000008F3000A128A15E2220A128A11831298
:10045E0003135B08A5005A08A4000310A40DA50DF4
:10046E0024087B07A60025080318250A7C07A70089
:10047E00260884008317271C831370088000840AC3
:10048E00710880005B08A1005A08A0000310A00D9F
:10049E00A10D2008023EA20021080318013E003ED5
:1004AE00A30022087B07A40023080318230A7C0755
:1004BE00A500240884008317251C83130008A600BA
:1004CE00840A0008A70026080A3EA8002708031879
:1004DE00013E003EA9005B08AB005A08AA000310BB
:1004EE00AA0DAB0D2A08023EAC002B080318013EE4
:1004FE00003EAD002C087B07AE002D0803182D0A18
:10050E007C07AF002E08840083172F1C8313280846
:10051E008000840A290880000130DA070318DB0AFC
:10052E000030DB075B08803AFF0080307F02031D3E
:10053E00A22A05305A02031CF72801308312031336
:10054E00D2070318D30A0030D3075308803AFF00AE
:10055E0080307F02031DB52A11305202031CE82899
:10056E0083120313D801D9015908803AFF00803055
:10057E007F02031DC42A1130580203180D2B83125B
:10058E0003135808A0002007303E84008313000890
:10059E00A100840A0008A20021082204031DE02AFB
:1005AE007A08F3007908F2000A128A1509220A1253
:1005BE008A11831203135808A0002007303E8400CE
:1005CE0083130008A100840A0008A200210322045C
:1005DE00031DFA2A7A08F3007908F2000A128A1526
:1005EE00C3210A128A11013083120313D80703188C
:1005FE00D90A0030D9075908803AFF0080307F02AF
:10060E00031D0B2B11305802031CC62A7A08F30067
:10061E007908F2000A128A15C3210A128A117A0881
:10062E00F3007908F2000A128A1509220A128A11B9
:10063E007A08F3007908F2000A128A15612108007F
:10064E00FF30F600760883120313BC00EA01EB01BB
:10065E0000306B02023003196A02031808007E3064
:10066E003C060319862B0A128A1596220A128A1143
:10067E00710883120313BB007008BA003C08F60021
:10068E007607F7007708BC003A083B040319362BAF
:10069E003C080138F6007608BC00362BA001A101FB
:1006AE00003021020830031920020318862B0A128B
:1006BE008A1596220A128A11710883120313BB003F
:1006CE007008BA003C08F6000310760CF7007708A5
:1006DE00BC003A083B040319792B3C088038F6001D
:1006EE007608BC000130A0070318A10A0030A1074C
:1006FE0000302102083003192002031C5E2B7E30CD
:10070E003C060319552B123084000A128A1500205C
:10071E000A128A11F600F7010310F60DF70D3C08C8
:10072E00F800F90177087906031D9F2B76087806E5
:10073E00031D642D3C08F6006608903E8400760882
:10074E00831780000130E6070318E70A0030E70739
:10075E00A201A3010030230208300319220203185C
:10076E00E02B0A128A1596220A128A117108831238
:10077E000313BB007008BA003C08F6000310760C99
:10078E00F7007708BC003A083B040319D32B3C084A
:10079E008038F6007608BC000130A2070318A30AC1
:1007AE000030A30700302302083003192202031C75
:1007BE00B82B133084000A128A1500200A128A11EF
:1007CE00F600F7010310F60DF70D3C08F800F901DD
:1007DE0077087906031DF52B76087806031D642D20
:1007EE003C08F6006608903E840076088317800069
:1007FE000130E6070318E70A0030E707A401A50158
:10080E00003025020830031924020318362C0A1270
:10081E008A1596220A128A11710883120313BB00DD
:10082E007008BA003C08F6000310760CF700770843
:10083E00BC003A083B040319292C3C088038F6000A
:10084E007608BC000130A4070318A50A0030A507DE
:10085E0000302502083003192402031C0E2C14301C
:10086E0084000A128A1500200A128A11F600F70176
:10087E000310F60DF70D3C08F800F901770879061C
:10088E00031D4B2C76087806031D642D3C08F600DC
:10089E006608903E84007608831780000130E607D4
:1008AE000318E70A0030E707A601A7010030270268
:1008BE0008300319260203188C2C0A128A15962268
:1008CE000A128A11710883120313BB007008BA0052
:1008DE003C08F6000310760CF7007708BC003A08C7
:1008EE003B0403197F2C3C088038F6007608BC00C8
:1008FE000130A6070318A70A0030A7070030270209
:10090E00083003192602031C642C153084000A12C9
:10091E008A1500200A128A11F600F7010310F60D4F
:10092E00F70D3C08F800F90177087906031DA12C94
:10093E0076087806031D642D3C08F6006608903E86
:10094E0084007608831780000130E6070318E70A53
:10095E000030E707A801A901003029020830031969
:10096E0028020318E22C0A128A1596220A128A11FC
:10097E00710883120313BB007008BA003C08F6001E
:10098E000310760CF7007708BC003A083B040319F5
:10099E00D52C3C088038F6007608BC000130A8073C
:1009AE000318A90A0030A9070030290208300319DC
:1009BE002802031CBA2C163084000A128A15002055
:1009CE000A128A11F600F7010310F60DF70D3C0816
:1009DE00F800F90177087906031DF72C76087806DA
:1009EE00031D642D3C08F6006608903E84007608D0
:1009FE00831780000130E6070318E70A0030E70787
:100A0E00AA01AB0100302B02083003192A02031889
:100A1E00382D0A128A1596220A128A11710883122B
:100A2E000313BB007008BA003C08F6000310760CE6
:100A3E00F7007708BC003A083B0403192B2D3C083D
:100A4E008038F6007608BC000130AA070318AB0AFE
:100A5E000030AB0700302B02083003192A02031CAA
:100A6E00102D173084000A128A1500200A128A11DE
:100A7E00F600F7010310F60DF70D3C08F800F9012A
:100A8E0077087906031D4D2D76087806031D642D13
:100A9E003C08F6006608903E8400760883178000B6
:100AAE000130E6070318E70A0030E7070130EA07CE
:100ABE000318EB0A0030EB07662DE601E701AC01E7
:100ACE00AD0100302D02083003192C020318972DAA
:100ADE000A128A1596220A128A11710883120313BA
:100AEE00BB007008BA003C08F6000310760CF70045
:100AFE007708BC003A083B0403198A2D3C0880385D
:100B0E00F6007608BC000130AC070318AD0A0030C1
:100B1E00AD0700302D02083003192C02031C6F2D77
:100B2E003C08F6006608903E840076088317800025
:100B3E000130E6070318E70A0030E707AE01AF0100
:100B4E0000302F02083003192E020318D62D0A1278
:100B5E008A1596220A128A11710883120313BB009A
:100B6E007008BA003C08F6000310760CF700770800
:100B7E00BC003A083B040319C92D3C088038F60026
:100B8E007608BC000130AE070318AF0A0030AF077D
:100B9E0000302F02083003192E02031CAE2D0B302D
:100BAE0084000A128A1500200A128A11F600F70133
:100BBE000310F60DF70D3C08F800F90177087906D9
:100BCE00031DEB2D76087806031DB02F3C08F600AA
:100BDE006608903E84007608831780000130E60791
:100BEE000318E70A0030E707B001B1010030310207
:100BFE0008300319300203182C2E0A128A15962279
:100C0E000A128A11710883120313BB007008BA000E
:100C1E003C08F6000310760CF7007708BC003A0883
:100C2E003B0403191F2E3C088038F6007608BC00E2
:100C3E000130B0070318B10A0030B107003031029D
:100C4E00083003193002031C042E0C3084000A12E3
:100C5E008A1500200A128A11F600F7010310F60D0C
:100C6E00F70D3C08F800F90177087906031D412EAF
:100C7E0076087806031DB02F3C08F6006608903EF5
:100C8E0084007608831780000130E6070318E70A10
:100C9E000030E707B201B301003033020830031908
:100CAE0032020318822E0A128A1596220A128A110D
:100CBE00710883120313BB007008BA003C08F600DB
:100CCE000310760CF7007708BC003A083B040319B2
:100CDE00752E3C088038F6007608BC000130B2074D
:100CEE000318B30A0030B30700303302083003197B
:100CFE003202031C5A2E0D3084000A128A1500206F
:100D0E000A128A11F600F7010310F60DF70D3C08D2
:100D1E00F800F90177087906031D972E76087806F4
:100D2E00031DB02F3C08F6006608903E840076083E
:100D3E00831780000130E6070318E70A0030E70743
:100D4E00B401B5010030350208300319340203181E
:100D5E00D82E0A128A1596220A128A117108831247
:100D6E000313BB007008BA003C08F6000310760CA3
:100D7E00F7007708BC003A083B040319CB2E3C0859
:100D8E008038F6007608BC000130B4070318B50AA7
:100D9E000030B50700303502083003193402031C49
:100DAE00B02E0E3084000A128A1500200A128A1103
:100DBE00F600F7010310F60DF70D3C08F800F901E7
:100DCE0077087906031DED2E76087806031DB02FE1
:100DDE003C08F6006608903E840076088317800073
:100DEE000130E6070318E70A0030E707B601B7013E
:100DFE000030370208300319360203182E2F0A125C
:100E0E008A1596220A128A11710883120313BB00E7
:100E1E007008BA003C08F6000310760CF70077084D
:100E2E00BC003A083B040319212F3C088038F60019
:100E3E007608BC000130B6070318B70A0030B707B2
:100E4E0000303702083003193602031C062F0F300C
:100E5E0084000A128A1500200A128A11F600F70180
:100E6E000310F60DF70D3C08F800F9017708790626
:100E7E00031D432F76087806031DB02F3C08F6009D
:100E8E006608903E84007608831780000130E607DE
:100E9E000318E70A0030E707B801B901003039023C
:100EAE000830031938020318842F0A128A15962265
:100EBE000A128A11710883120313BB007008BA005C
:100ECE003C08F6000310760CF7007708BC003A08D1
:100EDE003B040319772F3C088038F6007608BC00D7
:100EEE000130B8070318B90A0030B90700303902CB
:100EFE00083003193802031C5C2F103084000A12CC
:100F0E008A1500200A128A11F600F7010310F60D59
:100F1E00F70D3C08F800F90177087906031D992FA3
:100F2E0076087806031DB02F3C08F6006608903E42
:100F3E0084007608831780000130E6070318E70A5D
:100F4E000030E7070130EA070318EB0A0030EB0721
:100F5E002F2BE601E7012D2B8317EA30FD00083019
:100F6E00FE00B530FF00C23084000A168A11E12758
:100F7E000A128A116930FD000830FE006530FF004C
:100F8E00503084000A168A11E1270A128A1183133F
:100F9E00DC30FD000830FE007E30FF00C2308400E1
:100FAE000A168A11E1270A128A11831790308400DB
:100FBE00C2300A168A11CC270A128A111030840008
:100FCE0050300A168A11CC270A128A118313DC308C
:100FDE008400E9300A168A11CC270A128A1166306B
:100FEE00840070300A168A11CC2783010A128A15E2
:100FFE001A2E08308A000408840A8207003420342E
:10100E000034733474346134723474340D340A34ED
:10101E0000344A34513431345A344834583400345C
:10102E004A3451343134593443345A34003425342B
:04103E0063340034E3
:101046008B170B17831203130C10831603130C1440
:10105600831203131008CF39203890000B308F000D
:10106600DB308E0010140800F001F1017108803A9F
:10107600FF0080307F02031D4228053070020318EE
:10108600080000000130F0070318F10A0030F107EC
:1010960039280A308316031399001811181283127F
:1010A60003139817181698128C12831603130C1232
:1010B6008C1618138312031318138316031398122E
:1010C60098160800483465346C346C346F34213417
:1010D6002034493427346D3420344F347234693423
:1010E600673461346D346934533461347434313463
:1010F600213421340034A034003400340A3400345E
:101106000A34003400340134003407340034043423
:101116000034073400340834003407340034033410
:101126000034003400340034003483120313850184
:1011360086018701880189018316031788018901C1
:101146008030831603138500203086009830870090
:1011560088018901831203138501860187018801AD
:10116600890108000834003407340034033400349D
:1011760000340034003400340034003401340034C8
:1011860007340034043400340734003402340034A5
:10119600043400340834003408340034073400348E
:1011A6000234003404340034083400340834003483
:1011B60007340034023083120313E0000030E100EC
:1011C6006108F5006008F4000A128A15BC240A12A8
:1011D6008A15831203136108FA006008F9005D0896
:1011E600FC005C08FB000A128A1539250A128A15CA
:1011F600831203136108FA006008F9005E08FB0019
:101206005F08FC000A128A11AC2008000330831222
:101216000313E0000030E1006108F5006008F40007
:101226000A128A15BC240A128A158312031361084E
:10123600FA006008F9005D08FC005C08FB000A1271
:101246008A1539250A128A15831203136108FA00D2
:101256006008F9005E08FB005F08FC000A128A11AC
:10126600AC200800013083120313E0000030E100D7
:101276006108F5006008F4000A128A15BC240A12F7
:101286008A15831203136108FA006008F9005D08E5
:10129600FC005C08FB000A128A1539250A128A1519
:1012A600831203136108FA006008F9005E08FB0068
:1012B6005F08FC000A128A11AC200800720373044E
:1012C600031D70298312031385160A128A15372007
:1012D6000A128A15831203138512023072067304EA
:1012E600031D80298312031308140A128A15372056
:1012F6000A128A1583120313081003307206730448
:10130600031D08008312031305160A128A153720D7
:101316008312031305120800283083120313940066
:10132600831603139101831203132008A4002108D6
:10133600A5002208A6002308A70002300310A40D6A
:10134600A50DA60DA70DFF3E031DA1292708F30035
:101356002608F2002508F1002408F0000030F70006
:101366009830F6009630F5008030F4000A128A159F
:1013760098237008FF3E8316031393009401080018
:1013860072037304031DDA298312031309140A1264
:101396008A1537200A128A158312031389140A1232
:1013A6008A1537200A128A15831203138910023010
:1013B60072067304031DF2298312031388140A129A
:1013C6008A1537200A128A158312031308150A1282
:1013D6008A1537200A128A1583120313081103305F
:1013E60072067304031D08008312031385150A127F
:1013F6008A1537200A128A158312031305150A1255
:101406008A1537208312031305110800720373042B
:10141600031D202A8312031309100A128A15372086
:101426000A128A158312031389140A128A153720A1
:101436000A128A1583120313891002307206730486
:10144600031D382A8312031388100A128A153720BF
:101456000A128A158312031308150A128A153720F1
:101466000A128A15831203130811033072067304D5
:10147600031D08008312031385110A128A153720EB
:101486000A128A158312031305150A128A153720C4
:101496008312031305110800F6007130F300730878
:1014A600F5000130F607FF30760784000A128A1528
:1014B60000200A128A15F3007308F700770803194B
:1014C60008002530770603196F2A77080A168A114D
:1014D600C4270A128A15542AF401822A7508840040
:1014E6000008F3007308F7000230F3007308F507ED
:1014F60077080A168A11C4270A128A15542A013057
:10150600F607FF30760784000A128A1500200A12B1
:101516008A15F700003A0319952A633A0319712AC6
:101526007B2A542A0800031083120313861A031415
:10153600003003180130F200F3017208831603131A
:10154600E7007308E800F401F501003075023E304B
:10155600031974020318DD2A03108312861A031472
:10156600003003180130F200F301831603136808F4
:101576007306031DC02A670872060319D02AF930BC
:10158600F2000000F20BC42AC82A000004308312BD
:1015960003138706F001F10108000130F407031870
:1015A600F50A0030F507003075023E300319740263
:1015B600031CB02A0130F0000030F1000800F601EB
:1015C600F11FEC2AF009F109F00A0319F10AF601F4
:1015D600F60AF31FF72AF209F309F20A0319F30AC6
:1015E6000130F4007408F606F701F801700871047A
:1015F60003192E2BF501F50AF11B0D2B01300310F3
:10160600F00DF10DFF3E031D022B0130F4007408AE
:10161600F507FF2A01300310F70DF80DFF3E031DF5
:101626000E2B71087302031D1A2B70087202031C1D
:10163600232B7008F2027108031CF303F3027714DC
:1016460001300310F10CF00CFF3E031D242B01307A
:10165600F502031D0D2B76080319362BF709F80939
:10166600F70A0319F80A7808F1007708F00008006D
:10167600F8007808F5007507F6007608F9000A16EE
:101686008A11AE270A128A157908F500F60175083F
:10169600F0007608F1000A168A11BC270A128A158C
:1016A6007208F500F6017508F0007608F1000A16D2
:1016B6008A11BC270A128A157308F500F601750807
:1016C600F0007608F1000A168A11BC270A128A155C
:1016D60074088400831700080319852B7408840096
:1016E60083170008F500F6017508F0007608F1008A
:1016F6000A168A11BC270A128A150130F5007508E8
:10170600F4076B2B0A168A11B5270A128A150330BD
:10171600F7008A30F6005630F500F50B902BF60BE5
:10172600902BF70B902B972B08000030FC00003015
:10173600FB000030FA000030F900730872047104EF
:1017460070040319ED2BFD01FD0AF31BB82B0130C4
:10175600F8000310F00DF10DF20DF30DF80BAC2BA4
:101766000130F8007808FD07A82B0130F8000310B7
:10177600F90DFA0DFB0DFC0DF80BBA2B7308770269
:10178600031DCF2B72087602031DCF2B710875023D
:10179600031DCF2B70087402031CE02B7008F402A3
:1017A6007108031C710FF5027208031C720FF60212
:1017B6007308031C730FF702791401300310F30C3E
:1017C600F20CF10CF00CFF3E031DE12B0130FD0283
:1017D600031DB82B7C08F3007B08F2007A08F100A1
:1017E6007908F000080083120313A601A201A301E1
:1017F600A001A101A401A50102306A066B04031D24
:1018060008000A128A1596220A128A15710883128E
:101816000313A5007008A400053022062304031D47
:10182600222C24032504031D1F2C0130EA0703186C
:10183600EB0A0030EB070800A201A301FF2B2608E4
:10184600F6000310760CF7007708A6002408250496
:10185600031D302CA201A3013B2C26088038F6007C
:101866007608A6000130A2070318A30A0030A307D2
:101876000130A0070318A10A0030A107083020068E
:101886002104031DFF2BA001A1012608F60066080E
:10189600903E84007608831780000130E60703181F
:1018A600E70A0030E707FF2B0A128A1127230A12DC
:1018B6008A150A128A15F6230A128A150A128A113D
:1018C6002A200A128A15710883120313BE007008B3
:1018D600BD003D033E04031DB62CBF01C00101300F
:1018E60084000A128A1500200A128A15FA000A12C2
:1018F6008A1500200A128A15FB007B084002031D88
:10190600862C7A083F020318B02C3F08143E903EFE
:10191600840083170008FA003F08303E84007A08E6
:1019260080000130BF070318C00A0030C00701302D
:1019360084000A128A1500200A128A15FA000A1271
:101946008A1500200A128A15FB007B084002031D37
:10195600AE2C7A083F02031C882CE601E701EA0157
:10196600EB0130300800E601E701EA01EB01003047
:1019760008007508F3007408F2000A128A15092295
:101986000A128A157508F3007408F2000A128A15FD
:1019960009220A128A157508F3007408F2000A1261
:1019A6008A1509220A128A157508F3007408F200CE
:1019B6000A128A15C3210A128A157508F3007408DB
:1019C600F2000A128A15C3210A128A157508F30055
:1019D6007408F2000A128A1509220A128A15750875
:1019E600F3007408F2000A128A1509220A128A15EF
:1019F6007508F3007408F2000A128A1509220A1201
:101A06008A157508F3007408F2000A128A1509226D
:101A16000A128A157508F3007408F2000A128A156C
:101A260009220A128A157508F3007408F2000A12D0
:101A36008A15C3210A128A157508F3007408F20084
:101A46000A128A1509220A128A157508F300740803
:101A5600F2000A128A1509220A128A157508F3007D
:101A66007408F2000A128A15612108008312031312
:101A7600BD01BE013E08803AFF0080307F02031D93
:101A8600462D0C303D020318642D831203133D08C6
:101A9600A0002007233E840083138001840A80016E
:101AA6000130BD070318BE0A0030BE073E08803A63
:101AB600FF0080307F02031D622D0C303D02031CA7
:101AC600482D83120313BB01BC017C08803AFF003A
:101AD60080307F02031D712D01307B02031CAA2D6D
:101AE60001307B0583120313A00000307C05A100A2
:101AF6003B08A2002207233E8400200883138000AF
:101B0600840A210880000230F0000030F1007C08D1
:101B1600F3007B08F2000A128A15E2220A128A15DD
:101B26007108FC007008FB00013083120313BB0729
:101B36000318BC0A0030BC077C08803AFF008030DE
:101B46007F02031DA82D01307B020318732D83121B
:101B56000313BF01C0014008803AFF0080307F02B6
:101B6600031DB72D0C303F020318002E83120313FA
:101B76003F08A0002007233E840083130008A1002D
:101B8600840A0008A20021082204031DD32D7A0826
:101B9600F3007908F2000A128A1509220A128A1538
:101BA600831203133F08A0002007233E84008313FB
:101BB6000008A100840A0008A20021032204031DD4
:101BC600ED2D7A08F3007908F2000A128A15C3216E
:101BD6000A128A15013083120313BF070318C00ABD
:101BE6000030C0074008803AFF0080307F02031DA6
:101BF600FE2D0C303F02031CB92D7A08F30079083C
:101C0600F2000A128A15C3210A128A157A08F3000D
:101C16007908F2000A128A15C3210A128A157A086F
:101C2600F3007908F2000A128A15612108000730CC
:101C360083120313E4005830E3005E30E200E20B47
:101C4600222EE30B222EE40B222E292E0A128A15AF
:101C56004C200A128A150A128A1598200A128A1529
:101C6600003083120313A3000630A2001A30A1002D
:101C76008030A0000A128A158F210A128A150A12CC
:101C86008A1523200A128A158312031306150730B4
:101C9600E4005830E3005E30E200E20B502EE30B26
:101CA600502EE40B502E572E83160313470883122B
:101CB6000313DD0083160313460883120313DC00A7
:101CC600D230DE000030DF000A128A1535210A12F2
:101CD6008A1583160313430883120313DD00831644
:101CE6000313420883120313DC00C830DE00003001
:101CF600DF000A128A15DD200A128A1583160313DD
:101D0600450883120313DD00831603134408831268
:101D16000313DC00E030DE000130DF000A128A1512
:101D260009210A128A1583120313061103300A12B7
:101D36008A154F220A128A150A128A1557240A1280
:101D46008A1583120313E200620883160313C10087
:101D5600F201F301410883120313E2006208F40062
:101D660050300A128A153B230A128A15831603136A
:101D7600BF01C00100304002203003193F020318A2
:101D8600F32E3F08410783120313E2006208840022
:101D960083170008E300E4016308F1006408F20019
:101DA60019300A128A154F220A128A15831603134E
:101DB6003F08410783120313E20062088400831779
:101DC6008001013083160313BF070318C00A0030D1
:101DD600C00700304002203003193F02031CC42E06
:101DE600410884006E3083170006031D0B2F7230E6
:101DF60083120313E200620883160313BE00F10187
:101E0600F2013E080A168A11EE270A128A15F02FE9
:101E16008316031341088400703083170006031DE0
:101E2600F02F8312031306150730E4005830E30041
:101E36005E30E200E20B1D2FE30B1D2FE40B1D2F7E
:101E4600242F831203130611831603134108023E3F
:101E560084007230831700060319D92FF02F0A1257
:101E66008A1107200A128A15403083120313E400F0
:101E76006A30E300D530E200E20B3F2FE30B3F2F41
:101E8600E40B3F2F462FA0308400C2308312031389
:101E9600E2000408E3000A30E400620884008317C5
:101EA6000008E500E20A63088400831365088000E1
:101EB600E30AE40B502FAA308400CC30E200040879
:101EC600E3000A30E4006208840083170008E50096
:101ED600E20A63088400831365088000E30AE40BC2
:101EE600662FB4308400D630E2000408E3000A30DE
:101EF600E4006208840083170008E500E20A63082C
:101F06008400831365088000E30AE40B7C2F8316A4
:101F16000313470883120313DD00831603134608D1
:101F260083120313DC00A030DE000030DF000A124B
:101F36008A1535210A128A1583160313430883125C
:101F46000313DD0083160313420883120313DC0018
:101F5600AA30DE000030DF000A128A15DD200A12E0
:101F66008A1583160313450883120313DD008316AF
:101F76000313440883120313DC00B430DE00003080
:101F8600DF000A128A1509210A128A150730831200
:101F96000313E4005830E3005E30E200E20BD12F79
:101FA600E30BD12FE40BD12FD82FF02F8316031379
:101FB6004108033E840083170008333A0319F02FC3
:101FC600763A0319322F0C3A0319F02F073A031900
:101FD600F02F1A3A0319F02FF02F0730831203134C
:101FE600E4005830E3005E30E200E20BF82FE30B2A
:0A1FF600F82FE40BF82FFF2F9F2EA9
:102F5C000A168A11D42783160313111408000A16B3
:102F6C008A11D42783160313111508000A168A1127
:102F7C00D42770088312031393000800F000831207
:102F8C0003130C1EC52F7008990008006400800103
:102F9C00840A0406031900340406CD2F8316031388
:102FAC001419D42F11081F3903190800D42F7E08C7
:102FBC008A007F088200DD270A168A118000840AA5
:102FCC0004087D0603190034FF0A0319FE0AE12FD9
:102FDC00F30073080A168A11C4270A168A1171089D
:102FEC000A168A11C4270A168A1172080A168A113F
:042FFC00C4270800DE
:04400E00E2E3FFFEEC
:00000001FF
