:060000000A128A11B32F61
:10000E0083120313061685144030F2006A30F10095
:10001E00D530F000F00B1128F10B1128F20B11283E
:10002E00182883120313061285100730F200583079
:10003E00F1005E30F000F00B2228F10B2228F20BBB
:10004E00222829280800FF3083120313EC00F20047
:10005E007208ED0003306A066B04031D0800F501FB
:10006E00F6016608FE3EF20067080318013EFF3EE9
:10007E00F30073087602031D4628720875020318F2
:10008E0091287508903E840083170008F2007208CC
:10009E00F900F701F80100307802083003197702F1
:1000AE0003188A2879080139F2007208F400031047
:1000BE00EC0CED0C0130831203130305F2007408EF
:1000CE007206F3007303031D76286C08843AF2005F
:1000DE007208EC006D08083AF2007208ED0079081B
:1000EE00F2000310720CF3007308F9000130F707E9
:1000FE000318F80A0030F8070030780208300319A8
:10010E007702031C59280130F5070318F60A003050
:10011E00F6073828ED09EC096608FE3E903E84008D
:10012E00831700086D06031DA9286608FF3E903E42
:10013E00840000086C06031DA9280130F000003071
:10014E00F1000800F001F101080083120313D4013D
:10015E00D501D601D7015708803AFF0080307F02C3
:10016E00031DBB28113056020318D928831203131E
:10017E005608A0002007303E840083138001840AB5
:10018E0080010130D6070318D70A0030D707570869
:10019E00803AFF0080307F02031DD72811305602AF
:1001AE00031CBD2883120313D201D3015308803AD6
:1001BE00FF0080307F02031DE62811305202031823
:1001CE00B72A83120313DA01DB015B08803AFF00C2
:1001DE0080307F02031DF52805305A020318A42A29
:1001EE00831203135B08A1005A08A0000310A00D90
:1001FE00A10D20087B07A20021080318210A7C0705
:10020E00A300220884008317231C83130008A40074
:10021E00840A0008A50024189D2904305A065B04A0
:10022E00031D60290230F0000030F1005B08A100D0
:10023E005A08A0000310A00DA10D20087B07A200F4
:10024E0021080318210A7C07A300220884008317C3
:10025E00231C83130008F200840A0008F3000A121C
:10026E008A15F6220A128A11831203135B08A5005F
:10027E005A08A4000310A40DA50D24087B07A600A0
:10028E0025080318250A7C07A70026088400831773
:10029E00271C831370088000840A7108800054089C
:1002AE00A0002007303E840083138001840A800161
:1002BE00052A0230F0000030F1005B08A1005A0858
:1002CE00A0000310A00DA10D20087B07A20021089D
:1002DE000318210A7C07A300220884008317231C1D
:1002EE0083130008F200840A0008F3000A128A152C
:1002FE00F6220A128A11831203135B08A5005A080C
:10030E00A4000310A40DA50D24087B07A600250844
:10031E000318250A7C07A700260884008317271CCC
:10032E00831370088000840A7108922A5B08A1006A
:10033E005A08A0000310A00DA10D20087B07A200F3
:10034E0021080318210A7C07A300220884008317C2
:10035E00231C83130008A400840A0008A500241C93
:10036E00932A04305A065B04031D0C2A0230F00057
:10037E000030F1005B08A1005A08A0000310A00D88
:10038E00A10D20087B07A20021080318210A7C0773
:10039E00A300220884008317231C83130008F20095
:1003AE00840A0008F3000A128A15F6220A128A112C
:1003BE00831203135B08A5005A08A4000310A40DB2
:1003CE00A50D24087B07A60025080318250A7C071F
:1003DE00A700260884008317271C8313700880004B
:1003EE00840A710880005408A0002007303E840063
:1003FE00013083138000840A003080000130D4075E
:10040E000318D50A0030D507932A0230F0000030C9
:10041E00F1005B08A1005A08A0000310A00DA10D69
:10042E0020087B07A20021080318210A7C07A300DD
:10043E00220884008317231C83130008F200840A09
:10044E000008F3000A128A15F6220A128A11831284
:10045E0003135B08A5005A08A4000310A40DA50DF4
:10046E0024087B07A60025080318250A7C07A70089
:10047E00260884008317271C831370088000840AC3
:10048E00710880005B08A1005A08A0000310A00D9F
:10049E00A10D2008023EA20021080318013E003ED5
:1004AE00A30022087B07A40023080318230A7C0755
:1004BE00A500240884008317251C83130008A600BA
:1004CE00840A0008A70026080A3EA8002708031879
:1004DE00013E003EA9005B08AB005A08AA000310BB
:1004EE00AA0DAB0D2A08023EAC002B080318013EE4
:1004FE00003EAD002C087B07AE002D0803182D0A18
:10050E007C07AF002E08840083172F1C8313280846
:10051E008000840A290880000130DA070318DB0AFC
:10052E000030DB075B08803AFF0080307F02031D3E
:10053E00A22A05305A02031CF72801308312031336
:10054E00D2070318D30A0030D3075308803AFF00AE
:10055E0080307F02031DB52A11305202031CE82899
:10056E0083120313D801D9015908803AFF00803055
:10057E007F02031DC42A1130580203180D2B83125B
:10058E0003135808A0002007303E84008313000890
:10059E00A100840A0008A20021082204031DE02AFB
:1005AE007A08F3007908F2000A128A1564220A12F8
:1005BE008A11831203135808A0002007303E8400CE
:1005CE0083130008A100840A0008A200210322045C
:1005DE00031DFA2A7A08F3007908F2000A128A1526
:1005EE001E220A128A11013083120313D807031830
:1005FE00D90A0030D9075908803AFF0080307F02AF
:10060E00031D0B2B11305802031CC62A7A08F30067
:10061E007908F2000A128A151E220A128A117A0825
:10062E00F3007908F2000A128A1564220A128A115E
:10063E007A08F3007908F2000A128A15BC21080024
:10064E00FF30F600760883120313BC00EA01EB01BB
:10065E0000306B02023003196A02031808007E3064
:10066E003C060319862B0A128A15AA220A128A112F
:10067E00710883120313BB007008BA003C08F60021
:10068E007607F7007708BC003A083B040319362BAF
:10069E003C080138F6007608BC00362BA001A101FB
:1006AE00003021020830031920020318862B0A128B
:1006BE008A15AA220A128A11710883120313BB002B
:1006CE007008BA003C08F6000310760CF7007708A5
:1006DE00BC003A083B040319792B3C088038F6001D
:1006EE007608BC000130A0070318A10A0030A1074C
:1006FE0000302102083003192002031C5E2B7E30CD
:10070E003C060319552B123084000A128A1500205C
:10071E000A128A11F600F7010310F60DF70D3C08C8
:10072E00F800F90177087906031D9F2B76087806E5
:10073E00031D642D3C08F6006608903E8400760882
:10074E00831780000130E6070318E70A0030E70739
:10075E00A201A3010030230208300319220203185C
:10076E00E02B0A128A15AA220A128A117108831224
:10077E000313BB007008BA003C08F6000310760C99
:10078E00F7007708BC003A083B040319D32B3C084A
:10079E008038F6007608BC000130A2070318A30AC1
:1007AE000030A30700302302083003192202031C75
:1007BE00B82B133084000A128A1500200A128A11EF
:1007CE00F600F7010310F60DF70D3C08F800F901DD
:1007DE0077087906031DF52B76087806031D642D20
:1007EE003C08F6006608903E840076088317800069
:1007FE000130E6070318E70A0030E707A401A50158
:10080E00003025020830031924020318362C0A1270
:10081E008A15AA220A128A11710883120313BB00C9
:10082E007008BA003C08F6000310760CF700770843
:10083E00BC003A083B040319292C3C088038F6000A
:10084E007608BC000130A4070318A50A0030A507DE
:10085E0000302502083003192402031C0E2C14301C
:10086E0084000A128A1500200A128A11F600F70176
:10087E000310F60DF70D3C08F800F901770879061C
:10088E00031D4B2C76087806031D642D3C08F600DC
:10089E006608903E84007608831780000130E607D4
:1008AE000318E70A0030E707A601A7010030270268
:1008BE0008300319260203188C2C0A128A15AA2254
:1008CE000A128A11710883120313BB007008BA0052
:1008DE003C08F6000310760CF7007708BC003A08C7
:1008EE003B0403197F2C3C088038F6007608BC00C8
:1008FE000130A6070318A70A0030A7070030270209
:10090E00083003192602031C642C153084000A12C9
:10091E008A1500200A128A11F600F7010310F60D4F
:10092E00F70D3C08F800F90177087906031DA12C94
:10093E0076087806031D642D3C08F6006608903E86
:10094E0084007608831780000130E6070318E70A53
:10095E000030E707A801A901003029020830031969
:10096E0028020318E22C0A128A15AA220A128A11E8
:10097E00710883120313BB007008BA003C08F6001E
:10098E000310760CF7007708BC003A083B040319F5
:10099E00D52C3C088038F6007608BC000130A8073C
:1009AE000318A90A0030A9070030290208300319DC
:1009BE002802031CBA2C163084000A128A15002055
:1009CE000A128A11F600F7010310F60DF70D3C0816
:1009DE00F800F90177087906031DF72C76087806DA
:1009EE00031D642D3C08F6006608903E84007608D0
:1009FE00831780000130E6070318E70A0030E70787
:100A0E00AA01AB0100302B02083003192A02031889
:100A1E00382D0A128A15AA220A128A117108831217
:100A2E000313BB007008BA003C08F6000310760CE6
:100A3E00F7007708BC003A083B0403192B2D3C083D
:100A4E008038F6007608BC000130AA070318AB0AFE
:100A5E000030AB0700302B02083003192A02031CAA
:100A6E00102D173084000A128A1500200A128A11DE
:100A7E00F600F7010310F60DF70D3C08F800F9012A
:100A8E0077087906031D4D2D76087806031D642D13
:100A9E003C08F6006608903E8400760883178000B6
:100AAE000130E6070318E70A0030E7070130EA07CE
:100ABE000318EB0A0030EB07662DE601E701AC01E7
:100ACE00AD0100302D02083003192C020318972DAA
:100ADE000A128A15AA220A128A11710883120313A6
:100AEE00BB007008BA003C08F6000310760CF70045
:100AFE007708BC003A083B0403198A2D3C0880385D
:100B0E00F6007608BC000130AC070318AD0A0030C1
:100B1E00AD0700302D02083003192C02031C6F2D77
:100B2E003C08F6006608903E840076088317800025
:100B3E000130E6070318E70A0030E707AE01AF0100
:100B4E0000302F02083003192E020318D62D0A1278
:100B5E008A15AA220A128A11710883120313BB0086
:100B6E007008BA003C08F6000310760CF700770800
:100B7E00BC003A083B040319C92D3C088038F60026
:100B8E007608BC000130AE070318AF0A0030AF077D
:100B9E0000302F02083003192E02031CAE2D0B302D
:100BAE0084000A128A1500200A128A11F600F70133
:100BBE000310F60DF70D3C08F800F90177087906D9
:100BCE00031DEB2D76087806031DB02F3C08F600AA
:100BDE006608903E84007608831780000130E60791
:100BEE000318E70A0030E707B001B1010030310207
:100BFE0008300319300203182C2E0A128A15AA2265
:100C0E000A128A11710883120313BB007008BA000E
:100C1E003C08F6000310760CF7007708BC003A0883
:100C2E003B0403191F2E3C088038F6007608BC00E2
:100C3E000130B0070318B10A0030B107003031029D
:100C4E00083003193002031C042E0C3084000A12E3
:100C5E008A1500200A128A11F600F7010310F60D0C
:100C6E00F70D3C08F800F90177087906031D412EAF
:100C7E0076087806031DB02F3C08F6006608903EF5
:100C8E0084007608831780000130E6070318E70A10
:100C9E000030E707B201B301003033020830031908
:100CAE0032020318822E0A128A15AA220A128A11F9
:100CBE00710883120313BB007008BA003C08F600DB
:100CCE000310760CF7007708BC003A083B040319B2
:100CDE00752E3C088038F6007608BC000130B2074D
:100CEE000318B30A0030B30700303302083003197B
:100CFE003202031C5A2E0D3084000A128A1500206F
:100D0E000A128A11F600F7010310F60DF70D3C08D2
:100D1E00F800F90177087906031D972E76087806F4
:100D2E00031DB02F3C08F6006608903E840076083E
:100D3E00831780000130E6070318E70A0030E70743
:100D4E00B401B5010030350208300319340203181E
:100D5E00D82E0A128A15AA220A128A117108831233
:100D6E000313BB007008BA003C08F6000310760CA3
:100D7E00F7007708BC003A083B040319CB2E3C0859
:100D8E008038F6007608BC000130B4070318B50AA7
:100D9E000030B50700303502083003193402031C49
:100DAE00B02E0E3084000A128A1500200A128A1103
:100DBE00F600F7010310F60DF70D3C08F800F901E7
:100DCE0077087906031DED2E76087806031DB02FE1
:100DDE003C08F6006608903E840076088317800073
:100DEE000130E6070318E70A0030E707B601B7013E
:100DFE000030370208300319360203182E2F0A125C
:100E0E008A15AA220A128A11710883120313BB00D3
:100E1E007008BA003C08F6000310760CF70077084D
:100E2E00BC003A083B040319212F3C088038F60019
:100E3E007608BC000130B6070318B70A0030B707B2
:100E4E0000303702083003193602031C062F0F300C
:100E5E0084000A128A1500200A128A11F600F70180
:100E6E000310F60DF70D3C08F800F9017708790626
:100E7E00031D432F76087806031DB02F3C08F6009D
:100E8E006608903E84007608831780000130E607DE
:100E9E000318E70A0030E707B801B901003039023C
:100EAE000830031938020318842F0A128A15AA2251
:100EBE000A128A11710883120313BB007008BA005C
:100ECE003C08F6000310760CF7007708BC003A08D1
:100EDE003B040319772F3C088038F6007608BC00D7
:100EEE000130B8070318B90A0030B90700303902CB
:100EFE00083003193802031C5C2F103084000A12CC
:100F0E008A1500200A128A11F600F7010310F60D59
:100F1E00F70D3C08F800F90177087906031D992FA3
:100F2E0076087806031DB02F3C08F6006608903E42
:100F3E0084007608831780000130E6070318E70A5D
:100F4E000030E7070130EA070318EB0A0030EB0721
:100F5E002F2BE601E7012D2B8317EA30FD00093018
:100F6E00FE001030FF00C23084000A128A1557208E
:100F7E000A128A115930FD000830FE00A430FF001D
:100F8E00403084000A128A1557200A128A118313E0
:100F9E00DC30FD000830FE00BD30FF00C2308400A2
:100FAE000A128A1557200A128A118317903084006C
:100FBE00C2300A128A1542200A128A111030840099
:100FCE0040300A128A1542200A128A118313DC302D
:100FDE008400E9300A128A1542200A128A116630FC
:100FEE00840070300A128A15422083010A128A1573
:100FFE002E2E08308A000408840A8207003420341A
:10100E000034733474346134723474340D340A34ED
:10101E0000344A34513431345A344834583400345C
:0E102E004A3451343134593443345A34003486
:101048000A128A154A2083160313111408000A127B
:101058008A154A2083160313111508000A128A15E7
:101068004A2070088312031393000800F0008312CB
:1010780003130C1E3B2870089900080064008001C7
:10108800840A04060319003404064328831603134C
:1010980014194A2811081F39031908004A287E081C
:1010A8008A007F08820053200A128A158000840A69
:1010B80004087D0603190034FF0A0319FE0A57289D
:1010C800F30073080A128A153A200A128A15710861
:1010D8000A128A153A200A128A1572080A128A1503
:1010E8003A200800F001F1017108803AFF008030D1
:1010F8007F02031D812805307002031808000000D4
:101108000130F0070318F10A0030F10778280A3097
:1011180083160313990018111812831203139817D2
:10112800181698128C12831603130C128C161813A7
:1011380083120313181383160313981298160800C2
:10114800483465346C346C346F3421342034493479
:1011580027346D3420344F34723469346734613441
:101168006D34693453346134743431342134213466
:101178000034A034003400340A3400340A34003413
:1011880000340134003407340034043400340734A4
:101198000034083400340734003403340034003495
:1011A800003400340034F4007030F1007108F200AB
:1011B8000130F407FF30740784000A128A150020F2
:1011C8000A128A15F1007108F30073080319080060
:1011D80073080A128A153A200A128A15DC28831223
:1011E8000313850186018701880189018316031786
:1011F800880189018030831603138500203086001A
:1012080098308700880189018312031385018601BC
:101218008701880189010800083400340734003444
:101228000334003400340034003400340034003413
:1012380001340034073400340434003407340034F3
:1012480002340034043400340834003408340034E0
:1012580007340034023400340434003408340034D1
:101268000834003407340034023083120313E000DA
:101278000030E1006108F5006008F4000A128A15E0
:10128800D0240A128A15831203136108FA00600831
:10129800F9005D08FC005C08FB000A128A154D2560
:1012A8000A128A15831203136108FA006008F9000C
:1012B8005E08FB005F08FC000A128A11AC200800D7
:1012C800033083120313E0000030E1006108F500E9
:1012D8006008F4000A128A15D0240A128A158312AB
:1012E80003136108FA006008F9005D08FC005C0857
:1012F800FB000A128A154D250A128A158312031358
:101308006108FA006008F9005E08FB005F08FC004D
:101318000A128A11AC200800013083120313E0007E
:101328000030E1006108F5006008F4000A128A152F
:10133800D0240A128A15831203136108FA00600880
:10134800F9005D08FC005C08FB000A128A154D25AF
:101358000A128A15831203136108FA006008F9005B
:101368005E08FB005F08FC000A128A11AC20080026
:1013780072037304031DCB298312031385160A1203
:101388008A1576200A128A158312031385120230F1
:1013980072067304031DDB298312031308140A124F
:1013A8008A1576200A128A1583120313081003304F
:1013B80072067304031D08008312031305160A122C
:1013C8008A15762083120313051208002830831229
:1013D8000313940083160313910183120313200847
:1013E800A4002108A5002208A6002308A7000230AF
:1013F8000310A40DA50DA60DA70DFF3E031DFC2986
:101408002708F3002608F2002508F1002408F00058
:101418000030F7009830F6009630F5008030F40080
:101428000A128A15AC237008FF3E83160313930033
:101438009401080072037304031D352A83120313F1
:1014480009140A128A1576200A128A1583120313C0
:1014580089140A128A1576200A128A158312031330
:101468008910023072067304031D4D2A8312031378
:1014780088140A128A1576200A128A158312031311
:1014880008150A128A1576200A128A158312031380
:101498000811033072067304031D08008312031336
:1014A80085150A128A1576200A128A1583120313E3
:1014B80005150A128A1576208312031305110800F0
:1014C80072037304031D7B2A8312031309100A1283
:1014D8008A1576200A128A158312031389140A12B0
:1014E8008A1576200A128A1583120313891002308E
:1014F80072067304031D932A8312031388100A12B9
:101508008A1576200A128A158312031308150A12FF
:101518008A1576200A128A158312031308110330DC
:1015280072067304031D08008312031385110A123F
:101538008A1576200A128A158312031305150A12D2
:101548008A157620831203130511080003108312ED
:101558000313861A0314003003180130F200F30154
:10156800720883160313E7007308E800F401F50115
:10157800003075023E30031974020318F12A031073
:101588008312861A0314003003180130F200F301A5
:101598008316031368087306031DD42A67087206A6
:1015A8000319E42AF930F2000000F20BD82ADC2AE9
:1015B80000000430831203138706F001F1010800CC
:1015C8000130F4070318F50A0030F50700307502FA
:1015D8003E3003197402031CC42A0130F0000030A5
:1015E800F1000800F601F11F002BF009F109F00ADB
:1015F8000319F10AF601F60AF31F0B2BF209F30996
:10160800F20A0319F30A0130F4007408F606F70128
:10161800F801700871040319422BF501F50AF11B52
:10162800212B01300310F00DF10DFF3E031D162B89
:101638000130F4007408F507132B01300310F70D7F
:10164800F80DFF3E031D222B71087302031D2E2B7C
:1016580070087202031C372B7008F2027108031C11
:10166800F303F302771401300310F10CF00CFF3E82
:10167800031D382B0130F502031D212B76080319B1
:101688004A2BF709F809F70A0319F80A7808F1004C
:101698007708F0000800F8007808F5007507F600EC
:1016A8007608F9000A128A1524200A128A15790880
:1016B800F500F6017508F0007608F1000A128A159F
:1016C80032200A128A157208F500F6017508F00032
:1016D8007608F1000A128A1532200A128A15730850
:1016E800F500F6017508F0007608F1000A128A156F
:1016F80032200A128A157408840083170008031917
:10170800992B7408840083170008F500F601750802
:10171800F0007608F1000A128A1532200A128A159A
:101728000130F5007508F4077F2B0A128A152B2063
:101738000A128A150330F7008A30F6005630F50091
:10174800F50BA42BF60BA42BF70BA42BAB2B080043
:101758000030FC000030FB000030FA000030F900D7
:1017680073087204710470040319012CFD01FD0A49
:10177800F31BCC2B0130F8000310F00DF10DF20D26
:10178800F30DF80BC02B0130F8007808FD07BC2BCF
:101798000130F8000310F90DFA0DFB0DFC0DF80BE4
:1017A800CE2B73087702031DE32B72087602031D04
:1017B800E32B71087502031DE32B70087402031CE8
:1017C800F42B7008F4027108031C710FF5027208FB
:1017D800031C720FF6027308031C730FF7027914C7
:1017E80001300310F30CF20CF10CF00CFF3E031D5A
:1017F800F52B0130FD02031DCC2B7C08F3007B0880
:10180800F2007A08F1007908F00008008312031347
:10181800A601A201A301A001A101A401A501023012
:101828006A066B04031D08000A128A15AA220A1206
:101838008A15710883120313A5007008A4000530E7
:1018480022062304031D362C24032504031D332CF0
:101858000130EA070318EB0A0030EB070800A20181
:10186800A301132C2608F6000310760CF70077085E
:10187800A60024082504031D442CA201A3014F2C13
:1018880026088038F6007608A6000130A20703185B
:10189800A30A0030A3070130A0070318A10A0030EB
:1018A800A107083020062104031D132CA001A10163
:1018B8002608F6006608903E8400760883178000A4
:1018C8000130E6070318E70A0030E707132C0A126D
:1018D8008A1127230A128A150A128A150A240A125B
:1018E8008A150A128A112A200A128A157108831287
:1018F8000313BE007008BD003D033E04031DCA2C3F
:10190800BF01C001013084000A128A1500200A12A2
:101918008A15FA000A128A1500200A128A15FB0095
:101928007B084002031D9A2C7A083F020318C42C36
:101938003F08143E903E840083170008FA003F08D1
:10194800303E84007A0880000130BF070318C00ABF
:101958000030C007013084000A128A1500200A12DC
:101968008A15FA000A128A1500200A128A15FB0045
:101978007B084002031DC22C7A083F02031C9C2CE2
:10198800E601E701EA01EB0130300800E601E70172
:10199800EA01EB01003008007508F3007408F20052
:1019A8000A128A1564220A128A157508F300740847
:1019B800F2000A128A1564220A128A157508F300C1
:1019C8007408F2000A128A1564220A128A15750828
:1019D800F3007408F2000A128A151E220A128A15E8
:1019E8007508F3007408F2000A128A151E220A12FA
:1019F8008A157508F3007408F2000A128A15642221
:101A08000A128A157508F3007408F2000A128A157A
:101A180064220A128A157508F3007408F2000A1283
:101A28008A1564220A128A157508F3007408F200F0
:101A38000A128A1564220A128A157508F3007408B6
:101A4800F2000A128A1564220A128A157508F30030
:101A58007408F2000A128A151E220A128A157508DD
:101A6800F3007408F2000A128A1564220A128A1511
:101A78007508F3007408F2000A128A1564220A1223
:101A88008A157508F3007408F2000A128A15BC2139
:101A9800080083120313BD01BE013E08803AFF000F
:101AA80080307F02031D5A2D0C303D020318782D1B
:101AB800831203133D08A0002007233E84008313EC
:101AC8008001840A80010130BD070318BE0A003076
:101AD800BE073E08803AFF0080307F02031D762D46
:101AE8000C303D02031C5C2D83120313BB01BC01A7
:101AF8007C08803AFF0080307F02031D852D01306D
:101B08007B02031CBE2D01307B0583120313A0004A
:101B180000307C05A1003B08A2002207233E840078
:101B2800200883138000840A210880000230F00016
:101B38000030F1007C08F3007B08F2000A128A15D5
:101B4800F6220A128A157108FC007008FB000130A1
:101B580083120313BB070318BC0A0030BC077C08B8
:101B6800803AFF0080307F02031DBC2D01307B02CC
:101B78000318872D83120313BF01C0014008803A60
:101B8800FF0080307F02031DCB2D0C303F0203186D
:101B9800142E831203133F08A0002007233E84005D
:101BA80083130008A100840A0008A2002108220467
:101BB800031DE72D7A08F3007908F2000A128A1546
:101BC80064220A128A15831203133F08A000200713
:101BD800233E840083130008A100840A0008A200A1
:101BE80021032204031D012E7A08F3007908F2006C
:101BF8000A128A151E220A128A150130831203134B
:101C0800BF070318C00A0030C0074008803AFF0029
:101C180080307F02031D122E0C303F02031CCD2D95
:101C28007A08F3007908F2000A128A151E220A12AD
:101C38008A157A08F3007908F2000A128A151E221A
:101C48000A128A157A08F3007908F2000A128A152E
:101C5800BC210800273083120313E4000D30E30091
:101C68004B30E200E20B362EE30B362EE40B362E19
:101C780000000A128A158B200A128A150A128A1580
:101C8800F3200A128A15003083120313A3000630CA
:101C9800A2001A30A1008030A0000A128A15EA2199
:101CA8000A128A158312031306150730E400583008
:101CB800E3005E30E200E20B5F2EE30B5F2EE40BE5
:101CC8005F2E662E83160313470883120313DD0065
:101CD80083160313460883120313DC00D230DE0098
:101CE8000030DF000A128A1590210A128A1583161D
:101CF8000313430883120313DD00831603134208FA
:101D080083120313DC00C830DE000030DF000A1243
:101D18008A1538210A128A15831603134508831277
:101D28000313DD0083160313440883120313DC0036
:101D3800E030DE000130DF000A128A1564210A1241
:101D48008A1583120313061103300A128A15D72045
:101D58000A128A150A128A156B240A128A15831226
:101D68000313E200620883160313C10083120313EE
:101D780006150730E4005830E3005E30E200E20B5D
:101D8800C32EE30BC32EE40BC32ECA2E83120313F8
:101D98000611F201F301831603134108831203139A
:101DA800E2006208F40050300A128A154F230A1222
:101DB8008A1583160313BF01C0010030400220308A
:101DC80003193F020318F52E0130BF070318C00A94
:101DD8000030C00700304002203003193F02031CC6
:101DE800E82E410884006E3083170006031D0D2F6E
:101DF800723083120313E200620883160313BE00D5
:101E0800F101F2013E080A128A1564200A128A15A5
:101E1800F02F8316031341088400703083170006DF
:101E2800031DDD2F4108023E8400723000060319AD
:101E3800C52FF02F0A128A1107200A128A1540307E
:101E480083120313E4006A30E300D530E200E20BAA
:101E58002B2FE30B2B2FE40B2B2F322FA0308400DA
:101E6800C23083120313E2000408E3000A30E400DE
:101E78006208840083170008E500E20A630884000A
:101E8800831365088000E30AE40B3C2FAA30840022
:101E9800CC30E2000408E3000A30E4006208840061
:101EA80083170008E500E20A6308840083136508C5
:101EB8008000E30AE40B522FB4308400D630E200ED
:101EC8000408E3000A30E40062088400831700086D
:101ED800E500E20A63088400831365088000E30ACA
:101EE800E40B682F83160313470883120313DD00DE
:101EF80083160313460883120313DC00A030DE00A8
:101F08000030DF000A128A1590210A128A158316FA
:101F18000313430883120313DD00831603134208D7
:101F280083120313DC00AA30DE000030DF000A123F
:101F38008A1538210A128A15831603134508831255
:101F48000313DD0083160313440883120313DC0014
:101F5800B430DE000030DF000A128A1564210A124C
:101F68008A15073083120313E4005830E3005E300B
:101F7800E200E20BBD2FE30BBD2FE40BBD2FC42FF6
:101F8800F02F831603134108033E840083170008CB
:101F9800333A0319F02F763A03191E2F0C3A031916
:101FA800F02F073A0319F02F1A3A0319F02FF02FE0
:101FB800F02F8312031306150D30E400AF30E30051
:101FC800C130E200E20BE62FE30BE62FE40BE62F2D
:101FD8000000831203130611073083120313E40071
:101FE8005830E3005E30E200E20BF82FE30BF82FE5
:081FF800E40BF82FFF2FAE2EC1
:04400E00E2E3FFFEEC
:00000001FF
